:020000040800F2
:10000000380B002029020008F1030008E90300086A
:10001000ED030008F50200086F330008000000003F
:100020000000000000000000000000000531000892
:10003000F9020008000000000B2F00081D32000824
:10004000430200084302000843020008430200087C
:10005000430200084302000843020008430200086C
:10006000430200084302000843020008430200085C
:10007000430200084302000843020008430200084C
:10008000430200084302000843020008430200083C
:10009000430200084302000843020008430200082C
:1000A000430200084302000843020008430200081C
:1000B000430200084302000843020008430200080C
:1000C00043020008430200084302000843020008FC
:1000D0004302000889320008430200084302000876
:1000E00043020008430200084302000843020008DC
:1000F00043020008430200084302000843020008CC
:1001000043020008430200084302000843020008BB
:1001100043020008430200084302000843020008AB
:10012000430200084302000843020008430200089B
:10013000430200084302000843020008430200088B
:10014000430200084302000843020008430200087B
:10015000430200084302000843020008430200086B
:10016000430200084302000843020008430200085B
:10017000430200084302000843020008430200084B
:10018000430200084302000800F002F800F03CF8C7
:100190000AA090E8000C82448344AAF10107DA45E2
:1001A00001D100F031F8AFF2090EBAE80F0013F0F8
:1001B000010F18BFFB1A43F0010318473448000031
:1001C00054480000103A24BF78C878C1FAD85207C2
:1001D00024BF30C830C144BF04680C6070470000C1
:1001E0000023002400250026103A28BF78C1FBD840
:1001F000520728BF30C148BF0B6070471FB504F0DD
:100200005AFB1FBD10B510BD00F046F81146FFF7B0
:10021000F5FF03F0D1FD00F064F803B4FFF7F2FF3F
:1002200003BC03F09DFD00000948804709480047D2
:10023000FEE7FEE7FEE7FEE7FEE7FEE7FEE7FEE796
:10024000FEE7FEE704480549054A064B70470000F3
:10025000213200088901000838050020380B0020F1
:1002600038070020380700207047704770477047F4
:10027000704710B500F008F8006810BD10B50446CE
:1002800000F002F8046010BD00487047D40400205C
:1002900000487047D40400207546FFF7F9FFAE46CA
:1002A00005006946534620F00700854618B020B582
:1002B000FFF7C8FFBDE820404FF000064FF00007F1
:1002C0004FF000084FF0000B21F00701AC46ACE8FE
:1002D000C009ACE8C009ACE8C009ACE8C0098D466B
:1002E000704710B50446AFF300802046BDE81040CB
:1002F000FFF793BF00BFFEE770471CB501201E2328
:100300003C221F2100903F2002F0ECFC01201E2324
:100310003C221F2100903F2002F05AFB01201423B1
:100320001E221F2100903F2001F01EFE0120B4215B
:1003300014231E22CDE900101F213F2002F044FCAF
:100340000120B42114231E22CDE900101F213F20DB
:1003500002F0A2FC0120B42114231E22CDE90010DA
:100360001F213F2002F056FC01201E233C221F21AA
:1003700000903F2002F010FD01201E233C221F218F
:1003800000903F2002F0D5FB01201E233C221F21BC
:1003900000903F2001F093FD1CBDF0B50023002428
:1003A0004D07ED0E02FA05F3CE1000F1200555F8C9
:1003B00026504E07F70E0F26BE40B543CF1000F172
:1003C000200646F82750CE1000F1200555F826509B
:1003D00045EA0304CE1000F1200545F82640F0BDA3
:1003E000418370470183704700BFFEE700BFFEE70F
:1003F0007047000070B500240CE0002506E00020E6
:10040000074901EBC5010855681CC5B2802DF6DB14
:10041000601CC4B2082CF0DB01F020FD70BD0000B0
:10042000D40000202DE9F0432DED108B87B0064657
:100430000F4615461C46DDE91E890020069060B275
:100440008DF81900604203F06AFF41EC1E0B9FED2E
:10045000AE0B53EC102B03F0F9FC41EC1C0B05FB2D
:1004600005F003F05CFF41EC1D0B53EC1C2B03F07B
:10047000BDFF41EC1A0B04FB04F003F050FF41EC0C
:100480001B0B53EC1A2B03F0E1FC41EC190B03F0AE
:10049000ABFC08EE900ACDE900899DF91900C3195B
:1004A0009DF9180082193946304600F0F7FB4AE002
:1004B000F5EEC08AF1EE10FA15D804FB04F09DF9B0
:1004C00018104900C91C484300EE100AB8EEC00AD3
:1004D00030EE280AF0EE408A9DF81800401C40B229
:1004E0008DF8180023E004FB04F09DF91810490072
:1004F000C91C484305FB05F19DF919205200C2F1C2
:10050000020201FB020000EE100AB8EEC00A30EE53
:10051000280AF0EE408A9DF81800401C40B28DF881
:1005200018009DF81900401E40B28DF81900CDE961
:1005300000899DF91900C3199DF9180082193946DF
:10054000304600F0ABFB9DF9190003F0E8FE41ECEA
:100550001D0B9FED6F0B53EC102B04F051F841EC89
:100560001B0B05FB05F003F0DAFE41EC1C0B53EC12
:100570001B2B03F03BFF41EC190B04FB04F19DF92D
:100580001820521C01FB02F003F0C9FE41EC1A0BCB
:1005900053EC192B03F0EEFE8AD305FB05F1614302
:1005A00001FB04F003F0BBFE41EC190B05FB05F168
:1005B0009DF91920521E51439DF91920521E01FB2D
:1005C00002F003F0ACFECDE900019DF9180003F044
:1005D000A6FE41EC1D0B9FED4E0B53EC102B03F0D0
:1005E00035FC41EC1B0B9DF9180003F098FE41EC23
:1005F0001F0B9FED470B53EC102B03F027FC41EC36
:100600001D0B04FB04F003F08AFE41EC1E0B53ECBF
:100610001D2B03F0EBFE41EC1C0B53EC1B2B03F0EA
:10062000E5FE41EC1A0B9DED000B53EC102B03F093
:100630000DFC53EC192BCDE902019DED020B51ECA1
:10064000100B03F0DDFFCDE904019DED040B51EC2F
:10065000100B03F0C9FB08EE100A4BE0B5EEC08AA0
:10066000F1EE10FA24D804FB04F09DF918104900AB
:10067000891C414305FB05F09DF919205200C2F188
:10068000030200FB021000EE100AB8EEC00A30EEC2
:10069000080AB0EE408A9DF81800401C40B28DF860
:1006A00018009DF81900401E40B28DF8190015E0A1
:1006B00005FB05F09DF919104900C1F103014843FC
:1006C00000EE100AB8EEC00A30EE080AB0EE408A1A
:1006D0009DF81900401E40B28DF81900CDE900893F
:1006E0009DF91900C3199DF9180082193946304641
:1006F00000F0D4FA9DF919000028AFDC07B0BDEC7A
:10070000108BBDE8F0830000000000000000D03F27
:10071000000000000000E03F2DE9FF4F04460D46B9
:1007200090469946A8EB0406A9EB05070020039024
:10073000824607BB002E07DA704206B284EA08043C
:1007400088EA040884EA080410E0BDF80E202A4470
:10075000D1B2BDF80C202244D0B20D9A00F01AF9A3
:10076000BDF80C00401C00B2ADF80C00BDF90C0047
:10077000B042EADD0BE106BB002F07DA784207B290
:1007800085EA090589EA050985EA090510E0BDF849
:100790000E202A44D1B2BDF80C202244D0B20D9ACA
:1007A00000F0F8F8BDF80E00401C00B2ADF80E00E5
:1007B000BDF90E00B842EADDE9E0002E04DD002FAD
:1007C00002DD4AF0010A2FE0002E0ADD002F08DAD0
:1007D0004AF0020A784207B2C9EB450000F0FF096F
:1007E00022E0002E14DA002F12DA4AF0040A7042D6
:1007F00006B2784207B284EA080488EA040884EA68
:10080000080485EA090589EA050985EA09050BE076
:10081000002E09DA002F07DD4AF0080A704206B2FE
:10082000C8EB440000F0FF08BE4217DA4AF0100A95
:100830008DF800808DF80190601B9DF80110084430
:1008400000F0FF08604228449DF80010084400F0C2
:10085000FF09A8EB0406A9EB050700BF780000B26A
:100860000290B81B400000B20190C6EB47000FFA9F
:1008700080FBBDF80E202A44D1B2BDF80C202244E2
:10088000D0B20D9A00F086F8BDF80C00401C00B202
:10089000ADF80C0076E0BBF1000F04DA0298584482
:1008A0000FFA80FB09E0BDF80E00401C00B2ADF865
:1008B0000E00019858440FFA80FB0AF00F0001283F
:1008C00006D0022820D0042803D0082852D136E0D0
:1008D00000BF0AF0100058B1BDF80C202A44D1B274
:1008E000BDF80E202244D0B20D9A00F053F80AE071
:1008F000BDF80E202A44D1B2BDF80C202244D0B25B
:100900000D9A00F047F836E00AF0100058B1BDF833
:100910000C20AA1AD1B2BDF80E202244D0B20D9AF2
:1009200000F038F80AE0BDF80E20AA1AD1B2BDF8DE
:100930000C202244D0B20D9A00F02CF81BE00AF0F3
:10094000100058B1BDF80C202A44D1B2BDF80E20D9
:10095000A21AD0B20D9A00F01DF80AE0BDF80E20E0
:100960002A44D1B2BDF80C20A21AD0B20D9A00F0E0
:1009700011F800E000BF00BFBDF80C00401C00B241
:10098000ADF80C00BDF90C00B04284DD00BFBDE83D
:10099000FF8F0000F0B5144600267F2801DC3F29B8
:1009A00000DDF0BD0B46CF1701EB5777FF10C7F105
:1009B0000707FAB2CF1701EB5777FF10A1EBC70774
:1009C000FDB2C5F107070123BB40DEB24CB10A4BB3
:1009D00003EBC0039B5C3343074F07EBC007BB54DB
:1009E00008E0054B03EBC0039B5CB343024F07EBEE
:1009F000C007BB5400BFD4E7D40000202DE9F84164
:100A000005460E4617469846079C33463A463146F9
:100A100028460094FFF780FE43463A464146284662
:100A20000094FFF779FE43462A4631462846009453
:100A3000FFF772FE43463A46314638460094FFF7C8
:100A40006BFEBDE8F88100002DE9F0432DED0C8B25
:100A500083B007460E4614461D46DDF858804FF019
:100A6000000904EBD471A7EB6101002929D549F0F5
:100A70000109204603F06AFC41EC190B384603F0EB
:100A800065FC41EC1B0B284603F060FC41EC1D0BA0
:100A90009FED800B53EC102B03F0A8FC41EC1C0BDA
:100AA00053EC1B2B03F0A2FC41EC1A0B53EC192B5B
:100AB00003F080FA41EC180B03F004FCC5B2780691
:100AC000040E05EBD571A6EB6101002929D549F08B
:100AD0000409284603F03AFC41EC190B700003F0BE
:100AE0001EFC41EC1B0B204603F030FC41EC1D0BBF
:100AF0009FED680B53EC102B03F078FC41EC1C0BC2
:100B000053EC1B2B03F072FC41EC1A0B53EC192B2A
:100B100003F050FA41EC180B03F0D4FBC4B270069A
:100B2000050E04EBD47107EB610180292CDB49F041
:100B30000209284603F00AFC41EC190BC7F18001B9
:100B4000480003F0ECFB41EC1B0B284603F0FEFBD6
:100B500041EC1D0B9FED4F0B53EC102B03F046FCAB
:100B600041EC1C0B53EC1B2B03F040FC41EC1A0B2B
:100B700053EC192B03F01EFA41EC180B03F0A2FB07
:100B8000C5B278424006040E05EBD57106EB610153
:100B900040292DDB49F00809204603F0D7FB41EC42
:100BA000190BC6F14001480003F0B9FB41EC1B0BE7
:100BB000204603F0CBFB41EC1D0B9FED360B53ECB5
:100BC000102B03F013FC41EC1C0B53EC1B2B03F01C
:100BD0000DFC41EC1A0B53EC192B03F0EBF941EC33
:100BE000180B03F06FFBC4B2C6F140004006050EBF
:100BF000204604EBD071A7EB6101C9B28DF8081053
:100C0000284605EBD071A6EB6101C9B28DF8091039
:100C1000204604EBD07107EB6101C9B28DF80410D6
:100C2000284605EBD07106EB6101C9B28DF80510BD
:100C3000CDF800809DF805309DF8042019469DF8F8
:100C40000800FFF769FDCDF800809DF809309DF898
:100C5000042019469DF80800FFF75EFDCDF80080DE
:100C60009DF809309DF808209DF805101046FFF703
:100C700053FDCDF800809DF809309DF804209DF8C3
:100C800005101046FFF748FD03B0BDEC0C8BBDE826
:100C9000F0830000000000000000F03F2DE9F04765
:100CA0002DED0E8B04460D4616461F46DDE9169ABD
:100CB000484603F04BFB41EC1C0B9FED7A0B53ECC9
:100CC000102B03F093FB41EC1E0B03F08DF88046D4
:100CD000404603F07FFD41EC1E0BB0EE4E0AF0EEF5
:100CE0006E0A02F0C5FBB0EE40CAF0EE60CA51ECED
:100CF0001C0B03F079F808EE100A404603F06AFD79
:100D000041EC1E0BB0EE4E0AF0EE6E0A02F04CFB08
:100D1000B0EE40CAF0EE60CA51EC1C0B03F064F870
:100D200008EE900A301B06B2781B07B200EE106A7C
:100D3000B8EEC00A20EE080AB0EE409A00EE106A43
:100D4000B8EEC00A20EE280AF0EE409A00EE107AC3
:100D5000B8EEC00A20EE080AB0EE40AA00EE107A03
:100D6000B8EEC00A20EE280AF0EE40AA704200EE6B
:100D7000100AB8EEC00A20EE080AB0EE40BA70427F
:100D800000EE100AB8EEC00A20EE280AF0EE40BAD3
:100D9000784200EE100AB8EEC00A20EE080AB0EE63
:100DA00040DA784200EE100AB8EEC00A20EE280AB7
:100DB000F0EE40DA79EE2A0A00EE105AB8EE400A58
:100DC00030EE800ABCEEC00A10EE102AD1B279EEE5
:100DD000CA0A00EE104AB8EE400A30EE800ABCEEB5
:100DE000C00A10EE102AD0B25246FFF7D3FD79EEBA
:100DF0002D0A00EE105AB8EE400A30EE800ABCEE22
:100E0000C00A10EE102AD1B279EECD0A00EE104AD7
:100E1000B8EE400A30EE800ABCEEC00A10EE102A8E
:100E2000D0B25246FFF7B6FD7BEE2D0A00EE105A07
:100E3000B8EE400A30EE800ABCEEC00A10EE102A6E
:100E4000D1B27BEECD0A00EE104AB8EE400A30EE89
:100E5000800ABCEEC00A10EE102AD0B25246FFF74C
:100E600099FD7BEE2A0A00EE105AB8EE400A30EEE9
:100E7000800ABCEEC00A10EE102AD1B27BEECA0A7C
:100E800000EE104AB8EE400A30EE800ABCEEC00A0E
:100E900010EE102AD0B25246FFF77CFDBDEC0E8B4F
:100EA000BDE8F087E3A862C346DF913F2DE9F04734
:100EB0008046894614461D46DDE9097A089EEA19EE
:100EC000D1B2A219D0B25246FFF764FDC5EB490278
:100ED000D21BD1B2A219D0B25246FFF75BFDC5EBCF
:100EE0004902D21BD1B2C4EB4802921BD0B2524687
:100EF000FFF750FDEA19D1B2C4EB4802921BD0B201
:100F00005246FFF747FDBDE8F08700002DE9F047A6
:100F10002DED108B86B004460D4616461F46DDE9C2
:100F20001E9A484603F012FA9FEDEF0B53EC102B7C
:100F3000CDE900019DED000B51EC100B03F056FACA
:100F4000CDE902019DED020B51EC100B02F04CFFBC
:100F50008046404603F03EFCCDE900019DED000BCC
:100F600002F086FA8DED020B9DED020B51EC100B99
:100F700002F03AFF08EE100A404603F02BFCCDE9E0
:100F800000019DED000B02F00FFA8DED020B9DEDBF
:100F9000020B51EC100B02F027FF08EE900A301BF9
:100FA00000EE100AB8EEC00A20EE080AB0EE409A31
:100FB000301B00EE100AB8EEC00A20EE280AF0EE50
:100FC000409A781B00EE100AB8EEC00A20EE080A1C
:100FD000B0EE40AA781B00EE100AB8EEC00A20EE70
:100FE000280AF0EE40AA3819401B001B00EE100A38
:100FF000B8EEC00A20EE080AB0EE40BA3819401B1D
:10100000001B00EE100AB8EEC00A20EE280AF0EE2F
:1010100040BA301B2844401B00EE100AB8EEC00A4C
:1010200020EE080AB0EE40CA301B2844401B00EEF8
:10103000100AB8EEC00A20EE280AF0EE40CA70424C
:1010400020442844401B00EE100AB8EEC00A20EEEF
:10105000080AB0EE40DA704220442844401B00EEFB
:10106000100AB8EEC00A20EE280AF0EE40DA784204
:1010700020442844001B00EE100AB8EEC00A20EEFF
:10108000080AB0EE40EA784220442844001B00EEF3
:10109000100AB8EEC00A20EE280AF0EE40EA7042CC
:1010A00020442044001B00EE100AB8EEC00A20EED7
:1010B000080AB0EE40FA704220442044001B00EEC3
:1010C000100AB8EEC00A20EE280AF0EE40FA784284
:1010D00028442844401B00EE100AB8EEC00A20EE57
:1010E000080A8DED050A784228442844401B00EE8A
:1010F000100AB8EEC00A20EE280A8DED040A79EE37
:101100002A0A00EE105AB8EE400A30EE800ABCEE11
:10111000C00A10EE102AD1B279EECA0A00EE104AC7
:10112000B8EE400A30EE800ABCEEC00A10EE102A7B
:10113000D0B25246FFF72EFC7BEE2C0A00EE105A7E
:10114000B8EE400A30EE800ABCEEC00A10EE102A5B
:10115000D1B27BEECC0A00EE104AB8EE400A30EE77
:10116000800ABCEEC00A10EE102AD0B25246FFF739
:1011700011FC7BEE2D0A00EE105AB8EE400A30EE5C
:10118000800ABCEEC00A10EE102AD1B27BEECD0A66
:1011900000EE104AB8EE400A30EE800ABCEEC00AFB
:1011A00010EE102AD0B25246FFF7F4FB9DED040A70
:1011B00079EE000A00EE105AB8EE400A30EE800ACE
:1011C000BCEEC00A10EE102AD1B29DED050A79EEF0
:1011D000C00A00EE104AB8EE400A30EE800ABCEEBB
:1011E000C00A10EE102AD0B25246FFF7D3FB9DED95
:1011F000040A7FEE000A00EE105AB8EE400A30EE04
:10120000800ABCEEC00A10EE102AD1B29DED050A8C
:101210007FEEC00A00EE104AB8EE400A30EE800AB7
:10122000BCEEC00A10EE102AD0B25246FFF7B2FB55
:101230007EEE2D0A00EE105AB8EE400A30EE800A1B
:10124000BCEEC00A10EE102AD1B27EEECD0A00EE3E
:10125000104AB8EE400A30EE800ABCEEC00A10EE2A
:10126000102AD0B25246FFF795FB7EEE2C0A00EE14
:10127000105AB8EE400A30EE800ABCEEC00A10EEFA
:10128000102AD1B27EEECC0A00EE104AB8EE400A27
:1012900030EE800ABCEEC00A10EE102AD0B25246E0
:1012A000FFF778FB7FEE2A0A00EE105AB8EE400AEC
:1012B00030EE800ABCEEC00A10EE102AD1B27FEEEA
:1012C000CA0A00EE104AB8EE400A30EE800ABCEEC0
:1012D000C00A10EE102AD0B25246FFF75BFB06B0F0
:1012E000BDEC108BBDE8F087E3A862C346DF913FF9
:1012F0002DE9F04704460D4616461F46DDE9099ADA
:10130000DDF8208007EB0902D1B206EB0802D0B26B
:101310005246FFF73FFB321B2A444A44D1B23A19E6
:10132000521B4244D0B25246FFF734FB7242224471
:101330002A44A2EB0902D1B23A19521B4244D0B25C
:101340005246FFF727FB7A422A442A44A2EB0902BD
:10135000D1B206EB0802D0B25246FFF71BFB7A422D
:101360002A442A44A2EB0902D1B272422244224406
:10137000A2EB0802D0B25246FFF70CFB72422244A5
:101380002A44A2EB0902D1B27A4222442A44A2EBB7
:101390000802D0B25246FFF7FDFA321B2A444A44F3
:1013A000D1B27A4222442A44A2EB0802D0B2524679
:1013B000FFF7F0FA07EB0902D1B27242224422444D
:1013C000A2EB0802D0B25246FFF7E4FABDE8F0877C
:1013D0002DE9F04F87B08046894615461E46DDE967
:1013E0001047284605EBD071A8EB6101C9B28DF812
:1013F0001810304606EBD071A9EB6101C9B28DF827
:101400001910284605EBD07108EB6101C9B28DF8BF
:101410001410304606EBD07109EB6101C9B28DF8AA
:101420001510294605EBD1725210A24204DB06EBDF
:10143000D0725210A2420BDAB54204DA294601EB0F
:10144000D172521003E0304600EBD0725210D4B289
:1014500000979DF815309DF814C0ACEB040C0CF00F
:10146000FF0219469DF818C0A4440CF0FF00FFF7D6
:1014700053F900979DF819309DF814C0ACEB040C9B
:101480000CF0FF0219469DF818C0A4440CF0FF00B0
:10149000FFF742F900979DF819C0A4440CF0FF0330
:1014A0009DF818209DF815C0ACEB040C0CF0FF0162
:1014B0001046FFF731F900979DF819C0A4440CF0CD
:1014C000FF039DF814209DF815C0ACEB040C0CF044
:1014D000FF011046FFF720F9002004908DF811401D
:1014E000B34606EBDB70C4EB6000C0B205EBD57110
:1014F000C4EB6101C9B2CDE90275CDE900109DF8D8
:1015000011004844C3B29DF810004044C2B249469D
:101510004046FFF7EDFEC4F101004FFA80FA0120CA
:101520008DF810003BE0BAF1000F07DA9DF81000CB
:101530004000401C50444FFA80FA0FE09DF8110023
:10154000401EC0B28DF811009DF810009DF81110DA
:10155000401A4000401C50444FFA80FAB34606EB54
:10156000DB70C4EB6000C0B205EBD571C4EB610168
:10157000C9B2CDE90275CDE900109DF811004844CB
:10158000C3B29DF810004044C2B249464046FFF73E
:10159000AFFE9DF81000401CC0B28DF810009DF801
:1015A00010009DF811108842BDDD07B0BDE8F08F36
:1015B0002DE9F04F87B08046894615461E46DDE985
:1015C0001047284605EBD071A8EB6101C9B28DF830
:1015D0001810304606EBD071A9EB6101C9B28DF845
:1015E0001910284605EBD07108EB6101C9B28DF8DE
:1015F0001410304606EBD07109EB6101C9B28DF8C9
:101600001510294605EBD1725210A24204DB06EBFD
:10161000D0725210A2420BDAB54204DA294601EB2D
:10162000D172521003E0304600EBD0725210D4B2A7
:1016300000979DF815309DF814209DF819109DF81D
:101640001800FFF7DBF90FB9012000E0002000903F
:101650009DF819309DF818C0A4440CF0FF021946FB
:101660009DF81800FFF758F80FB9012000E000209E
:1016700000909DF819309DF814C0ACEB040C0CF0F0
:10168000FF0219469DF81400FFF746F80FB9012034
:1016900000E0002000909DF815309DF818C0A4448B
:1016A0000CF0FF0219469DF81800FFF735F80FB946
:1016B000012000E0002000909DF815309DF814C036
:1016C000ACEB040C0CF0FF0219469DF81400FFF778
:1016D00023F80FB9012000E0002000909DF819C008
:1016E000A4440CF0FF039DF818209DF81910104633
:1016F000FFF712F80FB9012000E0002000909DF8DC
:1017000015C0ACEB040C0CF0FF039DF818209DF8FD
:1017100015101046FFF700F80FB9012000E0002077
:1017200000909DF819C0A4440CF0FF039DF814200C
:101730009DF819101046FEF7EFFF0FB9012000E0E9
:10174000002000909DF815C0ACEB040C0CF0FF03DA
:101750009DF814209DF815101046FEF7DDFF0020BF
:1017600004908DF81140B34606EBDB70C4EB6000CB
:10177000C0B205EBD571C4EB6101C9B2CDE9027508
:10178000CDE900109DF811004844C3B29DF8100047
:101790004044C2B249464046FFF7AAFDC4F10100E9
:1017A0004FFA80FA01208DF810003BE0BAF1000FEB
:1017B00007DA9DF810004000401C50444FFA80FAB0
:1017C0000FE09DF81100401EC0B28DF811009DF889
:1017D00010009DF81110401A4000401C50444FFA70
:1017E00080FAB34606EBDB70C4EB6000C0B205EBD9
:1017F000D571C4EB6101C9B2CDE90275CDE9001024
:101800009DF811004844C3B29DF810004044C2B294
:1018100049464046FFF76CFD9DF81000401CC0B2E1
:101820008DF810009DF810009DF811108842BDDD64
:1018300007B0BDE8F08F2DE9F04F87B080468946AC
:1018400016461F46DDE91045304606EBD071A8EB81
:101850006101C9B28DF81810384607EBD071A9EBB9
:101860006101C9B28DF81910304606EBD07108EB52
:101870006101C9B28DF81410384607EBD07109EB3D
:101880006101C9B28DF8151000959DF815309DF8CD
:1018900014209DF819109DF81800FFF7AFF80DB946
:1018A000012000E0002000909DF819309DF818C03C
:1018B000A4440CF0FF0219469DF81800FEF72CFF17
:1018C0000DB9012000E0002000909DF819309DF82E
:1018D00014C0ACEB040C0CF0FF0219469DF8140088
:1018E000FEF71AFF0DB9012000E0002000909DF8DE
:1018F00015309DF818C0A4440CF0FF0219469DF85D
:101900001800FEF709FF0DB9012000E0002000904B
:101910009DF815309DF814C0ACEB040C0CF0FF02E0
:1019200019469DF81400FEF7F7FE0DB9012000E0FE
:10193000002000909DF819C0A4440CF0FF039DF80E
:1019400018209DF819101046FEF7E6FE0DB901208B
:1019500000E0002000909DF815C0ACEB040C0CF0EA
:10196000FF039DF818209DF815101046FEF7D4FED1
:101970000DB9012000E0002000909DF819C0A4449A
:101980000CF0FF039DF814209DF819101046FEF787
:10199000C3FE0DB9012000E0002000909DF815C0A5
:1019A000ACEB040C0CF0FF039DF814209DF815100F
:1019B0001046FEF7B1FE002004908DF81140BB46A2
:1019C00007EBDB70C4EB6000C0B206EBD671C4EB72
:1019D0006101C9B201AA61C200919DF81100484499
:1019E000C3B29DF810004044C2B249464046FFF7DA
:1019F0007FFCC4F101004FFA80FA01208DF810003D
:101A00003AE0BAF1000F07DA9DF810004000401CE0
:101A100050444FFA80FA0FE09DF81100401EC0B20A
:101A20008DF811009DF810009DF81110401A40002B
:101A3000401C50444FFA80FABB4607EBDB70C4EB06
:101A40006000C0B206EBD671C4EB6101C9B201AA55
:101A500061C200919DF811004844C3B29DF8100086
:101A60004044C2B249464046FFF742FC9DF8100090
:101A7000401CC0B28DF810009DF810009DF81110A8
:101A80008842BEDD07B0BDE8F08F00002DE9F043CD
:101A90002DED108B87B006460F4615461C46DDE936
:101AA0001E890020069060B28DF81900604202F095
:101AB00036FC41EC1E0B9FEDAE0B53EC102B02F0ED
:101AC000C5F941EC1C0B05FB05F002F028FC41ECCC
:101AD0001D0B53EC1C2B02F089FC41EC1A0B04FB90
:101AE00004F002F01CFC41EC1B0B53EC1A2B02F02F
:101AF000ADF941EC190B02F077F908EE900ACDE947
:101B000000899DF91900C3199DF9180082193946F9
:101B10003046FFF7FBF94AE0F5EEC08AF1EE10FA25
:101B200015D804FB04F09DF918104900C91C48435E
:101B300000EE100AB8EEC00A30EE280AF0EE408A35
:101B40009DF81800401C40B28DF8180023E004FBFB
:101B500004F09DF918104900C91C484305FB05F124
:101B60009DF919205200C2F1020201FB020000EEB1
:101B7000100AB8EEC00A30EE280AF0EE408A9DF84E
:101B80001800401C40B28DF818009DF81900401E46
:101B900040B28DF81900CDE900899DF91900C319EB
:101BA0009DF91800821939463046FFF7AFF99DF9C3
:101BB000190002F0B4FB41EC1D0B9FED6F0B53ECD1
:101BC000102B02F01DFD41EC1B0B05FB05F002F094
:101BD000A6FB41EC1C0B53EC1B2B02F007FC41EC69
:101BE000190B04FB04F19DF91820521C01FB02F0B3
:101BF00002F095FB41EC1A0B53EC192B02F0BAFBE7
:101C00008AD305FB05F1614301FB04F002F087FB79
:101C100041EC190B05FB05F19DF91920521E5143AA
:101C20009DF91920521E01FB02F002F078FBCDE96C
:101C300000019DF9180002F072FB41EC1D0B9FEDB5
:101C40004E0B53EC102B02F001F941EC1B0B9DF9EC
:101C5000180002F064FB41EC1F0B9FED470B53ECA7
:101C6000102B02F0F3F841EC1D0B04FB04F002F022
:101C700056FB41EC1E0B53EC1D2B02F0B7FB41EC65
:101C80001C0B53EC1B2B02F0B1FB41EC1A0B9DED2E
:101C9000000B53EC102B02F0D9F853EC192BCDE9C3
:101CA00002019DED020B51EC100B02F0A9FCCDE9F5
:101CB00004019DED040B51EC100B02F095F808EEB9
:101CC000100A4BE0B5EEC08AF1EE10FA24D804FBFE
:101CD00004F09DF918104900891C414305FB05F0EB
:101CE0009DF919205200C2F1030200FB021000EE20
:101CF000100AB8EEC00A30EE080AB0EE408A9DF82D
:101D00001800401C40B28DF818009DF81900401EC4
:101D100040B28DF8190015E005FB05F09DF919108A
:101D20004900C1F10301484300EE100AB8EEC00AB1
:101D300030EE080AB0EE408A9DF81900401E40B20D
:101D40008DF81900CDE900899DF91900C3199DF995
:101D50001800821939463046FFF7D8F89DF9190066
:101D60000028AFDC07B0BDEC108BBDE8F0830000AD
:101D7000000000000000D03F000000000000E03F35
:101D800010B501F0CFF810BD10B5FFF7F9FF002135
:101D9000AE2001F0B2F80021D52001F0AEF800210C
:101DA000502001F0AAF80021A82001F0A6F8002197
:101DB0003F2001F0A2F80021D32001F09EF800217D
:101DC000084601F09AF80021402001F096F8002121
:101DD0008D2001F092F80021142001F08EF80021EE
:101DE000202001F08AF80021012001F086F800216E
:101DF000A12001F082F80021C02001F07EF800212E
:101E0000DA2001F07AF80021122001F076F80021A2
:101E1000812001F072F800217F2001F06EF800218E
:101E2000D92001F06AF80021F12001F066F80021C4
:101E3000DB2001F062F80021302001F05EF8002183
:101E4000A42001F05AF80021A62001F056F8002144
:101E5000AF2001F052F8FEF7CDFA10BD70B50021A9
:101E6000084600F017F800240EE0002508E00849B5
:101E700001EBC401485D012101F03FF8681CC5B2C7
:101E8000082DF4DB601CC4B2802CEEDB70BD0000BA
:101E9000D400002070B504460D4605F1B001C8B26B
:101EA000002101F02AF804F00F00002101F025F8CC
:101EB000102101EB1410002101F01FF870BD2DE975
:101EC000FC478046894616461F460A9DBE4201DAF7
:101ED000304600E038468246002417E03B46324652
:101EE00049464046CDE90045FFF7A5FCFFF7B6FFA0
:101EF0000DB9012000E000203B4632464946CDE9BD
:101F000000404046FFF797FC601CC4B25445E5DB37
:101F1000601EC4B217E03B46324649464046CDE912
:101F20000045FFF788FCFFF799FF0DB9012000E09D
:101F300000203B4632464946CDE900404046FFF787
:101F40007AFC601EC4B2002CE5DC0DB9012000E073
:101F500000203B4632464946CDE900404046FFF767
:101F60006AFCBDE8FC8700000FB59BB000201A900A
:101F70001990FCE300208DF86000199840B28DF8AC
:101F800061001E98404202F0CAF99FEDFE0B53EC2F
:101F9000102BCDE90A019DED0A0B51EC100B01F05D
:101FA00055FFCDE90E011D9840430B9002F0B7F9A3
:101FB000CDE90C019DED0E0B53EC102B9DED0C0BA0
:101FC00051EC100B02F012FACDE912011E984043B9
:101FD0000F9002F0A4F9CDE910019DED120B53EC26
:101FE000102B9DED100B51EC100B01F02FFFCDE9E4
:101FF00014019DED140B51EC100B01F0F5FE179040
:10200000199A1E99891AC9B21A9B1D9AD21AD2B26C
:102010002098CDE9002102909DF861101C98084499
:10202000C0B215909DF860101B980844C0B214907F
:102030000246159BDDE91B01FEF738FF62E09DEDCE
:10204000170AB5EEC00AF1EE10FA17D81E984043F1
:102050009DF960104900C91C484300EE100AF8EED3
:10206000C00A9DED170A30EE800A8DED170A9DF823
:102070006000401C40B28DF8600025E01E9840438F
:102080009DF960104900C91C41431D9840439DF9CA
:1020900061205200C2F1020200FB021000EE100AA1
:1020A000F8EEC00A9DED170A30EE800A8DED170A92
:1020B0009DF86000401C40B28DF860009DF8610002
:1020C000401E40B28DF86100199A1E99891AC9B252
:1020D0001A9B1D9AD21AD2B22098CDE90021029003
:1020E0009DF861101C980844C0B215909DF86010CE
:1020F0001B980844C0B214900246159BDDE91B01F1
:10210000FEF7D4FE9DF961000B9002F008F99FEDF7
:102110009F0B53EC102BCDE90C019DED0C0B51ECFA
:10212000100B02F06DFACDE910011D9840430D909F
:1021300002F0F5F8CDE90E019DED100B53EC102BDC
:102140009DED0E0B51EC100B02F050F9CDE914018E
:102150001E9840439DF96010491C4843119002F0BD
:10216000DEF8CDE912019DED140B53EC102B9DED23
:10217000120B51EC100B02F0FDF8FFF460AF1D984C
:1021800040431E99484348430F9002F0C8F8CDE9F8
:1021900012011D9840439DF96110491E48439DF965
:1021A0006110491E48430B9002F0B9F8CDE90E01C9
:1021B0009DF96000059002F0B2F89FED740B53ECAE
:1021C000102BCDE906019DED060B51EC100B01F033
:1021D0003DFECDE90A019DF96000019002F09FF8F3
:1021E0009FED6A0B53EC102BCDE902019DED020B24
:1021F00051EC100B01F02AFECDE906011E98404378
:10220000039002F08CF8CDE904019DED060B53EC30
:10221000102B9DED040B51EC100B02F0E7F8CDE90B
:1022200008019DED0A0B53EC102B9DED080B51ECB2
:10223000100B02F0DBF8CDE90C019DED0E0B53EC19
:10224000102B9DED0C0B51EC100B01F0FFFDCDE9B7
:1022500010019DED120B53EC102B9DED100B51EC6A
:10226000100B02F0CDF9CDE914019DED140B51ECEA
:10227000100B01F0B9FD169063E09DED160AB5EE66
:10228000C00AF1EE10FA26D81E9840439DF960105E
:102290004900891C41431D9840439DF9612052002B
:1022A000C2F1030200FB021000EE100AF8EEC00AB1
:1022B0009DED160A30EE800A8DED160A9DF860003D
:1022C000401C40B28DF860009DF86100401E40B295
:1022D0008DF8610017E01D9840439DF96110490099
:1022E000C1F10301484300EE100AF8EEC00A9DED6B
:1022F000160A30EE800A8DED160A9DF86100401E28
:1023000040B28DF86100199A1E99891AC9B21A9BB8
:102310001D9AD21AD2B22098CDE9002102909DF8E0
:1023200061101C980844C0B215909DF860101B986D
:102330000844C0B214900246159BDDE91B01FEF76C
:10234000B5FD9DF96100002897DC209800901E994A
:102350001C9801441998081AC0B216901D991B9830
:1023600001441A98081AC0B215901E991C9801448D
:102370001998081AC0B214901D991B98411A1A98FE
:10238000084407E0000000000000D03F000000000B
:102390000000E03FC0B2139014A90EC9FEF7BCF9CB
:1023A000209800901E991C98411A19980844C0B2B0
:1023B00016901D991B9801441A98081AC0B21590DE
:1023C0001E991C98411A19980844C0B214901D997E
:1023D0001B98411A1A980844C0B2139014A90EC948
:1023E000FEF79AF9209800901E991C98411A1998A6
:1023F0000844C0B216901D991B98411A1A980844B7
:10240000C0B215901E991C9801441998081AC0B2C0
:1024100014901D991B98411A1A980844C0B2139041
:1024200014A90EC9FEF778F9209800901E991C98FF
:10243000411A19980844C0B216901D991B9801447E
:102440001A98081AC0B215901E991C980144199840
:10245000081AC0B214901D991B9801441A98081AC2
:10246000C0B2139014A90EC9FEF756F9FFF7F6FC97
:10247000209808B9012000E0002000901E991C98C7
:1024800001441998081AC0B216901D991B9801446E
:102490001A98081AC0B215901E991C9801441998F0
:1024A000081AC0B214901D991B98411A1A98084432
:1024B000C0B2139014A90EC9FEF72EF9209808B9DE
:1024C000012000E0002000901E991C98411A1998E4
:1024D0000844C0B216901D991B9801441A98081A16
:1024E000C0B215901E991C98411A19980844C0B2A0
:1024F00014901D991B98411A1A980844C0B2139061
:1025000014A90EC9FEF708F9209808B9012000E0C7
:10251000002000901E991C98411A19980844C0B2D6
:1025200016901D991B98411A1A980844C0B215902C
:102530001E991C9801441998081AC0B214901D994C
:102540001B98411A1A980844C0B2139014A90EC9D6
:10255000FEF7E2F8209808B9012000E00020009082
:102560001E991C98411A19980844C0B216901D99DA
:102570001B9801441A98081AC0B215901E991C980D
:1025800001441998081AC0B214901D991B9801446F
:102590001A98081AC0B2139014A90EC9FEF7BCF815
:1025A00000208DF86000199840B28DF861001E98E7
:1025B000404201F0B4FE1FED8D0B53EC102BCDE922
:1025C0000A019DED0A0B51EC100B01F03FFCCDE927
:1025D0000E011D9840430B9001F0A1FECDE90C01C6
:1025E0009DED0E0B53EC102B9DED0C0B51EC100BD5
:1025F00001F0FCFECDE912011E9840430F9001F05E
:102600008EFECDE910019DED120B53EC102B9DEDCC
:10261000100B51EC100B01F019FCCDE914019DEDEC
:10262000140B51EC100B01F0DFFB1790209808B948
:10263000012300E0002319991E98401AC0B21A9A8B
:102640001D99891AC9B2CDE9010300919DF8611065
:102650001C980844C0B215909DF860101B9808445F
:10266000C0B214900246159BDDE91B01FEF71EFC6B
:1026700066E09DED170AB5EEC00AF1EE10FA17D824
:102680001E9840439DF960104900C91C484300EE64
:10269000100AF8EEC00A9DED170A30EE800A8DEDA3
:1026A000170A9DF86000401C40B28DF8600025E0DC
:1026B0001E9840439DF960104900C91C41431D9874
:1026C00040439DF961205200C2F1020200FB02105A
:1026D00000EE100AF8EEC00A9DED170A30EE800AEF
:1026E0008DED170A9DF86000401C40B28DF8600027
:1026F0009DF86100401E40B28DF86100209808B935
:10270000012300E0002319991E98401AC0B21A9ABA
:102710001D99891AC9B2CDE9010300919DF8611094
:102720001C980844C0B215909DF860101B9808448E
:10273000C0B214900246159BDDE91B01FEF7B6FB03
:102740009DF961000B9001F0EAFD1FEDF00B53ECD9
:10275000102BCDE90C019DED0C0B51EC100B01F091
:102760004FFFCDE910011D9840430D9000E020E19E
:1027700001F0D5FDCDE90E019DED100B53EC102BB2
:102780009DED0E0B51EC100B01F030FECDE9140164
:102790001E9840439DF96010491C4843119001F078
:1027A000BEFDCDE912019DED140B53EC102B9DEDF8
:1027B000120B51EC100B01F0DDFDFFF45AAF1D9828
:1027C00040431E99484348430F9001F0A8FDCDE9CE
:1027D00012011D9840439DF96110491E48439DF91F
:1027E0006110491E48430B9001F099FDCDE90E019F
:1027F0009DF96000059001F092FD9FED730B53EC85
:10280000102BCDE906019DED060B51EC100B01F0EC
:102810001DFBCDE90A019DF96000019001F07FFDEB
:102820009FED690B53EC102BCDE902019DED020BDE
:1028300051EC100B01F00AFBCDE906011E98404354
:10284000039001F06CFDCDE904019DED060B53EC06
:10285000102B9DED040B51EC100B01F0C7FDCDE9E1
:1028600008019DED0A0B53EC102B9DED080B51EC6C
:10287000100B01F0BBFDCDE90C019DED0E0B53ECEF
:10288000102B9DED0C0B51EC100B01F0DFFACDE994
:1028900010019DED120B53EC102B9DED100B51EC24
:1028A000100B01F0ADFECDE914019DED140B51ECC0
:1028B000100B01F099FA169067E09DED160AB5EE3F
:1028C000C00AF1EE10FA26D81E9840439DF9601018
:1028D0004900891C41431D9840439DF961205200E5
:1028E000C2F1030200FB021000EE100AF8EEC00A6B
:1028F0009DED160A30EE800A8DED160A9DF86000F7
:10290000401C40B28DF860009DF86100401E40B24E
:102910008DF8610017E01D9840439DF96110490052
:10292000C1F10301484300EE100AF8EEC00A9DED24
:10293000160A30EE800A8DED160A9DF86100401EE1
:1029400040B28DF86100209808B9012300E000230F
:1029500019991E98401AC0B21A9A1D99891AC9B2BB
:10296000CDE9010300919DF861101C980844C0B2A4
:1029700015909DF860101B980844C0B21490024650
:10298000159BDDE91B01FEF791FA9DF96100002816
:1029900093DC1D991A98884203DA1A98401CC0B239
:1029A0001A901D991998884203DA1998401CC0B2F0
:1029B00019901D991A988842FFF6DCAA1E99199859
:1029C0008842F9DB1FB000BD000000000000E03FBE
:1029D0002DE9FF4F83B090469946109DC84501DC14
:1029E000012000E000200646C84501DA404600E02C
:1029F00048468246C84501DD404600E048468346D9
:102A0000002417E04B464246CDE90045DDE90301CD
:102A1000FEF7DEFCFFF722FA0DB9012000E00020EE
:102A20004B464246CDE90040DDE90301FEF7D0FC0C
:102A3000601CC4B20AEBDA71B4EB610FE2DBABF1FC
:102A40000100C7B227E0CDE900450EB1384600E0ED
:102A5000484603460EB1404600E038460246DDE9EE
:102A60000301FEF7B5FCFFF7F9F90DB9012000E00D
:102A70000020CDE900400EB1384600E0484603464C
:102A80000EB1404600E038460246DDE90301FEF79C
:102A90009FFC781EC7B20AEBDA71B7EB610FD2DC8C
:102AA00027E0CDE900450EB1384600E04846034630
:102AB0000EB1404600E038460246DDE90301FEF76C
:102AC00087FCFFF7CBF90DB9012000E00020CDE92C
:102AD00000400EB1384600E0484603460EB140467D
:102AE00000E038460246DDE90301FEF771FC781C80
:102AF000C7B25F45D5DB17E04B464246CDE90045FE
:102B0000DDE90301FEF764FCFFF7A8F90DB9012028
:102B100000E000204B464246CDE90040DDE90301DC
:102B2000FEF756FC601EC4B2002CE5DC07B0BDE821
:102B3000F08F2DE9FC4781468A4616461F460A9DBE
:102B4000BE4201DA304600E038468046002417E0F5
:102B50003B46324651464846CDE90045FEF738FC33
:102B6000FFF77CF90DB9012000E000203B4632461A
:102B70005146CDE900404846FEF72AFC601CC4B22D
:102B800008EBD871B4EB610FE2DB601EC4B217E052
:102B90003B46324651464846CDE90045FEF718FC13
:102BA000FFF75CF90DB9012000E000203B463246FA
:102BB0005146CDE900404846FEF70AFC601EC4B20B
:102BC000002CE5DCBDE8FC872DE9FC4706460F46F6
:102BD00090469946DDE90AA5002417E04B46424697
:102BE00039463046CDE90045FDF71CFCFFF736F9C4
:102BF0000DB9012000E000204B4642463946CDE9A0
:102C000000403046FDF70EFC601C84B25445E5DB05
:102C1000BDE8FC872DE9FF4F83B090461E46DDE9F5
:102C200010A94FF0010BA8EB0600C7B20024002545
:102C30002DE014B94FF0010B03E0B44201D14FF085
:102C4000000BBBF1000F04D0781CC7B2601CC4B2EB
:102C500003E0781EC7B2601EC4B223463A46CDE9EF
:102C60000059DDE90301FEF711FFFFF7F7F8B9F1AD
:102C7000000F01D1012000E0002023463A46CDE9B3
:102C80000050DDE90301FEF701FF681C85B25545E0
:102C9000CFDB07B0BDE8F08F2DE9FC4706460F46B5
:102CA00090469946DDE90AA5002417E04B464246C6
:102CB00039463046CDE90045FEF7E8FEFFF7CEF88D
:102CC0000DB9012000E000204B4642463946CDE9CF
:102CD00000403046FEF7DAFE601C84B25445E5DB66
:102CE000BDE8FC872DE9F84F81468A4616461F4607
:102CF000DDF82880BE4201DD012000E0002083468F
:102D00007F243F251EE0B44201DD601EC4B2BD42F7
:102D100001DD681EC5B22B46224651464846CDF815
:102D20000080FDF791FEFFF799F8B8F1000F01D18F
:102D3000012000E000202B462246514600904846E4
:102D4000FDF782FEB44201DDBD42DCDC1EE0BBF1DA
:102D5000000F02D0601EC4B201E0681EC5B22B464F
:102D6000224651464846CDF80080FDF76DFEFFF73C
:102D700075F8B8F1000F01D1012000E000202B46CA
:102D80002246514600904846FDF75EFEB442DED131
:102D9000BD42DCD1BDE8F88F2DE9FF4F83B09046EE
:102DA0009946109DC84501DC012000E00020064640
:102DB000C84501DA404600E048468246C84501DD84
:102DC000404600E048468346002417E04B46424612
:102DD000CDE90045DDE90301FEF7EAFBFFF73EF828
:102DE0000DB9012000E000204B464246CDE90040ED
:102DF000DDE90301FEF7DCFB601CC4B20AEBDA710B
:102E0000B4EB610FE2DBABF10100C7B227E0CDE923
:102E100000450EB1384600E0484603460EB1404634
:102E200000E038460246DDE90301FEF7C1FBFFF78B
:102E300015F80DB9012000E00020CDE900400EB1E9
:102E4000384600E0484603460EB1404600E03846AA
:102E50000246DDE90301FEF7ABFB781EC7B20AEBC1
:102E6000DA71B7EB610FD2DC27E0CDE900450EB196
:102E7000384600E0484603460EB1404600E038467A
:102E80000246DDE90301FEF793FBFEF7E7FF0DB90C
:102E9000012000E00020CDE900400EB1384600E0FE
:102EA000484603460EB1404600E038460246DDE99A
:102EB0000301FEF77DFB781CC7B25F45D5DB17E049
:102EC0004B464246CDE90045DDE90301FEF770FBC4
:102ED000FEF7C4FF0DB9012000E000204B4642463A
:102EE000CDE90040DDE90301FEF762FB601EC4B2DC
:102EF000002CE5DC07B0BDE8F08F70B504460D4648
:102F00002946204600F0BCF870BD704721B1028808
:102F100042F04002028004E002884FF6BF731A407C
:102F20000280704700B585B03A48006840F0020062
:102F3000384908600846006840F0080008603548D5
:102F40001030006840F48040324910310860324847
:102F5000006840F0084030490860081D0068091DFD
:102F60000860081D006840F04C40091D0860081DFD
:102F70000068091D08604FF420412748FDF732FA28
:102F8000264800682649084324490860081D00684F
:102F9000091D0860081D0068224908431F490831BF
:102FA0000860081D0068091D08604FF428511B487F
:102FB000FDF718FA05220D211748FDF7EEF9052255
:102FC0000F211548FDF7E9F94FF44040ADF8000036
:102FD0004FF48270ADF802000020ADF80400ADF8A7
:102FE0000600ADF808004FF40070ADF80A000020AC
:102FF000ADF80C00ADF80E000720ADF810006946E2
:10300000094800F01EF801210748FFF77FFF05B0CF
:1030100000BD00003038024000040240000C0240B5
:10302000000044040000CC0C0038004002460020A0
:1030300013890B400BB1012000E000207047818113
:10304000704710B50022028802F441520B884C8868
:1030500023438C882343CC8823430C8923434C8906
:1030600023438C892343CC8923431A430280838BD7
:103070004FF2FF74234083830B8A038210BD00004C
:1030800070B505460E462EB14FF400611B48FDF7A2
:10309000A9F904E04FF400611848FDF7A1F94FF4D5
:1030A00000511648FDF79CF9002404E0601CC4B2EE
:1030B000C82C00DD70BD02211148FFF7B7FF0028C2
:1030C000F4D029460E48FFF7BAFF002404E0601C44
:1030D000C4B2C82C00DDEDE701210948FFF7A6FFC7
:1030E0000028F4D04FF400510448FDF77BF94FF469
:1030F00000610248FDF776F900BFDBE7000C0240F3
:1031000000380040704700000CB50020019000908E
:103110003448006840F480303249086000BF3148CC
:10312000006800F4003000900198401C0190009865
:1031300018B90198B0F5A04FF1D12A48006800F401
:10314000003010B10120009001E0002000900098B4
:10315000012846D123484030006840F08050214982
:10316000403108602048006840F440401E49086033
:103170001C48083000681B49083108600846006890
:1031800040F4004008600846006840F4A050086021
:103190001648091F0860081F006840F08070091F6A
:1031A000086000BF0F48006800F000700028F9D0E8
:1031B00040F205700E4908600A480830006820F0A7
:1031C00003000849083108600846006840F0020022
:1031D000086000BF03480830006800F00C000828B1
:1031E000F8D10CBD00380240007000400854400780
:1031F000003C0240042808D14FF0E021096941F069
:1032000004014FF0E022116107E04FF0E02109696D
:1032100021F004014FF0E022116170477047000077
:1032200010B51548006840F4700013490860134851
:10323000006840F001001149086000200F49083182
:1032400008600E4800680E4908400C4908600D48A7
:10325000091D0860081F006820F48020091F08600D
:10326000002006490C310860FFF74EFF4FF0006068
:1032700001498039086010BD88ED00E00038024047
:10328000FFFFF6FE1030002410B540F225511D4816
:1032900000F03EF810B31B4800F064F8C4B21A48BE
:1032A000008800F40040C8B91748008800F4804046
:1032B00060B10A2C03D000201349088020E0124896
:1032C000008840F400401049088019E00D2C06D118
:1032D0000D48008840F480400B49088010E00A48FF
:1032E0000088C0F30D0009490C5407480088401CB1
:1032F0000549088008460088C72801DD00200880AD
:1033000010BD000000100140080000200C0000204B
:1033100070B50246002400230025002040F66A16FE
:10332000B14200D100BFC1F3421501F01F030126D5
:1033300006FA03F3012D02D19689334006E0022DEF
:1033400002D1168A334001E0968A33400C120126DE
:1033500006FA04F41688344013B10CB1012000E0E1
:10336000002070BD01468888C0F30800704700BF88
:10337000FEE703B401984100009850EAC12018BF4D
:1033800004204A0D18BF40F0010040F2FF72B2EB7A
:10339000515F08BF40F00200012808BF052002B0BD
:1033A000704700000000000010B52F499FED2C1B56
:1033B0002DED020B84B0059820F000408842D8BF64
:1033C0009DED040B2DDD2949884209D1049840B9AF
:1033D0004FF00100FCF752FF00F0A2FC06B010BD58
:1033E00005DB9DED040B00F08FFC06B010BD6846B8
:1033F0009DED040B00F0A0F810F0030004BF9DED5C
:10340000021B9DED000B0CD001280ED09DED021B80
:103410009DED000B022817D0012000F0DDFB06B067
:1034200010BD00F0A5FA06B010BD9DED021B9DED8C
:10343000000B012000F0D0FB51EC100B00F0C7FC9A
:1034400006B041EC100B10BD00F092FA51EC100BDD
:1034500000F0BDFC06B041EC100B10BD00000000F8
:103460000000000000000000FB21E93F0000F07FA9
:1034700010B52F499FED2C1B2DED020B84B0059844
:1034800020F000408842DCBF00209DED040B32DDBF
:103490002849884209D1049840B94FF00100FCF74F
:1034A000EDFE00F03DFC06B010BD05DB9DED040B0C
:1034B00000F02AFC06B010BD68469DED040B00F03C
:1034C0003BF810F0030011D0012818D09DED021B2D
:1034D0009DED000B02281AD000F04AFA51EC100BB7
:1034E00000F075FC06B041EC100B10BD9DED021B09
:1034F0009DED000B012000F06FFB06B010BD9DEDAF
:10350000021B9DED000B00F033FA06B010BD012048
:1035100000F062FB51EC100B00F059FC06B041ECDE
:10352000100B10BD000000000000000000000000B3
:10353000FB21E93F0000F07F2DE9F14F04462DED1E
:10354000020B2DED088B8AB09FEDE70B80ED020B8F
:10355000139EE74826F0004585420ADC9DED120BDC
:10356000002084ED000B0AB0BDEC088B03B0BDE871
:10357000F08FE0489FEDE0AB9FEDE1BBA84247DD57
:10358000E14F9FEDE39B9FEDE48B9DED120B53EC20
:103590001A2B51EC100B002E1CDD01F031F841EC20
:1035A000100BBD4208D053EC1B2B51EC100B01F05B
:1035B00027F8C4E900010BE053EC192B51EC100B78
:1035C00001F01EF853EC182B01F01AF8C4E90001C1
:1035D0000120C8E700F03AFC41EC100BBD4208D0D6
:1035E00053EC1B2B51EC100B00F030FCC4E9000134
:1035F0000BE053EC192B51EC100B00F027FC53ECB3
:10360000182B00F023FCC4E900014FF0FF30AAE7BB
:10361000C348A84279DB9DED120B51EC100B00F072
:10362000BFFB41EC180B9FEDC00B53EC102B00F0CF
:10363000DDFE9FEDBF1B53EC112B00F007FC00F0EB
:1036400011FE074600F06BFE41EC190B53EC1A2BF0
:1036500000F0CCFE53EC182B00F0C6FF41EC180B29
:1036600053EC1B2B51EC190B00F0C0FEDFF8C8A285
:1036700041EC100B4FEA15580125FA4453EC102B7E
:1036800051EC180B00F0BCFF032DC4E900013DD044
:10369000C1F30A5005EB4511A8EB00001139814236
:1036A00034DA0AEB051BB0EE48AA9BED000BF0EEF6
:1036B00068AA53EC102B51EC190B00F097FE41EC6B
:1036C0001B0B51EC1A0B53EC1B2B00F099FF41EC38
:1036D000180B51EC1A0B53EC182B00F091FF53EC24
:1036E0001B2B00F08DFF9BED020B41EC1A0B53ECF2
:1036F000102B51EC190B00F079FE53EC1A2B00F053
:103700007FFF41EC100B6D1CB8E70EE0002EA8BF48
:103710003846BFF628AF94ED000B51EC100B00F0CB
:1037200056FBC4E9000178421DE7C6F3130040F4DC
:10373000801EC6F30A50A0F2F530471100F01F05B5
:10374000C5F12000DDF848B00890002006900790F1
:103750000520EC467949002D07EB0002794408BFAB
:1037600051F8221009D051F8223001EB8201AB4010
:103770004A68089922FA01F11943A1FB0E26A1FB20
:103780000B131A449A4234BF0123002303EB0608AB
:103790000CEB8003D3E901A60E448E4234BF012115
:1037A000002192448A4411B1924502D903E0924526
:1037B00001D2012100E00021C3E901A641444CF8F7
:1037C0002010011EA0F10100C4DC029800F100509D
:1037D000850F0298DDE903678000DDF8148000F0B2
:1037E0009EFD41EC1A0B304600F0B0FD9FED541BDE
:1037F00053EC112B00F0FAFD41EC1B0B384600F0A6
:10380000A5FD9FED511B53EC112B00F0EFFD41EC9A
:10381000180B404600F09AFD9FED4D1B53EC112B09
:1038200000F0E4FD41EC190B51EC180B53EC192B93
:1038300000F00CFB53EC1B2B00F008FB53EC1A2B95
:1038400000F004FBCDE90801002008909DED080B75
:1038500053EC1A2B51EC100B00F0D2FE53EC1B2B47
:1038600000F0CEFE53EC182B00F0CAFE53EC192BDF
:1038700000F0BAFE9FED381B53EC112B00F0B6FDA3
:103880009FED370B41EC180B53EC102B9DED080B03
:1038900051EC100B00F0AAFD53EC182B00F0D6FAF7
:1038A0009FED310B41EC180B53EC102B9DED080BE9
:1038B00051EC100B00F09AFD53EC182B00F0C6FAF7
:1038C00041EC100B139810F0004F06D06D4251ECF4
:1038D000100B00F07CFA41EC100B284684ED000B35
:1038E00041E60000000000000000000000000000B1
:1038F000FB21E93F7CD9024000004054FB21F93F05
:103900003163621A61B4D03DFB21F93F0000000031
:103910000000601A61B4D03D7370032E8A19A33B76
:10392000FB2139410000000083C8C96D305FE43FCE
:10393000000000000000E03F82120000D0110000F3
:10394000000000000000103E000000000000103CDD
:10395000000000000000103A182D4454FB21F93DEE
:103960003326A611460B113C00000054FB21F93D03
:1039700010B52DED040B2DED088B82B0B0EE419A01
:10398000F0EE619A0B9820F000449FED4BABB4F140
:10399000795F11DA9DED0A0B51EC100B00F062FC1F
:1039A000002801BFB0EE4A0AF0EE6A0A02B0BDEC90
:1039B000088B04BF04B010BD9DED0A0B53EC102B17
:1039C00051EC100B00F012FD41EC180B3C480621A5
:1039D000B0EE480AF0EE680A784400F081F853EC43
:1039E000182B51EC100B00F001FD9DED0A0B41EC82
:1039F0001B0B53EC192B51EC100B00F0F7FC41ECB6
:103A0000190B53EC1B2B51EC180B00F0EFFC53EC93
:103A1000192B00F0F5FD9FED2C0B41EC190B53EC2D
:103A2000102B51EC180B00F0E1FC41EC100B284876
:103A3000844210DA53EC192B51EC100B00F0E0FD2E
:103A400053EC1A2B00F0D0FD41EC100B02B0BDEC92
:103A5000088B04B010BD1F48A042BCBF9FED1E1BC9
:103A60008DED001B06DBA4F50010019000200090F6
:103A70009DED001B51EC100B53EC112B00F0C0FD21
:103A80009DED000B41EC180B53EC102B51EC1A0B75
:103A900000F0B6FD41EC1A0B53EC192B51EC180B4E
:103AA00000F0AEFD53EC1A2B00F09EFD41EC100B24
:103AB000CCE7000000000000000000000000F03F24
:103AC000F40E000000000000000000000000E03FD5
:103AD0003333D33F0000E93F000000000000D23F35
:103AE00070B504462DED028B4D1E00EBC500B0EE07
:103AF000408AF0EE608A90ED000B35F0060017D09A
:103B000053EC182B51EC100B00F070FC41EC100B37
:103B10006D1E04EBC50090ED001B51EC100B53EC37
:103B2000112B00F093F941EC100B35F00600E7D1B2
:103B3000022D36D0042D1CD0062D1CBFBDEC028BEF
:103B400070BD53EC182B51EC100B00F04FFC94EDB2
:103B50000A1B53EC112B00F079F953EC182B00F0F1
:103B600045FC94ED081B53EC112B00F06FF941EC70
:103B7000100B53EC182B51EC100B00F037FC94EDAC
:103B8000061B53EC112B00F061F953EC182B00F0DD
:103B90002DFC94ED040B53EC102B00F057F941EC85
:103BA000100B53EC182B51EC100B00F01FFC94ED94
:103BB000021B53EC112B00F049F953EC182B00F0C9
:103BC00015FC94ED001B53EC112B00F03FF9BDECFC
:103BD000028B41EC100B70BD31B504462DED040B8A
:103BE0002DED0A8BB0EE41BAF0EE61BA0B989DED67
:103BF0000A0B20F00040B0F1795F0DDA51EC100BA8
:103C0000FFF7B7FB042808BF00F09AF89DED0A0BF8
:103C1000BDEC0A8B05B030BD53EC102B51EC100BF2
:103C200000F0E4FB41EC180B9DED0A0B53EC182B54
:103C300051EC100B00F0DAFB41EC190B2C48B0EE04
:103C4000480AF0EE680A05217844FFF749FF9FED26
:103C50002ACBB0EE40AAF0EE60AA9CB353EC1C2B2A
:103C600051EC190B00F0C2FB41EC1C0B53EC1A2B6E
:103C700051EC190B00F0BAFB9FED210B41EC190B35
:103C800053EC102B51EC1B0B00F0B0FB53EC192B39
:103C900000F0B6FC53EC182B00F0A8FB53EC1B2BE8
:103CA00000F0AEFC53EC1C2B00F0AAFC9DED0A1BAF
:103CB00053EC112B00F098FCBDEC0A8B05B041ECE5
:103CC000100B30BDFFE753EC1A2B51EC180B00F032
:103CD0008DFB53EC1C2B00F0B9F853EC192B00F0C2
:103CE00085FB9DED0A1B53EC112B00F0AFF8E3E7C9
:103CF0007C0D000000000000495555555555C5BFC5
:103D0000000000000000E03F10B553EC102B51EC18
:103D1000100B00F09BF841EC100B10BD00000000F0
:103D20009FED050B10B553EC102B51EC100B00F070
:103D300041F941EC100B10BD000000000000000034
:103D40009FED050B10B553EC102B51EC100B00F050
:103D50004DFB41EC100B10BD0000000000000010F6
:103D600000BF704710B504466FF00400FFF742FA39
:103D7000E11704EB5171C1F3C701074A11701046F6
:103D8000007800EB4001C1EBC0104FF6FF7101EA73
:103D9000C0000249088010BD000000200200002081
:103DA00082B0CDE9000121F0004001909DED000BB3
:103DB00002B051EC100B7047A820FFF7D3FFFDF7BE
:103DC000E3FFFCF717FB01E0FCF797FAFCE781F053
:103DD0000041704780F00040704721F0004170477B
:103DE00020F000407047000021F00042A2F1605234
:103DF000B2F5801F01F0004328BFD2F17F6C0BD9D0
:103E00005FEA001C43EAC20242EB507018BF7047E1
:103E100028BF20F001007047B2F5801FBCBF1846D4
:103E200070474FEA410C1CF5001F02D2084600F013
:103E300047BD70B500F084FB00000089FFF7F6BFB6
:103E40004FF00040A0F580007047000010B591EAE7
:103E5000030F48BF83F0004300F1DA83841A71EB4B
:103E6000030C05D2121943EB0C03001B61EB0C0190
:103E7000DFF824E14FEA1154A4EB135C1EEA430F70
:103E800018BF9EEA445F73D023EA0E03DCF1200ED4
:103E900021EA045143F4801332D322FA0CFE10EBD2
:103EA0000E0023FA0CFE41EB0E01CCF1200E03FABA
:103EB0000EFE10EB0E0051F10001B1F5801FCCF1A8
:103EC000200E32D201EB045112FA0EF2BDE810407E
:103ED00058BF7047401C38BF5FEA420218BF7047A6
:103EE000002814BF20F0010041F100014FEA410316
:103EF00013F5001F38BF7047A1F1C04100F06EBB41
:103F0000012A43EB0302ACF1200CDCF11F0E32BF9F
:103F10004FF0000E23FA0CF310EB030041EB0451B9
:103F2000B4EB115FD0D0A1EB045101F58011490829
:103F30005FEA300001EB04510ED350F1000038BFAE
:103F400012FA0EFE08D1BDE81040C9E7401C38BF88
:103F50005FEA4202CAD1C3E7BDE810404FEA41031D
:103F600013F5001F38BF7047A1F1C04100F036BB08
:103F70009EEA445F08D011EA5E0FBDE8104004BF1E
:103F800001F0004100207047BDE8104070B500F01E
:103F9000D7FA00BF64FBBE3E0000E0FF491058BFE7
:103FA000C1F140415B1058BFC3F140438B42EFF376
:103FB000008070472DE9C04130B4DFF8A0C23CEA70
:103FC000111418BF3CEA131400F0EC8081EA0305D9
:103FD0001CEA111444EAD57418BF1CEA131500F04A
:103FE000C780A4EB05044FF0004545EAC12145EA2E
:103FF000C32341EA505143EA525304F17F7499427A
:1040000004F500344FEAC0204FEAC22208BF9042B4
:1040100000F09C804FEA13650FF24016765D4FEA80
:10402000134506FB05F7C7F1807706FB07F74FEA54
:10403000D737A7FB03687642C8F58038A7FB06CEC2
:1040400038BFA8F1010807FB08E64FF0000EA6FBF9
:10405000028CE6FB03CEDCF1000CCEF1004E38BF43
:10406000AEF1010EA6FB0C584FF000074FF0000513
:10407000E6FB0E87A1FB08C6A0FB07CE16EB0E06DB
:1040800045F10005E1FB076515F1E04E7EBFA4F5A3
:1040900080345FEA46066D4116F1800745F1000560
:1040A0004FEA17274FEA066647EA0567A6F1DE469C
:1040B000B6F1805F4FEA15251FD9384624F0010C70
:1040C00005EBC471BCF1FE6F01EB0C1102D8F0BC22
:1040D000BDE8008124425CBF01F5801E9EEAC47FDA
:1040E00002D4F0BCBDE80081244238D4F0BCA1F178
:1040F000C041BDE8004100F071BA4FEAD22242EA65
:1041000043524FEAD323A7FB02864FEAD02040EA6E
:10411000415007FB03661EEA0E0F4FEAD12105FB53
:10412000026658BFA6EB0056B6EB00564FEA520E99
:104130004EEAC37E18EB0E0E56EB530EBDD518EBB0
:1041400002085E417F1C55F10005B6E74FF480156B
:104150004FF000074FF000064FF00008ADE7F0BC4D
:104160004FF0000001F1C04101F00041BDE80081C5
:1041700011EA0C1F0CEA131500D00CE013EA0C1F17
:1041800000F025804FF00000F0BC81EA030101F04F
:104190000041BDE80081F0BCBDE8004181EA0301B7
:1041A00000F01CBAF0BCBDE8004170B500F0C8F9E1
:1041B000097EFC3E00F007B881EA03014FF00000E1
:1041C00001F00041704781EA030100F007BAF0BC3A
:1041D000BDE800414FF0000021497047FFFDFBF9A9
:1041E000F7F5F4F2F0EEEDEBE9E8E6E4E3E1E0DE2A
:1041F000DDDBDAD8D7D5D4D3D1D0CFCDCCCBCAC89C
:10420000C7C6C5C4C2C1C0BFBEBDBCBBBAB9B8B7C2
:10421000B6B5B4B3B2B1B0AFAEADACABAAA9A8A8B5
:10422000A7A6A5A4A3A3A2A1A09F9F9E9D9C9C9B83
:104230009A9999989797969595949393929191902E
:104240008F8F8E8E8D8C8C8B8B8A898988888787BF
:104250008685858484838382828181800000FF0734
:104260000000F87F4FEA41034FEA5353A3F5806300
:10427000D3F11E03C8BFD3F1210C0CDD4FF0004277
:1042800042EAC12242EA505232FA03FC8CEAE17C53
:10429000ACEBE1707047102BC4BF0020704703F5F2
:1042A000787CBCF1FF3F04D06FF0004282EA21002D
:1042B000704770B500F044F949922480002070479F
:1042C000F2E700004FEA1153A3F58063D3F11E0318
:1042D000A8BFD3F1200C08DB4FF0004242EAC12214
:1042E00052EA505232FA03F0704709420BD4102BB5
:1042F000C4BF0020704703F5787CBCF1FF3F05D0B8
:104300004FF0FF3070474FF00000704770B500F07D
:1043100017F900BF4992248000207047F0E710F0A1
:10432000004248BF4042B0FA80F310FA03F10AD0CD
:10433000C3F11D0303F580634FEA415002EB0352C2
:1043400002EBD12170474FF000007047B0FA80F3C4
:1043500010FA03F10AD0C3F11D0303F580634FEA9D
:1043600041504FEA035202EBD12170474FF0000059
:104370007047000051EA030C17D41CF5801F58BF8A
:10438000BCF5801F00F10680994218BF704708BF36
:104390009042704707D711F5801F58BF13F5801F53
:1043A00019D499427047894270471CF5801F08D57F
:1043B000BCF5801FF7D58B4218BF704708BF8242FB
:1043C00070474FF4001C1CEB410F38BF1CEB430F30
:1043D00001D28B42704770B500F0B2F892244900C8
:1043E0004FF000514FF08053FFF7D8BDDFF848C1C0
:1043F00070B51CEA111E1EBF1CEA13159EEA0C0FB5
:1044000095EA0C0F00F06F8081EA030423EA4C1355
:104410004EEAD47E21EA4C1141F4801143F480131A
:10442000AE44A1FB024CA0FB0365AEF17F7E3619C2
:1044300055EB0C05A1FB034C4CF10003A0FB021C47
:1044400016EB0C06654153F10003094218BF46F014
:10445000010613F4007F0BD14FEA03314FEA053018
:10446000340341EA155140EA16506FF003020AE0A6
:104470004FEAC3214FEAC520F40241EA555140EA10
:1044800056506FF0020202EB2E4201EB025585EA14
:10449000CE710AD05FEA440C18BF24F0004450F1FA
:1044A000000041F1000120EAD47040F2FE7C624538
:1044B00000D270BDA84214BF4FF080444FF040447A
:1044C000002E08BF0024BEF1806FA8BFA1F1C0413B
:1044D000BDE8704080F282804FF0000001F1C041E1
:1044E00001F0004170479EEA0C0F0CEA131518BF4B
:1044F00095EA0C0F06D04FF0000081EA030E0EF093
:10450000004170BD00F01CF88900013E00F007B8C2
:1045100000F009B84FEA430C5FEA5C5C08D081EA1E
:10452000030100F05BB84FEA410C5FEA5C5CF6D136
:104530004FF00000014970470000FF070000F87FBE
:104540000EF1020E2EF0030E5EF8046B364205D417
:10455000012A43EB030515F5001F12D8012841EB92
:10456000010C1CF5001F0CD80ED14FEAD17C15F5BB
:10457000001F0CEB4C0C0CF1020C08BF4CEBD37C75
:1045800004E04FF0080C01E04FEAD37C0CEB4C0543
:1045900026FA05F606F00706B6F1040C06D20EEB75
:1045A000860CBDE870404CF0010C6047DFE80CF071
:1045B000090B02024FF000414FF00000A1F500216D
:1045C00070BD19461046012851EB010418BFD4F5FF
:1045D000001484BF002001F0004170BD0808A0F560
:1045E00000114FEA3101704791EA030F10B581F0D5
:1045F00000413FF533AC83F0004300F009B8000000
:1046000010B591EA030F48BF83F000433FF526AC95
:10461000841A71EB030C07D212198CF0004C43EB97
:104620000C03001B61EB0C01DFF8A4E14FEA11540D
:10463000A4EB135C1EEA430F18BF9EEA445F00F030
:10464000B08023EA6E03524221EA0451C3EB6E03A9
:1046500038BF5B1EDCF1200E25D322FA0CFE10EBD6
:104660000E0043FA0CFE41EB0E01CCF1200E03FAD2
:104670000EFE10EB0E0051F10001CCF1200E29D4FA
:1046800012FA0EF201EB0451BDE8104058BF70471A
:10469000401C1CBFB2F1004F704700280CBF491CE2
:1046A00020F00100704712EB020E43EB030218BF2B
:1046B0004FF0010E4EEA4202ACF1200CDCF11E0E6E
:1046C00054D943FA0CFE10EB0E0051F1FF31CCF13E
:1046D0001E0ED5D50EF1010E12FA0EFE404141EB31
:1046E000010101EB445C5FEA5C5C10D910EBDE7009
:1046F00001EB045138BFBEF1004FBDE8104018BFB8
:10470000704700280CBF491C20F00100704730D2D0
:104710004FEAD42C11F5001124F400641BD0B1FA37
:1047200081F20B3AA41AA41ED2F12003914030FA70
:1047300003F31943904001EBCC71002C01EB0451C1
:10474000BDE81040A8BF704701F1C0414FF0000024
:1047500001F000417047B0FA80F310FA03F100D184
:1047600010BDE41A173C4805C90AE4E701EB0451FF
:1047700010BD491001EB0451BDE810404FEA300074
:1047800002E04FF0000170474A0008BF0042F8D035
:10479000B2F5001F28BF704701F000414FF0000044
:1047A00070479EEA445F07D011EA5E0FBDE81040F3
:1047B00004BF002100207047BDE8104070B5FFF72E
:1047C000BFFE00BF40DFF63E83F000411046704759
:1047D0000000E0FF43004FEAD30C4FEA3C0C43409B
:1047E0001FBF40070CF1605113F0FE4F70471CF0E3
:1047F000006F03D100200CF0004170470CF0004323
:1048000043EA507010B540EACC0000F00EF800BF4B
:10481000000000924FEA0001FFF7E0BE4FF00041B8
:104820004FF00000A1F5002170470EF1020E2EF0AE
:10483000030E5EF8044B244204D44FEA4102B2F165
:104840007F4F11D84FEA4003B3F17F4F0CD80ED100
:104850004FEAD07CB2F17F4F0CEB4C0C0CF1020C08
:1048600008BF4CEBD17C04E04FF0080C01E04FEAAC
:10487000D17C0CEB4C0324FA03F404F00704B4F1EC
:10488000040C06D20EEB840CBDE810404CF0010C79
:104890006047DFE80CF0070802024FF00040A0F587
:1048A000800010BD0846420018BFD2F1807288BF58
:1048B00000F0004010BD4FF04070E1EE100A70476C
:1048C000FF2141EAD050C005704700000000000001
:1048D0004C5555555555A53F7751C1166CC156BF1E
:1048E0009015CB19A001FA3EAD529C804F7E92BE2E
:1048F000C4B1B4BD9EEE213ED43888BEE9FAA8BD4D
:1049000000004054FB21F93F3163621A61B4D03D8D
:104910000000601A61B4D03D7370032E8A19A33B66
:104920000000002E8A19A33BC14920259A837B39B8
:1049300000000000000000006E83F9A22915444E1B
:10494000D15727FCC0DD34F5999562DB4190433C9B
:10495000AB6351FE61C5BBDE3A6E24B7E0D24D4277
:10496000EA2E49061C92D1091CEB1DFE3EA729B177
:10497000F53582E88444BB2E26709CE9417E5FB405
:1049800039D69139F43953838B5F849C3B28F9BD28
:10499000FF97F81F0F9805DE8B112FEF1F6D0A5A36
:1049A000CF7E366DB709CB27663F464F2DEA5F9E17
:1049B000C7BA27757BF1E5EBF739073DEA92528AD2
:1049C000B15FFB6B085D8D1FA6F810111111813FBF
:1049D000D561C119A0012ABF7DFEB157E31DC73EB5
:1049E000EB9C2B8AE6E55ABE7CD5CF5A3AD9E53DF9
:1049F000104A0008000000200C000000C40100085C
:104A00001C4A00080C0000202C0B0000E0010008EC
:0C4A10000000000000000000000000009A
:040000050800018965
:00000001FF
