:020000040800F2
:1000000030070020290200082D0200082F020008F6
:100010003102000833020008350200080000000029
:10002000000000000000000000000000370200088F
:1000300039020008000000003B0200083D020008F1
:100040003F0200083F0200083F0200083F0200088C
:100050003F0200083F0200083F0200083F0200087C
:100060003F0200083F0200083F0200083F0200086C
:100070003F0200083F0200083F0200083F0200085C
:100080003F0200083F0200083F0200083F0200084C
:100090003F0200083F0200083F0200083F0200083C
:1000A0003F0200083F0200083F0200083F0200082C
:1000B0003F0200083F0200083F0200083F0200081C
:1000C0003F0200083F0200083F0200083F0200080C
:1000D0003F020008D10200083F0200083F0200086A
:1000E0003F0200083F0200083F0200083F020008EC
:1000F0003F0200083F0200083F0200083F020008DC
:100100003F0200083F0200083F0200083F020008CB
:100110003F0200083F0200083F0200083F020008BB
:100120003F0200083F0200083F0200083F020008AB
:100130003F0200083F0200083F0200083F0200089B
:100140003F0200083F0200083F0200083F0200088B
:100150003F0200083F0200083F0200083F0200087B
:100160003F0200083F0200083F0200083F0200086B
:100170003F0200083F0200083F0200083F0200085B
:100180003F0200083F02000800F002F800F03CF8CF
:100190000AA090E8000C82448344AAF10107DA45E2
:1001A00001D100F031F8AFF2090EBAE80F0013F0F8
:1001B000010F18BFFB1A43F001031847A801000004
:1001C000C8010000103A24BF78C878C1FAD8520795
:1001D00024BF30C830C144BF04680C6070470000C1
:1001E0000023002400250026103A28BF78C1FBD840
:1001F000520728BF30C148BF0B6070471FB500F0E1
:10020000ACF81FBD10B510BD00F02FF81146FFF778
:10021000F5FF00F0A0F800F04DF803B4FFF7F2FF8F
:1002200003BC00F095F8000008480047FEE7FEE731
:10023000FEE7FEE7FEE7FEE7FEE7FEE7FEE7FEE796
:1002400003480449044A054B70470000890100082F
:100250003001002030070020300300203003002050
:1002600070477047704770477047754600F02CF82C
:10027000AE4605006946534620F00700854618B093
:1002800020B5FFF7DDFFBDE820404FF000064FF03E
:1002900000074FF000084FF0000B21F00701AC46BB
:1002A000ACE8C009ACE8C009ACE8C009ACE8C009DA
:1002B0008D46704710B50446AFF300802046BDE878
:1002C0001040FFF7AABF000000487047D000002090
:1002D0001C49098801F0200109B31A498988C8B26C
:1002E0001949098801F40041C9B91749098801F47D
:1002F000804161B10A2803D00021134A118020E017
:100300001149098841F400410F4A118019E00D2874
:1003100006D10D49098841F480410B4A118010E053
:1003200009490988C1F30D01084A50540649098852
:10033000491C054A118011460988C72901DD0021A1
:1003400011807047001001400400002008000020C8
:10035000014600BF704700BFFEE74FF04070E1EE7E
:10036000100A704784030008000000200800000005
:10037000C40100088C0300080800002028070000C2
:0C038000E0010008000000000000000088
:040000050800018965
:00000001FF
