:020000040800F2
:1000000038080020E9020008A10300089D03000849
:100010009F03000899030008730500080000000012
:10002000000000000000000000000000290200089D
:100030009B03000800000000850200085904000826
:100040000303000803030008030300080303000878
:100050000303000803030008030300080303000868
:100060000303000803030008030300080303000858
:100070000303000803030008030300080303000848
:100080000303000803030008030300080303000838
:100090000303000803030008030300080303000828
:1000A0000303000803030008030300080303000818
:1000B0000303000803030008030300080303000808
:1000C00003030008030300080303000803030008F8
:1000D00003030008C9040008030300080303000821
:1000E00003030008030300080303000803030008D8
:1000F00003030008030300080303000803030008C8
:1001000003030008030300080303000803030008B7
:1001100003030008030300080303000803030008A7
:100120000303000803030008030300080303000897
:100130000303000803030008030300080303000887
:100140000303000803030008030300080303000877
:100150000303000803030008030300080303000867
:100160000303000803030008030300080303000857
:100170000303000803030008030300080303000847
:10018000030300080303000800F002F800F03CF845
:100190000AA090E8000C82448344AAF10107DA45E2
:1001A00001D100F031F8AFF2090EBAE80F0013F0F8
:1001B000010F18BFFB1A43F001031847B4050000F4
:1001C000D4050000103A24BF78C878C1FAD8520785
:1001D00024BF30C830C144BF04680C6070470000C1
:1001E0000023002400250026103A28BF78C1FBD840
:1001F000520728BF30C148BF0B6070471FB500F0E1
:10020000B1FA1FBD10B510BD00F093F81146FFF70D
:10021000F5FF00F0B0F900F0B1F803B4FFF7F2FF1A
:1002200003BC00F0A7F900002C4B19680868B0E87F
:10023000F04F80F30988BFF36F8F4FF0000080F319
:10024000118870470000000008480068006880F3CB
:1002500008884FF0000080F3148862B661B6BFF3DF
:100260004F8FBFF36F8F00DF00BF00BF08ED00E0CE
:10027000DFF80C00016841F470010160704700BFB5
:1002800088ED00E0EFF30980BFF36F8F134B1A681E
:100290001EF0100F08BF20ED108A20E9F04F10600B
:1002A00009B44FF0500080F31188BFF34F8FBFF3B4
:1002B0006F8F00F071F94FF0000080F3118809BCD6
:1002C00019680868B0E8F04F1EF0100F08BFB0ECD6
:1002D000108A80F30988BFF36F8F704704000020F5
:1002E000EFF3058070470000094880470948004740
:1002F000FEE7FEE7FEE7FEE7FEE7FEE7FEE7FEE7D6
:10030000FEE7FEE704480549054A064B7047000032
:100310006D04000889010008380200203808002018
:100320003804002038040020704770477047704739
:100330007047754600F02CF8AE46050069465346F6
:1003400020F00700854618B020B5FFF7DBFFBDE8B9
:1003500020404FF000064FF000074FF000084FF02C
:10036000000B21F00701AC46ACE8C009ACE8C009BD
:10037000ACE8C009ACE8C0098D46704710B504462A
:10038000AFF300802046BDE81040FFF746BF0000F5
:1003900000487047D4010020FEE77047FEE7FEE703
:1003A000704700000CB500222749009201920868AE
:1003B00040F4803008604FF4A043086800F4003037
:1003C00001900098401C0090019810B90098984244
:1003D000F3D10868800334D5012001901A484030D9
:1003E000026842F0805202601848026842F44042BB
:1003F00002601548083002680260026842F4004258
:100400000260026842F4A0520260031F104A1A60A0
:100410000A6842F080720A600A689201FCD50D49B0
:1004200040F205720A60016821F003010160016871
:1004300041F0020101600168C1F381010229FAD192
:100440000CBD01920CBD000000380240007000405D
:1004500008544007003C024010B500F0E1F80128C4
:1004600003D0BDE8104000F0C5B810BD124810B56B
:10047000016841F4700101601048016841F0010118
:1004800001600E4A00210832116002680C4B1A40CC
:100490000260031D0B4A1A60026822F48022026087
:1004A00006480C300160FFF77DFF03494FF0006004
:1004B0008039086010BD000088ED00E0003802407F
:1004C000FFFFF6FE1030002470B5154C40F22551A8
:1004D000204600F02BF800280ED0204600F045F80A
:1004E000104AC1B21088030406D444044FF000033C
:1004F00006D50A2901D0138070BD40F400400DE0FC
:100500000D2909D0C0F30D04074D401C80B22955B8
:100510001080C728EFD870BD40F48040108070BDB7
:1005200000100140000000204400002070B501F0E0
:100530001F0501260024C1F3421306FA05F2012B20
:100540000FD0022B0FD0838A4FEA1121008813426B
:1005500006FA01F600EA060001D000B101242046A7
:1005600070BD8389F0E7038AEEE78088C0F3080056
:100570007047FEE770470020704700000548816B18
:10058000096821B1816BC9680968816270474FF0C1
:10059000FF31FAE704000020144A506B10B101202B
:1005A000D06170470020D06110691149B0FA80F025
:1005B000C0F11F0000EB800051F820306BB101EB5F
:1005C000800000F10803416849684160994201D107
:1005D00049684160C86810607047502080F31188F6
:1005E000BFF34F8FBFF36F8FFEE7000004000020C2
:1005F0000C01002010B5502080F31188BFF34F8FFD
:10060000BFF36F8F00F01AF818B104494FF0805013
:100610000860002080F3118810BD000004ED00E0A8
:100620000548416919B1406B18B10020704701209D
:100630007047022070470000040000202DE9F041BF
:10064000464E0025706B28B1B069401CB061284649
:10065000BDE8F081F468641CF46013D1B06B0068ED
:1006600038B1502080F31188BFF34F8FBFF36F8FE5
:10067000FEE7B06BF16BB163F063306A401C30622F
:10068000FFF77CFFB06ADFF8D8E084420BD34FF06D
:10069000000CB06B0068A0B1B06BC068C16848685E
:1006A000844211D2B0623068C06A00EB80005EF80C
:1006B0002000012800D90125F0690028C7D00125B4
:1006C000C5E74FF0FF30EDE7D1E9023248699A60A3
:1006D000D1E902235A6043680A1D934201D1CB68D5
:1006E0004360C1F814C003685B1E0360886A88B168
:1006F000D1E907379F60D1E907377B60476801F18F
:1007000018039F4201D10B6A4360C1F828C00368F7
:100710005B1E0360C86A0123376983403B43336132
:1007200000EB80000EEB8000406888608368CB603F
:1007300083685A608260C86A00EB80000EEB80021A
:100740004A615EF82020521C4EF82020C86A3168A9
:10075000C96A88429DD901259BE70000040000205A
:100760000C0100204FF04070E1EE100A70470000CD
:10077000900700080000002044000000C4010008A9
:10078000D407000844000020F4070000E00100083E
:100790000000000000000000000000000000000059
:1007A0000000000000000000000000000000000049
:1007B0000000000000000000000000000000000039
:1007C0000000000004000000000000000000000025
:0407D0000000000025
:040000050800018965
:00000001FF
