:020000040800F2
:10000000080C002031020008A9100008A909000806
:100010006B10000805080008F72600080000000023
:100020000000000000000000000000003F19000870
:10003000C90800080000000039170008551A000818
:100040004B0200084B0200084B0200084B0200085C
:100050004B0200084B0200084B0200084B0200084C
:100060004B0200084B0200084B0200084B0200083C
:100070004B0200084B0200084B0200084B0200082C
:100080004B0200084B0200084B0200084B0200081C
:100090004B0200084B0200084B0200084B0200080C
:1000A000E51B00084B0200084B0200084B02000849
:1000B0004B0200089D1D0008C11E00084B020008ED
:1000C0004B0200084B0200084B0200084B020008DC
:1000D0004B020008E9240008252500084B0200080F
:1000E0004B0200084B0200084B0200084B020008BC
:1000F0004B0200084B0200084B0200084B020008AC
:100100004B0200084B0200084B0200084B0200089B
:100110004B0200084B0200084B0200084B0200088B
:100120004B0200084B0200084B0200084B0200087B
:100130004B0200084B0200084B0200084B0200086B
:100140004B0200084B0200084B0200084B0200085B
:100150004B0200084B0200084B0200084B0200084B
:100160004B0200084B0200084B0200084B0200083B
:100170004B0200084B0200084B0200084B0200082B
:100180004B0200084B02000800F002F800F041F8B2
:100190000AA090E8000C82448344AAF10107DA45E2
:1001A00001D100F036F8AFF2090EBAE80F0013F0F3
:1001B000010F18BFFB1A43F001031847F48F00002A
:1001C00014900000103A24BF78C878C1FAD85207BA
:1001D00024BF30C830C144BF04680C6070470000C1
:1001E0000023002400250026103A28BF78C1FBD840
:1001F000520728BF30C148BF0B607047642900F028
:100200006980002070471FB506F0F3F91FBD10B5D7
:1002100010BD00F0C9FA1146FFF7F5FF04F0FEF932
:1002200000F0E7FA03B4FFF7F2FF03BC02F067FF48
:100230000948804709480047FEE7FEE7FEE7FEE77A
:10024000FEE7FEE7FEE7FEE7FEE7FEE704480549B6
:10025000054A064B70470000591A0008890100083A
:1002600008060020080C00200808002008080020CC
:10027000704710B54C1084EA530404D54042C1F1D4
:10028000000138BF491E1B4204D55242C3F100038E
:1002900038BF5B1E00F055F914F0804F04D0404287
:1002A000C1F1000138BF491E14F0004F04D0524282
:1002B000C3F1000338BF5B1E10BD00000FB404493A
:1002C00010B503AA029800F02FFA10BC5DF814FBD9
:1002D000140000202DE9F04106460024106875291D
:1002E000314616A510D0AFF30080002802DA404254
:1002F00013A507E031688A0701D512A502E0490776
:1003000004D511A5012401E0AFF3008000210A22E9
:1003100006F1240709E0B0FBF2FCB0FBF2F302FBAC
:100320001C00303078541846491C0028F3D123466D
:100330002A463046BDE8F04100F085B900000000D3
:100340002D0000002B000000200000002DE9F05FD0
:10035000894604464FF0000ADFF824B1FB44C0F898
:1003600020A02046E168884700287DD0252806D0B7
:10037000D4E901219047206A401C2062F1E7002562
:100380005F462046E16888472028064607DB312E75
:1003900005D2B81910F8200C08B10543F1E7A807F9
:1003A00001D525F00405C4F81CA00027C4F818A046
:1003B0002A2E09D0304602F09BFE38B304EB8708A2
:1003C000303EC8F8186019E059F8041B204604EBC9
:1003D00087029161E1688847012F064618D1E069DC
:1003E000002820DA25F020051DE0D8F8180000EBE1
:1003F000800006EB40003038C8F818002046E1685D
:100400008847064602F074FE0028EED1012F0AD07C
:100410002E2E08D12046E16888477F1C0646022F11
:1004200045F02005C4DBA069002803DA404245F00E
:100430000105A061E80701D025F01005A6B1A6F1DD
:100440004100192802D8203645F400654A46314655
:10045000204625604D46FFF7D1FE60B1012807D048
:10046000ED1D25F0070000E007E000F1080978E73E
:1004700005F1040975E730467AE7206ABDE8F09F88
:10048000FE8C000040EA010310B59B070FD1042A3F
:100490000DD310C808C9121F9C42F8D020BA19BA4F
:1004A000884201D9012010BD4FF0FF3010BD1AB1B4
:1004B000D30703D0521C07E0002010BD10F8013B09
:1004C00011F8014B1B1B07D110F8013B11F8014B30
:1004D0001B1B01D1921EF1D1184610BD02F0FF0383
:1004E00043EA032242EA024200F032B94FF000022E
:1004F00000B5134694469646203922BFA0E80C501A
:10050000A0E80C50B1F12001BFF4F7AF090728BFF4
:10051000A0E80C5048BF0CC05DF804EB890028BF70
:1005200040F8042B08BF704748BF20F8022B11F099
:10053000804F18BF00F8012B704770477047704715
:10054000704753EA020C00F069802DE9F04B4FF040
:100550000006002B1FBFB3FA83F503FA05F424FA53
:1005600005F65E4012BF1643B2FA82F502FA05F4B0
:10057000C5F120051EBF22FA05FC44EA0C04203513
:1005800056EA044C4FEA144418BF641C4FF00008AC
:100590004FF00009904271EB030C39D3002919BFC9
:1005A000B1FA81F701FA07F6B0FA80F700FA07F618
:1005B000C7F120071EBF20FA07FC46EA0C062037C9
:1005C000B6FBF4FCA7EB0507103F07F01F0BCBF1C0
:1005D00020060CFA0BFB2CFA06F644BFB3460026A5
:1005E000202FA4BF5E464FF0000B5BEA060C08BF4D
:1005F0004FF0010B19EB0B09ABFB027C48EB060833
:10060000C01B06FB02CC0BFB03CC71EB0C01C1E75A
:100610000B46024641464846BDE8F08B13B54FF005
:1006200000004FF00001AFF30080BDE81C407047B0
:1006300010B500F0B1F8006810BD10B5044600F028
:10064000ABF8046010BD2DE9F0470D46994692467F
:10065000044600F124080168880604D5E06921F009
:100660001001216000E00120A84201DD471B00E0ED
:100670000027A1697A1902EB0900081AA061207805
:10068000C00602D42046AFF30080002608E0D4E97B
:1006900001211AF806009047206A401C761C20624F
:1006A0004E45F4DB2078C0060AD52046AFF3008023
:1006B00006E0D4E9012130209047206A401C2062E6
:1006C000381EA7F10107F4DC07E0D4E9012118F88E
:1006D00005009047206A401C2062281EA5F10105F4
:1006E000F3DC2046AFF300802078000602D502201C
:1006F000BDE8F0870120FBE701694A1C0261087828
:10070000704700B58FB0CDE9013100210591054951
:100710007944CDE9031011466846FFF717FE0FB084
:1007200000BD0000E5FFFFFF074B70B50D467B44A1
:10073000FFF7E7FF0446284600F032F810B14FF00B
:10074000FF3070BD204670BDFF3700004FF0000243
:100750000429C0F0128010F0030C3FF4C9AECCF1B4
:10076000040CBCF1020F18BF00F8012BA8BF20F841
:10077000022BA1EB0C01FFF7BBBE5FEAC17C24BFDB
:1007800000F8012B00F8012B48BF00F8012B70473F
:1007900000487047A805002000487047A8050020C1
:1007A000007B00F0800070477546FFF7F1FFAE4612
:1007B00005006946534620F00700854618B020B56D
:1007C000FFF744FDBDE820404FF000064FF0000762
:1007D0004FF000084FF0000B21F00701AC46ACE8E9
:1007E000C009ACE8C009ACE8C009ACE8C0098D4656
:1007F000704710B50446AFF300802046BDE81040B6
:10080000FFF710BD00BFFEE77CB5012401200823DF
:1008100024A20A210090002000F0D6FE0120082327
:1008200023A214210090002000F0CEFE0120082316
:1008300022A21E210090002000F0C6FE00F0BAFDAA
:100840001AE0012008212246CDE90010611CCCB23B
:10085000022314213C2000F071FE01200821032313
:100860002A46CDE900101E212A2000F067FE00F084
:10087000A1FDC82002F0FEFC04F04EF8051EE0D1F8
:10088000012008230FA20A2100903C2000F09CFECA
:1008900000F090FD4FF47A7002F0ECFC00F04CFC9C
:1008A0007CBD0000444D5020696E672E2E2E000046
:1008B000417474656D7074733A0000004572726F14
:1008C000723A00004F4B21007047F0B50A460021F4
:1008D0000023002400BF3DE0012505FA01F315685F
:1008E00005EA03049C4234D105684F000326BE404C
:1008F000B543056015794E00B5400668354305607F
:100900001579012D02D01579022D16D185684F0079
:100910000326BE40B543856055794E00B5408668D4
:1009200035438560456801268E40B543456045687E
:1009300096798E40B6B235434560C5684F000326B0
:10094000BE40B543C560D5794E00B540C668354355
:10095000C560491C1029BFD3F0BDF0B500230024A9
:100960004D07ED0E02FA05F3CE1000F1200555F803
:1009700026504E07F70E0F26BE40B543CF1000F1AC
:10098000200646F82750CE1000F1200555F82650D5
:1009900045EA0304CE1000F1200545F82640F0BDDD
:1009A000418370470183704700BFFEE71448006829
:1009B00040F01100124908601248006811490860AF
:1009C0000846406848600846806840F47070886057
:1009D0000846C06840F4A070C8600B4800680A4927
:1009E00008600846406848600846806840F0030098
:1009F00088600846C06840F00200C8607047000088
:100A000030380240001002400000024011480068E7
:100A100040F020000F4908600F48006840F4A01023
:100A20000D490860081D0068091D0860081D006860
:100A300040F47010091D0860081D006840F4A01003
:100A4000091D08600120054908600549C1F8A80290
:100A5000704700003038024000140240A482424235
:100A60000080424290ED001AB4EEC01AF1EE10FA86
:100A700002D2B0EE401A01E090ED001A80ED001AAB
:100A800090ED001AB4EEE01AF1EE10FA02DDB0EECD
:100A9000601A01E090ED001A80ED001A7047000026
:100AA00070B505460C46002D07DD0020184908608A
:100AB00001201849C1F89C0206E001201449086091
:100AC00000201449C1F89C02284604F00DFF064698
:100AD0003146114801F0E5FB002C08DD00200C49EF
:100AE000091D086001200B49C1F8A00207E00120A0
:100AF0000749091D086000200649C1F8A0022046E8
:100B000004F0F2FE06463146034801F0CCFB70BD0E
:100B100094024342000043420004014010B500200B
:100B20000E4908600E48006820F030000C4908604B
:100B30000846006840F01000086000200949C1F82C
:100B4000880200F011F801200449086000F00CF858
:100B500000200449C1F8840210BD00008402414213
:100B6000000802400000414210B5022002F09EFB46
:100B700010BD00001CB50121042000F015FE062068
:100B8000009001208DF8040000208DF8060001205F
:100B90008DF8070002208DF8050069460348FFF72D
:100BA00094FE06210148FFF7FDFE1CBD000802402F
:100BB00010B500200E4908600E48006820F0300093
:100BC0000C4908600846006840F0100008600120E9
:100BD0000949C1F88802FFF7C7FF012004490860EE
:100BE000FFF7C2FF00200449C1F8840210BD0000D5
:100BF00084024142000802400000414270B50546AF
:100C000000241548006820F03000134908600846A9
:100C100000680860002614E0002010490860FFF713
:100C2000A3FF01200E49C1F884026006040E0B48A0
:100C30007C38006808B1601CC4B2FFF795FF701CD7
:100C4000C6B2082EE8DB15B9FFF7B2FF01E0FFF7E7
:100C500065FF204670BD000000080240840241424A
:100C60000000414270B504461248006820F0300090
:100C7000104908600846006840F010000860002035
:100C80000D490860002512E0E0090B49091D0860C4
:100C90006006040E01200949C1F88402FFF764FFD1
:100CA000002005490860FFF75FFF681CC5B2082DEA
:100CB000EADB70BD0008024084024142000041426C
:100CC00010B50E48006820F030000C490860084656
:100CD000006840F0100008600120094908600949D7
:100CE000C1F88402FFF740FF002005490860FFF7C4
:100CF0003BFF00200349C1F8840210BD00080240F8
:100D0000880241420000414210B50E48006820F0C0
:100D100030000C4908600846006840F01000086088
:100D20000020094908600949C1F88802FFF71CFF43
:100D30000120054908600549C1F88802FFF714FF42
:100D400010BD000000080240840241420000414200
:100D500010B500241348006820F0300011490860E5
:100D600008460068086001200F490860FFF7FCFE94
:100D700001200E49C1F88402FFF7F6FE07E0601C6F
:100D8000C4B2FA2C03DDFFF7BFFF012010BD0648F7
:100D9000803800680028F2D10349091F086000BFAD
:100DA000F4E700000008024088024142000041428E
:100DB0001CB5FFF7DFFE80216B2000F004F96420F2
:100DC00002F058FA00216B2000F0FDF8032000F03B
:100DD000B8F8002000F0ADF8322000F0D7F800217C
:100DE000382000F0F0F800216A2000F0ECF8002133
:100DF000232000F0E8F88021372000F0E4F8752087
:100E000000F040F80446682C0BD101216B2000F063
:100E1000DAF800216C2000F0D6F8322000F0B6F8A5
:100E200015E00120082310A200210090084600F0E0
:100E3000CBFB0120082102232246CDE9001000212E
:100E4000482000F07BFB00F0B5FA01201CBD01201A
:100E5000082309A200210090084600F0B5FB00F02D
:100E6000A9FA0020F2E700004D5055363035302009
:100E70006572723A000000004D5055363035302012
:100E80004F4B210070B50446FFF71AFFD020FFF743
:100E9000E9FEFFF75DFF2046FFF7E4FEFFF758FF8E
:100EA000FFF70EFFD120FFF7DDFEFFF751FF002017
:100EB000FFF7A4FE0546FFF727FF284670BD2DE982
:100EC000F04106460F4614461D46FFF7F9FE002185
:100ED00041EA4601C8B2FFF7C5FEFFF739FF20B16E
:100EE000FFF712FF0120BDE8F0813846FFF7BAFE98
:100EF000FFF72EFFFFF7E4FE012101EB4601C8B228
:100F0000FFF7B0FEFFF724FF0DE0012C04D1002015
:100F1000FFF774FE287003E00120FFF76FFE2870D2
:100F2000601EC4B26D1C002CEFD1FFF7EDFE002057
:100F3000D9E710B50446E006010E1C2000F043F886
:100F400010BD10B50446E006010E1B2000F03BF872
:100F500010BD70B504460025BC2C01DB012510E056
:100F6000622C01DB02250CE02A2C01DB032508E0C2
:100F7000142C01DB042504E00A2C01DB052500E02C
:100F8000062529461A2000F01EF870BD70B50446EB
:100F9000B4F57A7F01DD4FF47A74042C00DA04246E
:100FA0004FF47A7090FBF4F0401EC5B22946192028
:100FB00000F009F80546264604EBD671C1F34F0050
:100FC000FFF7C7FF70BD70B505460C46FFF778FE0A
:100FD000D020FFF747FEFFF7BBFE18B1FFF794FEE6
:100FE000012070BD2846FFF73DFEFFF7B1FE204609
:100FF000FFF738FEFFF7ACFE18B1FFF785FE0120C2
:10100000EFE7FFF781FE0020EBE72DE9F041054611
:101010000E4617469846FFF753FE002141EA450168
:10102000C8B2FFF71FFEFFF793FE20B1FFF76CFE7B
:101030000120BDE8F0813046FFF714FEFFF788FE7F
:1010400000240CE018F80400FFF70CFEFFF780FE08
:1010500018B1FFF759FE0120EBE7601CC4B2BC4297
:10106000F0DBFFF751FE0020E3E700BFFEE70000E2
:101070001CB50121402000F097FB4FF4F070009068
:1010800001208DF8040000208DF8060003208DF863
:10109000050001208DF8070069460248FFF715FC9E
:1010A0001CBD0000001802407047000070B5002110
:1010B00000230F22C4781CB3174C246804F4E064A6
:1010C000C4F5E064C4F30721C1F10404E3B20A41AA
:1010D00044789C40E1B28478144021430C07210EEF
:1010E0000E4C05786155047804F01F050124AC40CE
:1010F00005786D11AD0005F1E025C5F8004109E066
:10110000047804F01F050124AC40054D06787611E3
:1011100045F8264070BD00000CED00E000E400E062
:1011200080E100E002490143024A1160704700007B
:101130000000FA050CED00E070B500240CE000257D
:1011400006E00020074901EBC5010855681CC5B23F
:10115000802DF6DB601CC4B2082CF0DB00F02AF90D
:1011600070BD000018010020F0B514460B46CF17E3
:1011700001EB5777C7F3C702CF1701EB5777FF1083
:10118000A1EBC707FEB20123B340DDB24CB1134B54
:1011900003EBC0039B5C2B43104F07EBC007BB5412
:1011A0001AE00E4B03EBC0039B5CDB430B4F07EBDA
:1011B000C007BB54094B03EBC0039B5C2B43074F99
:1011C00007EBC007BB54054B03EBC0039B5CDB4341
:1011D000024F07EBC007BB54F0BD00001801002010
:1011E0001CB501214E2000F0DFFA48F20400009007
:1011F00001208DF8040000208DF8060003208DF8F2
:10120000050001208DF8070069466048FFF75DFB87
:101210004FF400415D48FFF7C3FB44F2200000900B
:1012200001208DF8040000208DF8060003208DF8C1
:10123000050001208DF8070069465548FFF745FB7A
:101240004FF40050009001208DF8040000208DF82C
:10125000060003208DF8050001208DF8070069467F
:101260004C48FFF732FB4FF48050009001208DF87E
:10127000040000208DF8060003208DF805000120F1
:101280008DF8070069464448FFF71FFB4FF4805173
:101290004148FFF785FBC82001F0ECFF4FF4805177
:1012A0003D48FFF77FFB0021AE2000F0B3F900219D
:1012B000084600F0AFF90021102000F0ABF9002142
:1012C000402000F0A7F90021812000F0A3F90021BF
:1012D000CF2000F09FF90021A12000F09BF9002110
:1012E000C82000F097F90021A62000F093F9002112
:1012F000A82000F08FF900213F2000F08BF9002199
:10130000D32000F087F90021084600F083F900217E
:10131000D52000F07FF90021802000F07BF900212A
:10132000D92000F077F90021F12000F073F90021B5
:10133000DA2000F06FF90021122000F06BF9002193
:10134000DB2000F067F90021402000F063F9002164
:10135000202000F05FF90021022000F05BF900215D
:101360008D2000F057F90021142000F053F90021DE
:10137000A42000F04FF90021A62000F04BF9FFF760
:10138000DBFE0021AF2000F045F91CBD0004024047
:10139000000C0240000802400018024010B502464E
:1013A000012000E050430B1EA1F10104E1B2F9D18C
:1013B00010BD000070B500241CE004F1B001C8B2FB
:1013C000002100F027F90021084600F023F9002150
:1013D000102000F01FF9002508E0084901EBC501C5
:1013E000085D012100F016F9681CC5B2802DF4DB00
:1013F000601CC4B2082CE0DB70BD000018010020A6
:101400002DE9FE4F0746884692461C460197CDF8C7
:101410000080082C02D14FF006091FE02046E31798
:1014200004EB5373DB1021464FEAE47C04EB5C7C55
:101430004FEAEC0CA4EBCC0CBCF1000F02D04FF047
:10144000010C01E04FF0000C6344224604EBD27C17
:101450004FEA6C0C03FB0CF303F0FF09AAF1200028
:10146000C6B200255EE0082C07D106EB46002F49E6
:1014700001EB400010F805B01DE00C2C07D106EB85
:1014800046002B4901EB800010F805B013E0102C4A
:1014900005D1284800EB061010F805B00BE0182C19
:1014A00007D106EBC600244901EB800010F805B017
:1014B00001E0BDE8FE8F002002901CE00BF001006F
:1014C00028B1414638460C9AFFF74EFE09E00C98C9
:1014D00008B9012000E00020024641463846FFF7E7
:1014E00043FE4FEA6B0B08F1010000F0FF08029881
:1014F000401CC0B2029002980828DFDB781CC7B2FB
:10150000082C0BD004EBD4714A100199791A8A4245
:1015100004D1019F00980830C0B20090DDF800802F
:10152000681CC5B24D459EDB00BFC2E706660008D9
:101530002E680008A26C0008927200082DE9FF4F87
:1015400082B0064691461F46DDE90F4A4FF0000B78
:10155000082C01D14FF0020B002530E0781B401E13
:10156000C1B20A20FFF71AFFB9FBF0F00A21B0FB65
:10157000F1F201FB1208B8F1000F0ED104EBD471A7
:101580000BEB610101FB0561C8B223463022CDE9B6
:1015900000A40399FFF734FF0FE004EBD4710BEBC9
:1015A000610101FB0561C8B208F13001CAB22346EE
:1015B000CDE900A40399FFF723FF681CC5B2BD4223
:1015C000CCDB06B0BDE8F08F2DE9F84106460F46AA
:1015D00014461D46DDF81C8013E0CDF8008022780B
:1015E0002B4639463046FFF70BFF082D02D1B01DC0
:1015F000C6B205E0284605EBD07106EB6101CEB21C
:10160000641C2078202802DB20787E28E5DDBDE8F8
:10161000F881000070B504460E4626B120211A4814
:10162000FFF7C0F903E020211748FFF7B9F94FF49D
:1016300080411548FFF7B4F9002519E0042113484B
:10164000FFF7AEF904F0800028B14FF400511048C4
:10165000FFF7A8F904E04FF400510D48FFF7A0F997
:1016600004210A48FFF79EF96006040E681CC5B203
:10167000082DE3DB4FF480410348FFF793F9202165
:101680000148FFF78FF970BD000C024000040240D2
:1016900000080240034880ED040A0348C0ED040A34
:1016A00070470000D8000020F800002000B59FED32
:1016B0000F0A0F4880ED000A0E4880ED000AB8EED0
:1016C000080A0B4880ED010A0A4880ED010ABBEECA
:1016D0000E0A074880ED020A064880ED020ADFED97
:1016E000060A9FED050AFFF7D5FF00BD000016C4EE
:1016F000F8000020D8000020000000000268B2F5C9
:10170000E15F02DD4FF4E1520260026812F5E15F31
:1017100001DA084A02600A68B2F5E15F02DD4FF4BF
:10172000E1520A600A6812F5E15F01DA014A0A60D3
:1017300070470000E0E3FFFF7047000000B501467E
:10174000B0EE402A91ED040A32EE400AF0EE401A63
:1017500091ED060A30EE210A81ED060ADFED100A4E
:101760009FED100A01F11800FFF77CF991ED010AD5
:10177000D1ED060A20EE200AD1ED000A00EEA10A02
:10178000D1ED020A91ED051A31EEC11A00EE810A7F
:1017900081ED030AC1ED051A91ED030A00BD0000B9
:1017A00000803B4500803BC529B1064A12680243D0
:1017B000044B1A6004E0034A12688243014B1A602A
:1017C000704700003038024029B1064A12680243CF
:1017D000044B1A6004E0034A12688243014B1A600A
:1017E000704700004038024029B1064A126802439F
:1017F000044B1A6004E0034A12688243014B1A60EA
:101800007047000044380240F0B500210022002457
:10181000022500260223324F3F6807F00C0121B158
:10182000042905D0082937D105E02E4F076036E09E
:101830002D4F076033E02A4F3F1F3F68C7F38056A4
:10184000274F3F1F3F6807F03F036EB1264FB7FB9E
:10185000F3F7DFF88CC0ACF1040CDCF800C0CCF37B
:10186000881C07FB0CF40CE01E4FB7FBF3F7DFF806
:1018700070C0ACF1040CDCF800C0CCF3881C07FB92
:101880000CF4174F3F1F3F68C7F301477F1C7D00D3
:10189000B4FBF5F7076002E0124F076000BF00BF1E
:1018A0000F4F3F6807F0F0010909104F7A5C076895
:1018B000D74047600A4F3F6807F4E051890A0B4F51
:1018C0007A5C4768D7408760054F3F6807F46041FE
:1018D000490B064F7A5C4768D740C760F0BD0000EF
:1018E000083802400024F40000127A0000000020B2
:1018F00070B50546032D02D0042D12D108E00B4827
:1019000000F0D4FB04B20021084800F0CEFC0AE04D
:10191000074800F0CBFB04B20021054800F0C5FCED
:1019200001E0002400BF00BF204670BD000400405D
:10193000000800400021018041808180704770478D
:101940000CB50020019000903448006840F48030CD
:101950003249086000BF3148006800F40030009050
:101960000198401C0190009818B90198B0F5A04F5B
:10197000F1D12A48006800F4003010B10120009035
:1019800001E0002000900098012846D12348403013
:10199000006840F0805021494031086020480068CC
:1019A00040F440401E4908601C48083000681B494C
:1019B000083108600846006840F4004008600846A6
:1019C000006840F4A05008601648091F0860081F0E
:1019D000006840F08070091F086000BF0F48006871
:1019E00000F000700028F9D040F205700E49086040
:1019F0000A480830006820F00300084908310860F0
:101A00000846006840F00200086000BF0348083044
:101A1000006800F00C000828F8D10CBD0038024026
:101A20000070004008544007003C0240042808D1E0
:101A30004FF0E021096941F004014FF0E02211610B
:101A400007E04FF0E021096921F004014FF0E022A6
:101A5000116170477047000010B51548006840F4E8
:101A60007000134908601348006840F001001149F4
:101A7000086000200F49083108600E4800680E49D0
:101A800008400C4908600D48091D0860081F0068DF
:101A900020F48020091F0860002006490C310860EE
:101AA000FFF74EFF4FF0006001498039086010BD1C
:101AB00088ED00E000380240FFFFF6FE1030002401
:101AC000F0B50C46154600210022068C4FF6FE7735
:101AD0003E400684018B028C4FF60C7631407E1C12
:101AE00006EA03162E4331434FF6F576324044F0B2
:101AF0000106324301830284F0BDF0B50C46154661
:101B0000002100220026078C4FF6EF7C07EA0C0725
:101B10000784018B028C4FF6FF7707EA041640F624
:101B2000FF4739404FF6FF7707EA033739434FF64F
:101B3000FF7707EA052739434FF65F773A4046F0CB
:101B400010073A4301830284F0BDF0B50C461546F8
:101B5000002100220026078C4FF6FF6C07EA0C07D5
:101B60000784818B028C4FF6FF7707EA04264FF635
:101B70000C7739404FF6FF7707EA03172F433943B5
:101B80004FF2FF573A4046F480773A43818302840C
:101B9000F0BDF0B50C461546002100220026078C4A
:101BA0004EF6FF7C07EA0C070784818B028C4FF608
:101BB000FF7707EA043640F6FF4739404FF6FF77D4
:101BC00007EA052739434FF6FF7707EA033739431A
:101BD00045F6FF773A4046F480573A4381830284C2
:101BE000F0BD000010B50121204800F062FAC0B33A
:101BF0000320FFF77DFE00B21D4908800420FFF797
:101C000077FE00B21B4908801B4A1C491C4802F0A1
:101C100077FD1748B0F9000000EE100AB8EEC00AD0
:101C20001848FFF78BFDBDEEC00A174880ED000A8B
:101C30001048B0F9000000EE100AB8EEC00A1348D0
:101C4000FFF77CFDBDEEC00A114880ED000A014699
:101C50000D48FFF753FD0E4801680B480068FEF77A
:101C60001FFF0121014800F0DFF910BD00400140D5
:101C70001C0000201E000020300000202C0000204E
:101C800028000020D800002020000020F8000020BC
:101C90002400002000B589B001210846FFF784FD2B
:101CA00001210220FFF790FDC020079002208DF84F
:101CB000200000208DF8220003208DF82100002054
:101CC0008DF8230007A93348FEF7FFFD0222062105
:101CD0003048FEF742FE022207212E48FEF73DFE65
:101CE0000020ADF81200ADF818004FF6FE70059018
:101CF0000020ADF8100004A9274800F005FB0020E3
:101D0000ADF804000320ADF80C000020ADF806008B
:101D1000ADF80A000120ADF8080001A91E4800F046
:101D2000D9F90420ADF804000320ADF80C00002020
:101D3000ADF80600ADF80A000120ADF8080001A9D1
:101D4000154800F0C7F900231A460321124800F095
:101D50008CF91D208DF8000000208DF80100012075
:101D60008DF802008DF803006846FFF79FF9012106
:101D7000094800F05CF901221146074800F0E1F93A
:101D80000021054800F091FA0121034800F052F9C2
:101D900009B000BD000002400004004010B5012160
:101DA000044800F086F918B10121024800F03FF91B
:101DB00010BD00000004004000B589B001210220E0
:101DC000FFF7F2FC01210420FFF7FEFCC020079082
:101DD00002208DF8200000208DF8220003208DF8CD
:101DE000210000208DF8230007A93348FEF76DFD80
:101DF000022206213048FEF7B0FD022207212E48BC
:101E0000FEF7ABFD0020ADF81200ADF818004FF65C
:101E1000FE7005900020ADF8100004A9274800F0DE
:101E200073FA0020ADF804000320ADF80C00002088
:101E3000ADF80600ADF80A000120ADF8080001A9D0
:101E40001E4800F047F90420ADF804000320ADF867
:101E50000C000020ADF80600ADF80A000120ADF836
:101E6000080001A9154800F035F91E208DF8000082
:101E700000208DF8010001208DF802008DF803008C
:101E80006846FFF713F900231A4603210B4800F0B8
:101E9000ECF80121094800F0CAF801221146074870
:101EA00000F04FF90021054800F0FFF90121034837
:101EB00000F0C0F809B000BD000402400008004076
:101EC00010B50121044800F0F4F818B101210248CE
:101ED00000F0ADF810BD00000008004030B58BB038
:101EE00004460D4601210420FFF75EFC012102207B
:101EF000FFF77AFCC020099002208DF8280000200E
:101F00008DF82A0003208DF8290002208DF82B007F
:101F100009A92648FEF7D9FC032206212348FEF72B
:101F20001CFD032207212148FEF717FD0020ADF814
:101F30001A00ADF820000795ADF8184006A91C4816
:101F400000F0E2F96020ADF804000020ADF81000C8
:101F50000120ADF806000020039001A9144800F00C
:101F6000F9F86020ADF804000020ADF81000012061
:101F7000ADF806000020039001A90D4800F032F9E9
:101F800008210B4800F024F90821094800F07CF9E9
:101F90000121074800F03CF80121054800F056F8FF
:101FA0000121034800F046F80BB030BD00080240A4
:101FB000000401407FB504460D4601210804FFF7E7
:101FC00013FC0020ADF80600ADF80C000295A0B29D
:101FD000ADF8040001A90D4800F096F918208DF81D
:101FE000000000208DF801008DF8020001208DF81E
:101FF00003006846FFF75AF801221146034800F033
:10200000A0F80121014800F015F87FBD0040014013
:1020100021B1028842F08002028004E002884FF67B
:102020007F731A4002807047CA4302827047CA43D6
:102030000282704721B1028842F00102028004E06E
:1020400002884FF6FE731A400280704731B1B0F833
:10205000442042F40042A0F8442005E0B0F84420B7
:10206000C2F30E02A0F844207047F0B50C461546A6
:102070001E460021002200230189028B038C4FF6AB
:10208000F877394021434FF6FC473A4040F20117B8
:102090003A434FF6DD773B404FF6FF7707EA0617E6
:1020A0002F433B43018102830384F0BD0146486A0C
:1020B000704730B50246002000230024158A05EA47
:1020C0000103958905EA010413B10CB1012000E078
:1020D000002030BD70B505460C46208850B92389D4
:1020E000A28861882846FFF7EBFCE188284600F0CB
:1020F000DEF825E0208804280AD12389A288618897
:102100002846FFF7FAFCE188284600F0D9F817E0E6
:10211000208808280AD12389A28861882846FFF7E9
:1021200014FDE188284600F0D8F809E02389A28848
:1021300061882846FFF72DFDE188284600F0D6F893
:1021400070BD1AB183890B43838102E083898B437D
:102150008381704770B5002400220023058C4FF660
:10216000FE7635400584028C8388048B4FF68F758C
:102170002C40B51E2C400D882C43751E2A408D899D
:102180002A434D882A43104DA84202D00F4DA84241
:1021900013D14FF6F7752A40CD892A434FF6FB75C8
:1021A0002A408D882A434FF6FF652B404FF6FF5596
:1021B0002B400D8A2B434D8A2B43838004838D68EB
:1021C0004563028470BD000000000140000401402E
:1021D0000A460021018B4FF6F77319401143018322
:1021E0007047000070B5002400220023058C4FF6D4
:1021F000EF7635400584028C8388048B48F6FF75A2
:102200002C404FF6FF452C400D884FF6FF7606EA2E
:1022100005252C434FF6DF752A408D8906EA051502
:102220002A434D8806EA05152A43154DA84202D0D7
:10223000144DA8421DD14FF67F752A40CD894FF627
:10224000FF7606EA05152A434FF6BF752A408D88AA
:1022500006EA05152A434FF6FF352B404FF2FF756E
:102260002B400D8A06EA85052B434D8A06EA850533
:102270002B43838004838D688563028470BD0000D6
:1022800000000140000401400A460021018B4FF28A
:10229000FF7319404FF6FF7303EA022319430183CA
:1022A0007047416370478163704741627047028B9A
:1022B0004FF6F3731A400283028B0A43028370477E
:1022C000028B4FF2FF331A400283028B4FF6FF73EB
:1022D00003EA01231A4302837047828B4FF6F3739C
:1022E0001A408283828B0A4382837047828B4FF22B
:1022F000FF331A408283828B4FF6FF7303EA012378
:102300001A4382837047000000220288184B9842CB
:102310000ED0184B98420BD0B0F1804F08D0164B1E
:10232000984205D0154B984202D0154B984204D1E3
:102330004FF68F731A404B881A43124B984207D0BE
:10234000114B984204D04FF6FF431A400B891A43B1
:1023500002804B68C3620B880385054B984202D00C
:10236000044B984201D18B7A038601238382704704
:10237000000001400004014000040040000800404B
:10238000000C0040001000400014004010B588B060
:10239000044601210846FFF707FA01211020FFF744
:1023A00023FA072209212248FEF7D7FA07220A2139
:1023B0001F48FEF7D2FA4FF4C060069002208DF855
:1023C0001C008DF81D0000208DF81E0001208DF8E6
:1023D0001F0006A91648FEF778FA02940020ADF80F
:1023E0000C00ADF80E00ADF81000ADF814000C2094
:1023F000ADF8120002A90F4800F00EF901210D48B6
:1024000000F0AEF8012240F225510A4800F0DEF853
:1024100025208DF8040002208DF805008DF80600B7
:1024200001208DF8070001A8FEF740FE08B010BD9E
:10243000000002400010014010B588B004460121A0
:102440000846FFF7B1F901214804FFF7BDF90C2058
:10245000069002208DF81C0000208DF81E0003203D
:102460008DF81D0000208DF81F0006A91C48FEF7FE
:102470002CFA072202211A48FEF76FFA07220321DD
:102480001748FEF76AFA02940020ADF80C00ADF888
:102490000E00ADF810000C20ADF812000020ADF8D1
:1024A000140002A90F4800F0B7F826208DF80400A8
:1024B00000208DF8050001208DF806008DF807003A
:1024C00001A8FEF7F3FD012240F22551054800F076
:1024D0007DF80121034800F043F808B010BD00006A
:1024E000000002400044004010B540F225510A4867
:1024F00000F042F878B1084800F0F8F8C4B221467C
:10250000064800F0FAF818B900200549086002E012
:1025100001200349086010BD001001406C0000203C
:10252000A882424210B540F225510A4800F024F832
:1025300078B1084800F0DAF8C4B22146064800F045
:10254000DCF818B900200549086002E001200349C1
:10255000086010BD0044004090000020A882424264
:1025600021B1828942F40052828104E082894DF6D1
:10257000FF731A408281704770B502460024002321
:102580000025002040F66A16B14200D100BFC1F319
:10259000421501F01F03012606FA03F3012D02D1B3
:1025A0009689334006E0022D02D1168A334001E0BD
:1025B000968A33400C12012606FA04F41688344039
:1025C00013B10CB1012000E0002070BDF0B503464E
:1025D000002400260025002040F66A17B94200D1E9
:1025E00000BF1846C1F3421401F01F06012707FA85
:1025F00006F5012C01D10C3004E0022C01D1103081
:1026000000E014301AB107682F43076002E0076842
:10261000AF430760F0BD00002DE9FF4705460E46B9
:102620000024A14600BFA046B08900B100BF2C8A9B
:1026300024F44054F08804432C82AC8941F20C60AD
:102640008443B08831890843718908430443AC81CD
:10265000AC8A24F44074B0890443AC826846FFF726
:10266000D3F82048854202D01F48854202D1DDF8C8
:102670000C9001E0DDF80890A88900F4004040B11A
:1026800009EBC90000EB091031684900B0FBF1F714
:1026900007E009EBC90000EB091031688900B0FBC5
:1026A000F1F76420B7FBF0F004012009642101FB7D
:1026B0001078A88900F4004040B1322000EBC80037
:1026C000B0FBF1F000F00700044308E0322000EB1B
:1026D00008106421B0FBF1F000F00F0004432C81DE
:1026E000BDE8FF87001001400014014001468888C2
:1026F000C0F30800704700BFFEE710B5024690889F
:102700001E2801DB002010BD5388901DC154508845
:10271000401C1E2390FBF3F403FB140050809088B0
:10272000401C90800120EEE703B40198410000981E
:1027300050EAC12018BF04204A0D18BF40F0010024
:1027400040F2FF72B2EB515F08BF40F00200012877
:1027500008BF052002B0704770B5C1482DED020BCF
:102760002DED0E8B82B0119D25F000449FEDBEDB58
:102770009FEDBFEB84423EDBA4F140511098A1F1E4
:102780007F6108430FD0BC48844202DC28D11098F6
:1027900030B39DED100B02B0BDEC0E8B02B0BDE866
:1027A000704000F071BC9DED100B53EC1D2B51ECF3
:1027B000100B03F0EDFB9DED100B41EC180B53ECEF
:1027C0001E2B51EC100B03F0E3FB53EC182B03F022
:1027D00097F941EC100B02B0BDEC0E8B02B070BD4E
:1027E0000120FDF72AFF02B0BDEC0E8B02B0BDE860
:1027F000704000F05DBCA1489FEDA18B844256DA89
:102800009DED100BB4F1795F0ADA51EC100BFFF774
:102810008BFF042808BF00F05BFC9DED100BDAE78E
:1028200053EC102B51EC100B03F0B2FB41EC190BE5
:1028300095480621B0EE490AF0EE690A784400F0A6
:10284000A7FB53EC192B51EC100B03F0A1FB41EC4F
:102850001A0B8E48B0EE490AF0EE690A042178445A
:1028600000F096FB53EC192B51EC100B03F090FB8E
:1028700053EC182B03F044F941EC100B51EC1A0BFC
:1028800053EC102B03F0F0F9CDE900019DED000BA6
:1028900053EC102B9DED100B51EC100B03F078FB5B
:1028A0009DED101B53EC112B03F02AF9D2E09DEDA6
:1028B000100B51EC100B01F02FFB53EC182B03F015
:1028C00065FC9FED730BCDE9000153EC102B9DEDE2
:1028D000000B51EC100B03F05BFB41EC190B6E4845
:1028E0000621B0EE490AF0EE690A784400F050FB88
:1028F00053EC192B51EC100B03F04AFB41EC1B0B72
:102900006648B0EE490AF0EE690A0421784400F006
:102910003FFB53EC192B51EC100B03F039FB53EC3C
:10292000182B03F0EDF841EC1C0B51EC190B03F0E4
:1029300071F841EC180B5A489FED5BABA04222DCCA
:1029400053EC1C2B51EC1B0B03F08EF9CDE900016D
:102950009DED000B51EC180B53EC102B03F018FB02
:1029600053EC182B03F0CCF853EC1A2B03F010FBAC
:1029700053EC1D2B03F0E2FC53EC1E2B03F006FC82
:1029800041EC100B5FE08DED008B002000909DED81
:10299000000B51EC180B53EC102B03F0B1F89DED2C
:1029A000000B41EC1E0B53EC102B51EC100B03F001
:1029B000EFFA53EC192B03F0E9FB53EC1E2B03F059
:1029C00053F941EC190B53EC1C2B51EC1B0B03F08E
:1029D0004BF941EC1B0B53EC1A2B51EC190B03F088
:1029E000D7FA53EC1D2B03F0D1FB41EC190B53EC40
:1029F0001A2B51EC180B03F0CBFA53EC1B2B03F002
:102A0000C7FA53EC192B03F099FC9DED000B41EC38
:102A1000180B53EC1A2B51EC100B03F0B9FA9FED85
:102A2000249B53EC192B03F0B1FB41EC100B51EC40
:102A3000180B53EC102B03F081FC53EC192B03F013
:102A4000A5FB41EC100B002D3FF7C5AE51EC100B70
:102A500003F017F841EC100BBDE600000000000089
:102A60000000F03F00000000075C143326A6913CF4
:102A7000182D4454FB21F93F0000F07F0000E03F97
:102A8000000000000000F03F306800003E680000D9
:102A9000000000000000E03F826700009067000037
:102AA0003333EF3F00000000000000000000004052
:102AB000182D4454FB21E93F70B59B482DED020BC6
:102AC0002DED068B079D25F00044A04218DC9748A9
:102AD000844202DC0AD1069840B19DED060BBDECA4
:102AE000068B02B0BDE8704000F0CEBA002DCCBF1E
:102AF0009FED8F0B9FED900BBDEC068B02B070BD70
:102B00008F48A04215DD8F48A042D8BF4FF0FF3458
:102B100058DD9DED060B51EC100BFFF705FE042868
:102B200008BF00F0D5FA9DED060BBDEC068B02B098
:102B300070BD9DED060B51EC100B01F0EDF9CDE9E8
:102B4000060181489FED828BA0423CDD8248A04275
:102B50001FDD00249FED82AB9DED060B53EC1A2B7D
:102B600051EC100B02F0CCFF9DED060B41EC190B64
:102B700053EC1A2B51EC100B03F00AFA53EC182B00
:102B800003F0DCFB53EC192B03F06EF8CDE90601E2
:102B900049E09DED060B012453EC182B51EC100B72
:102BA00002F0AEFF9DED060B41EC190B53EC182B18
:102BB00051EC100B03F0C2FB53EC192B03F054F84B
:102BC000CDE906012FE06848A0421FDD02249FEDF9
:102BD000689B9DED060B53EC192B51EC100B03F089
:102BE000D7F953EC182B02F08BFF9DED060B41EC4F
:102BF000180B53EC192B51EC100B03F09FFB53EC0B
:102C0000182B03F031F8CDE906010CE09DED060B21
:102C1000032453EC102B9FED580B51EC100B03F0D9
:102C200023F8CDE906019DED060B53EC102B51EC7A
:102C3000100B03F0ADF941EC180B53EC182B03F01B
:102C4000A7F941EC190B4E480621B0EE490AF0EE07
:102C5000690A784400F09CF953EC182B51EC100BE6
:102C600003F096F941EC180B4648B0EE490AF0EE35
:102C7000690A0521784400F08BF953EC192B51ECCB
:102C8000100B03F085F941EC100B51EC180B53ECD1
:102C9000102B002C0EDA02F033FF9DED061B53ECD7
:102CA000112B03F075F99DED061B53EC112B03F06E
:102CB0006DFA35E002F024FF9DED061B53EC112B5D
:102CC00003F066F941EC100B2F48784400EBC40088
:102CD00090ED001B51EC100B53EC112B03F02EFB6D
:102CE0009DED061B53EC112B03F028FB41EC100B60
:102CF0002648784400EBC40090ED001B51EC100B0B
:102D000053EC112B03F042FA41EC100B002DA2BF43
:102D1000BDEC068B02B070BD51EC100B02F0B1FEA1
:102D200041EC100B01E70000000010440000F07FB0
:102D3000182D4454FB21F93F182D4454FB21F9BFB1
:102D40000000DC3F0000203E0000F33F00000000D8
:102D5000000000000000F03F0000E63F000000001F
:102D60000000000000000040008003400000000060
:102D7000000000000000F83F000000000000F0BF6D
:102D8000D26400008864000012640000CA6300007E
:102D900070B56F4E2DED040B2DED048B82B0DDF878
:102DA00024C0DDE907235C422CF000411C4341EACA
:102DB000D474069D22F00040B44205D86C422C43E6
:102DC00040EAD474B4420BD99DED081B9DED060B6F
:102DD00002B0BDEC048B04B0BDE8704000F05EB9F9
:102DE000ACF14054A4F17F641C430BD0022404EAEC
:102DF000AC7444EAD27405439FED578B9FED582B7A
:102E000007D015E09DED060B51EC100B00F0DAF940
:102E100042E0002C11BF012C9DED060B02B0BDEC71
:102E2000048B04BF04B070BD022C38D0032C3BD0FF
:102E30000B439FED4D1B9FED4E0B0AD0B14218D1B5
:102E4000B04209D121F0804120F0804009910790E3
:102E50000FE0002A15DA10E0474B7B44002C08BF36
:102E600093ED000B0DD0012C10D0022C17D0032CA9
:102E70001AD0B0421DD1002A03DAB0EE410AF0EEBA
:102E8000610A02B0BDEC048B04B070BD93ED000B81
:102E900051EC100B02F0F5FD41EC100BF1E7B0EE38
:102EA000480AF0EE680AECE7B0EE420AF0EE620A79
:102EB000E7E7401A00159FED329B3C28C8BF8DED17
:102EC000000B17DCBCF1000FBCBF10F13C0F8DED07
:102ED000009B0FDB9DED080B53EC102B9DED060BBB
:102EE00051EC100B02F0C0FE01F016F800F06AF988
:102EF000CDE90001B4B1012C10D0022C9FED220BC2
:102F000053EC102B9DED000B51EC100B19D003F07E
:102F100015FA53EC182B03F011FABDE7019880F075
:102F2000004001909DED000B53EC192B51EC100B60
:102F300002F0F2FF04BF0220FDF77FFB9DED000BC6
:102F40009FE703F0FBF953EC182B03F01FF9A3E7FD
:102F50000000F07F00000000182D4454FB210940C0
:102F6000182D4454FB2109C0182D4454FB21F9BFEE
:102F7000182D4454FB21F93FFA62000000000000C4
:102F80000000000000000000075C143326A6A13CEE
:102F900070B504462DED028B4D1E00EBC500B0EE62
:102FA000408AF0EE608A90ED000B35F0060017D0F5
:102FB00053EC182B51EC100B02F0EAFF41EC100B14
:102FC0006D1E04EBC50090ED001B51EC100B53EC93
:102FD000112B02F095FD41EC100B35F00600E7D106
:102FE000022D36D0042D1CD0062D1CBFBDEC028B4B
:102FF00070BD53EC182B51EC100B02F0C9FF94ED8F
:103000000A1B53EC112B02F07BFD53EC182B02F042
:10301000BFFF94ED081B53EC112B02F071FD41EC46
:10302000100B53EC182B51EC100B02F0B1FF94ED88
:10303000061B53EC112B02F063FD53EC182B02F02E
:10304000A7FF94ED040B53EC102B02F059FD41EC5B
:10305000100B53EC182B51EC100B02F099FF94ED70
:10306000021B53EC112B02F04BFD53EC182B02F01A
:103070008FFF94ED001B53EC112B02F041FDBDECD2
:10308000028B41EC100B70BD10B553EC102B51ECC2
:10309000100B02F035FD41EC100B10BD10B553ECD8
:1030A000112B51EC100B02F02BFD41EC100B10BD5D
:1030B0009FED050B10B553EC102B51EC100B02F0EB
:1030C000D3FD41EC100B10BD00000000000000001B
:1030D0009FED050B10B553EC102B51EC100B02F0CB
:1030E00057FF41EC100B10BD000000000000001065
:1030F00030380A2801D2012070470020704700BFF5
:1031000070470000F0B52DED028B83B006460F46E8
:103110000025684600F01AFF002447E056F8241006
:1031200057F82420881A002801DB014600E04142BC
:1031300000EE101AB8EEC00ADFED200A80EE208AF9
:10314000684600EB840090ED000AB5EEC00AF1EE8F
:1031500010FA18D0684600EB8400D0ED000A88EE23
:10316000200AF7EE000A70EE608AB0EEE80A144812
:10317000D0ED090AB4EEE00AF1EE10FA15DD0120F7
:10318000A040054311E00E4890ED070AB4EEC80ACE
:10319000F1EE10FA06DC90ED080AB4EEC80AF1EE82
:1031A00010FA02D20120A0400543641C032CB5DBB9
:1031B000284603B0BDEC028BF0BD00000000804744
:1031C0004084000810B541EC100BFFF775FC51EC82
:1031D000100B10BD2DE9F0410446E07800F0C00668
:1031E000E07800F03F05607800F0010098B1EF1042
:1031F0002846E91705EB5171C910A5EBC101491C1F
:1032000001F0FF080B48006820B10A4841460268F7
:103210003846904700BF607800F0080030B105489C
:10322000406818B1B011034A516888470020BDE8D2
:10323000F08100009805002010B504466FF00400EE
:10324000FEF7F4FBE11704EB5171C1F3C701074A24
:1032500011701046007800EB4001C1EBC0104FF632
:10326000FF7101EAC0000249088010BD1000002073
:103270001200002070B504464FF4077094FBF0F084
:10328000C6B24FF4077094FBF0F100FB114085B219
:1032900005E04FF4077000F02FF8701EC6B2002E44
:1032A000F7D115B1284600F027F870BD0146114A44
:1032B00012784A434FF0E0235A6100229A611A467D
:1032C000126942F001021A6100BF4FF0E02210695A
:1032D00000F001021AB100F48032002AF5D04FF05C
:1032E000E022126922F001024FF0E0231A6100226D
:1032F0009A617047100000200146114A12884A4323
:103300004FF0E0235A6100229A611A46126942F096
:1033100001021A6100BF4FF0E022106900F00102C3
:103320001AB100F48032002AF5D04FF0E022126981
:1033300022F001024FF0E0231A6100229A617047E7
:103340001200002038B5044664B120208DF800003A
:1033500028208DF8010030208DF8020038208DF8EB
:10336000030004E0A32204216846FDF7B7F86A468B
:10337000042140F69E2002F077FA01F061FE38BD8C
:103380003EB5044602208DF80000CA208DF80100E9
:10339000E3208DF8020009208DF803006A4604211D
:1033A000682002F061FAA3208DF8000004F04000CC
:1033B00048B1C0208DF80100C8208DF80200C2205D
:1033C0008DF8030006E0A3208DF801008DF80200BF
:1033D0008DF8030004F4C07048B1C4208DF80400D7
:1033E000CC208DF80500C6208DF8060006E0A3204D
:1033F0008DF804008DF805008DF80600A3208DF8E7
:1034000007008DF808008DF809006A460A2140F689
:10341000A72002F029FA04F0030018B120208DF84B
:10342000000002E0D8208DF800006A46012140F635
:10343000B62002F019FA04F0200018B1012000F0C3
:10344000ADF802E0002000F0A9F804F4C07008B361
:1034500004F4807060B1B2208DF800008B208DF8EC
:103460000100B6208DF802009B208DF803000BE0D0
:10347000B0208DF8000080208DF80100B4208DF878
:10348000020090208DF803006A46042140F6A22035
:1034900002F0EAF904F0010020B3F8208DF80000F2
:1034A0006A4601214FF40B6002F0DEF9FA21072091
:1034B00000F02CFC072000F0F3FB012000F013FCCF
:1034C000642000F003FD4FF4FA7000F012FDC821F3
:1034D000304800F0A3FB282000F0BCFB0A2000F0DD
:1034E000CCFB08E0D8208DF800006A4601214FF49B
:1034F0000B6002F0B9F904F0020018B1D9208DF880
:10350000000002E0D8208DF800006A46012140F258
:103510003D7002F0A9F904F0040018B1012000F098
:1035200069F802E0002000F065F804F0100018B11E
:103530000120FFF707FF02E00020FFF703FF44F040
:1035400008001549488101F07BFD0020124988736D
:1035500004F0400018B10846807B801D887304F495
:10356000C07020B10C48807B801D0B49887304F02B
:10357000140020B10848807B10300749887304F09C
:10358000030020B10448807B001D0349887300209C
:103590003EBD000009E3CA02980500203EB504467E
:1035A0006CB10EA1D1E900208968CDE9002002911B
:1035B0006A4609214FF4976002F056F93EBD0AA20F
:1035C000D2E900109268CDE9010200916A46092112
:1035D0004FF4976002F048F9F0E70000B8AAB38D05
:1035E000B4980D355D000000B8AAAAAAB088C3C57A
:1035F000C700000038B5044664B1C0208DF8000053
:10360000C2208DF80100C4208DF80200C6208DF87C
:10361000030004E08B2204216846FCF75FFF6A4642
:10362000042140F6982002F01FF901F009FD38BD91
:1036300010B5C8234FF48062024940F6F63001F01D
:1036400093FB10BD688400082DE9F04F8DB007464C
:10365000884615469946DDE9166B00240020308027
:103660006B49887B5A4605A901F04AFC18B1601ED7
:103670000DB0BDE8F08F6648807A00F01400002895
:1036800067D09DF8140000069DF8151040EA01402F
:103690009DF8161040EA01209DF817100843286095
:1036A0009DF8180000069DF8191040EA01409DF8A9
:1036B0001A1040EA01209DF81B10084368609DF82D
:1036C0001C0000069DF81D1040EA01409DF81E10E8
:1036D00040EA01209DF81F100843A8609DF82000D3
:1036E00000069DF8211040EA01409DF8221040EAB2
:1036F00001209DF823100843E86004F11000C4B2D3
:10370000286800140190686800140290A8680014EA
:103710000390E8680014049001984043029901FB6B
:103720000100039901FB0100049901FB010ABAF1B0
:10373000706F02DBBAF1885F05DD01F081FC0020CB
:103740003080401E94E7B6F9000040F4807030806D
:1037500000BF2F48807A00F0400020B305A9601C0C
:10376000085C095D40EA012000B2A8F8000005A944
:10377000E01C095C05AAA01C105C41EA002000B214
:10378000A8F8020005A9601D095C201D105C41EA33
:10379000002000B2A8F80400A01DC4B2B6F90000D1
:1037A00040F0080030801A48408900F4C07008B327
:1037B00005A9601C085C095D40EA012000B2388060
:1037C00005A9E01C095C05AAA01C105C41EA0020C8
:1037D00000B2788005A9601D095C201D105C41EADB
:1037E000002000B2B880A01DC4B2B6F9000040F0BD
:1037F000700030800648807A00F0030018B105A9F7
:103800000819FFF7E7FC484600F040FF00202FE7CB
:103810009805002070B588B0064601A801F0F0F8C0
:10382000BDF804000021C90341EA5045C4034448DF
:10383000007A00F0030056F8200005904048007A16
:1038400000F0040010B10598404205903C48007A11
:10385000C0F3C10056F8200006903948007A00F005
:10386000200010B10698404206903548007AC0F317
:10387000811056F8200007903148008900F48070CC
:1038800010B10798404207900598C117A0FB042388
:1038900001FB043100FB0510810041EA92700590A4
:1038A0000698C117A0FB042301FB043100FB05109F
:1038B000810041EA927006900798C117A0FB04238B
:1038C00001FB043100FB0510810041EA9270079072
:1038D0000598000E8DF808000598000C8DF8090079
:1038E0000598000A8DF80A000598C0B28DF80B0003
:1038F0000698000E8DF80C000698000C8DF80D004F
:103900000698000A8DF80E000698C0B28DF80F00D8
:103910000798000E8DF810000798000C8DF8110024
:103920000798000A8DF812000798C0B28DF81300AE
:1039300002AA0C214FF4257001F096FF08B070BD6B
:103940009805002030B585B0044616A207CA02AB20
:1039500007C3C82C03DD4FF0FF3005B030BDC820D1
:1039600090FBF4F0401E85B2280A8DF80000E8B202
:103970008DF801006A46022140F2162001F074FF22
:1039800010B14FF0FF30E8E702AA0C2140F6C12049
:1039900001F06AFF10B14FF0FF30DEE70448848188
:1039A0000020DAE7FEF2ABC4AAF1DFDFBBAFDFDF56
:1039B000980500201FB504464848007A00F003002F
:1039C00054F8200001904548007A00F0040010B13E
:1039D0000198404201904148007AC0F3C10054F878
:1039E000200002903D48007A00F0200010B10298BB
:1039F000404202903948007AC0F3811054F8200008
:103A000003903648008900F4807010B1039840425A
:103A100003903349019880FB0101800F40EA810047
:103A200001902F49029880FB0110820042EA9170B8
:103A300002902B49039880FB0110820042EA9170AA
:103A400003900198000E8DF800000198000C8DF88D
:103A500001000198000A8DF802000198C0B28DF8AB
:103A600003006A4604214FF4747001F0FDFE18B1A2
:103A70004FF0FF3004B010BD0298000E8DF800002A
:103A80000298000C8DF801000298000A8DF80200DF
:103A90000298C0B28DF803006A4604214FF4757095
:103AA00001F0E2FE10B14FF0FF30E3E70398000EA3
:103AB0008DF800000398000C8DF801000398000AAF
:103AC0008DF802000398C0B28DF803006A46042105
:103AD0004FF4767001F0C8FECCE700009805002096
:103AE00009E3CA0210B586B0044647A000680390F7
:103AF00046A00068029046A00068019045A00068BA
:103B0000009004F0030003A9085C8DF8140003A8DA
:103B1000C4F3C101405C8DF8150003A8C4F3811102
:103B2000405C8DF8160004F0030002A9085C8DF8D3
:103B3000100002A8C4F3C101405C8DF8110002A876
:103B4000C4F38111405C8DF8120005AA032140F2F4
:103B5000264001F089FE18B14FF0FF3006B010BDCD
:103B600004AA032140F22A4001F07EFE10B14FF07A
:103B7000FF30F3E7019805900098049004F00400EA
:103B800058B19DF8140040F001008DF814009DF824
:103B9000100040F001008DF8100004F0200058B132
:103BA0009DF8150040F001008DF815009DF81100FA
:103BB00040F001008DF8110004F4807058B19DF8B8
:103BC000160040F001008DF816009DF8120040F03C
:103BD00001008DF8120005AA03214FF4886001F05E
:103BE00043FE10B14FF0FF30B8E704AA032140F2C2
:103BF000314001F039FE10B14FF0FF30AEE706481A
:103C000004810020AAE700004CCD6C000CC92C00F8
:103C1000365676002646660098050020F8B505461B
:103C20000E464FF47A7095FBF0F000FB06F4200E80
:103C30008DF80000200C8DF80100200A8DF802009C
:103C4000E0B28DF803006A4604214FF4AE7001F033
:103C50000BFEF8BD38B50446052094FBF0F084B2A5
:103C600020128DF80000E0B28DF801006A460221B2
:103C70004FF4AD7001F0F8FD38BD38B504460520AD
:103C800094FBF0F084B220128DF80000E0B28DF8C1
:103C900001006A4602214FF4AC7001F0E5FD38BD29
:103CA00038B504460020009004F0010020B19DF8D2
:103CB000000040F03000009004F0020020B19DF8B8
:103CC000000040F00C00009004F0040020B19DF8CA
:103CD000000040F0030000906A4601214FF4A470F8
:103CE00001F0C2FD38BD38B50446012C01DA0124CB
:103CF00002E0042C00DD0424601EC0B200906A467D
:103D0000012140F24F1001F0AFFD38BDF0B52DEDAF
:103D1000028B83B006460F4606F0070010B1B7F5D8
:103D2000C86F05DD4FF0FF3003B0BDEC028BF0BD76
:103D300000EE107AB8EE400ADFED5B0A80EE208AD2
:103D400001A800F037FE9DF80400022806D00428E0
:103D500017D0082828D010284CD138E09FED530AFE
:103D600028EE000ABCEEC00A10EE100A84B29FEDE5
:103D7000500A28EE000ABCEEC00A10EE100A85B206
:103D80003BE09FED4C0A28EE000ABCEEC00A10EEA4
:103D9000100A84B29FED480A28EE000ABCEEC00A61
:103DA00010EE100A85B228E09FED440A28EE000AC2
:103DB000BCEEC00A10EE100A84B29FED410A28EE54
:103DC000000ABCEEC00A10EE100A85B215E09FEDA5
:103DD0003D0A28EE000ABCEEC00A10EE100A84B2BA
:103DE0009FED390A28EE000ABCEEC00A10EE100A58
:103DF00085B202E04FF0FF3096E700BF20128DF849
:103E00000800E0B28DF8090028128DF80A00E8B227
:103E10008DF80B0006F00100A0B102AA02214FF4B8
:103E2000EA7001F021FD10B14FF0FF307CE70DF199
:103E30000A0202214FF4927001F016FD10B14FF00A
:103E4000FF3071E706F00200A0B102AA02214FF490
:103E5000EC7001F009FD10B14FF0FF3064E70DF197
:103E60000A0202214FF4947001F0FEFC10B14FF0F1
:103E7000FF3059E706F00400A0B102AA02214FF476
:103E8000EE7001F0F1FC10B14FF0FF304CE70DF196
:103E90000A0202214FF4967001F0E6FC10B14FF0D7
:103EA000FF3041E700203FE7000048430000804624
:103EB00000004046000000460000C045000080456C
:103EC00000004045000000450000C04438B50446ED
:103ED000052094FBF0F085B228128DF80000E8B2BE
:103EE0008DF801006A4602214FF4EF7001F0BCFC2E
:103EF00038BD38B50446052094FBF0F085B2281291
:103F00008DF80000E8B28DF801006A4602214FF4F6
:103F1000ED7001F0A9FC38BD82B0CDE9000121F0BF
:103F2000004001909DED000B02B051EC100B70476A
:103F300000BF054A128802F04002002AF9D0C2B23E
:103F4000014B9A8070470000001001407CB5054687
:103F50002E494968087801AB04220D21FCF7AFFF18
:103F600008B107207CBD9DF80700C0F301109DF843
:103F7000041001F0E00140EAE1008DF800009DF836
:103F80000700C0F381009DF8051001F0E00140EA50
:103F9000E1008DF801009DF8070000F003009DF896
:103FA000061001F0E00140EAE1008DF80200002473
:103FB00027E01DF8040030B99FED150A05EB8400D9
:103FC00080ED000A1BE09FED130A05EB840080EDF5
:103FD000000A0BE005EB840090ED000ADFED0E0A0D
:103FE00020EE200A05EB840080ED000A1DF8040095
:103FF000401EC0B20DF804000028EBD100BF601CC9
:10400000C4B2032CD5DB0020ACE700003400002054
:10401000000000007B14AE3E1D5A843F2DE9F04F96
:1040200087B005460C46914601208DF8100000200F
:104030008DF81100FE4A1268917CFD4A5268107892
:1040400004AB0222FCF7E1FF20B14FF0FF3007B0D4
:10405000BDE8F08FC820FFF70DF900208DF81000A3
:10406000F34A1268D17BF24A5268107804AB0122FD
:10407000FCF7CBFF10B14FF0FF30E8E7EC4A1268D5
:104080005179EB4A5268107804AB0122FCF7BDFF6E
:1040900010B14FF0FF30DAE7E54A1268917CE44A4C
:1040A0005268107804AB0122FCF7AFFF10B14FF05B
:1040B000FF30CCE7DE4A1268D17DDD4A52681078C5
:1040C00004AB0122FCF7A1FF10B14FF0FF30BEE7B7
:1040D000D74A12681179D64A5268107804AB012287
:1040E000FCF793FF10B14FF0FF30B0E70C208DF8D4
:1040F0001000CF4A12681179CD4A5268107804AB8B
:104100000122FCF782FF10B14FF0FF309FE70F2034
:10411000FFF7B0F8C648806A407A8DF81000C44AAC
:1041200012689178C24A5268107804AB0122FCF7F9
:104130006CFF10B14FF0FF3089E7BD48806A007A0C
:104140008DF81000BA4A12685178B94A526810784E
:1041500004AB0122FCF759FF10B14FF0FF3076E7B6
:10416000B9F1000F07D0B248806A807A40F0E000D1
:104170008DF8100004E0AE48806A807A8DF8100057
:10418000AB4A12689179AA4A5268107804AB0122AE
:10419000FCF73BFF10B14FF0FF3058E7B9F1000FCB
:1041A00007D0A348806AC07A40F0E0008DF8100084
:1041B00003E0A048C07A8DF810009D4A1268D179BA
:1041C0009B4A5268107804AB0122FCF71EFF10B125
:1041D0004FF0FF303BE7B9F1000F02D0C820FFF7E6
:1041E00049F840208DF81000914A12681179904AE0
:1041F0005268107804AB0122FCF707FF10B14FF0B2
:10420000FF3024E778208DF81000894A1268517930
:10421000874A5268107804AB0122FCF7F6FE10B111
:104220004FF0FF3013E783498889FFF723F8002018
:104230008DF810007E4A126851797D4A52681078D4
:1042400004AB0122FCF7E1FE10B14FF0FF30FEE6B7
:10425000774A1268917A764A5268107804AB022243
:10426000FCF72DFE10B14FF0FF30F0E69DF8110085
:104270009DF8101040EA012B0C209BFBF0F0C6B219
:104280000020A86068602860A060606020608246AE
:1042900065E0674A1268D17A654A5268107804ABC3
:1042A0000C22FCF70CFE10B14FF0FF30CFE69DF86A
:1042B00011009DF8101040EA012000B2ADF808008E
:1042C0009DF813009DF8121040EA012000B2ADF8ED
:1042D0000A009DF815009DF8141040EA012000B274
:1042E000ADF80C00BDF90810206808442060BDF945
:1042F0000A10606808446060BDF90C10A0680844AA
:10430000A0609DF817009DF8161040EA012000B249
:10431000ADF800009DF819009DF8181040EA012042
:1043200000B2ADF802009DF81B009DF81A1040EA9B
:10433000012000B2ADF80400BDF90010286808445F
:104340002860BDF90210686808446860BDF904106F
:10435000A8680844A8600AF1010000F0FF0AB2450D
:1043600097DB3448D0F800C02868C117090441EA37
:1043700010410704624600233846FBF77AFF3246B5
:104380000023CDE90201FBF774FF28602948D0F82B
:1043900000C06868C117090441EA10410704624679
:1043A00000233846FBF765FF32460023CDE90201C2
:1043B000FBF75FFF68601F48D0F800C0A868C1170E
:1043C000090441EA10410704624600233846FBF71E
:1043D00050FF32460023CDE90201FBF74AFFA860F7
:1043E0001448D0F804C02068C117090441EA1041FC
:1043F0000704624600233846FBF73BFF32460023A2
:10440000CDE90201FBF735FF20600A48D0F804C06F
:104410006068C117090441EA10410704624600239D
:104420003846FBF726FF32460023CDE9020103E0C0
:104430003400002040840008FBF71BFF6060114837
:10444000D0F804C0A068C117090441EA104107046C
:10445000624600233846FBF70CFF32460023CDE9C5
:104460000201FBF706FFA060A068002804DDA06839
:10447000A0F58030A06003E0A06800F58030A06067
:104480000020E4E540840008F0B52DED048B81B0F8
:1044900006460F4600253E49496808786B460322C8
:1044A0000D21FCF70CFD20B1072001B0BDEC048B01
:1044B000F0BD9DF8000000F01F008DF800009DF891
:1044C000010000F01F008DF801009DF8020000F0CF
:1044D0001F008DF80200002455E056F8241057F80C
:1044E0002420881A002801DB014600E0414200EE4A
:1044F000101AB8EEC00ADFED270A80EE208A1DF8F8
:10450000040068B3244890ED000AB8EE400ADFEDDD
:10451000230A80EE801AF0EE418A05E09FED200A22
:1045200028EE800AF0EE408A1DF80400401EC0B25A
:104530000DF804000028F1D188EE280AF7EE000AF1
:1045400030EE609AB0EEC90A1348D0ED060AB4EE18
:10455000E00AF1EE10FA15DD0120A040054311E05C
:104560000D4890ED040AB4EEC80AF1EE10FA06DC2C
:1045700090ED050AB4EEC80AF1EE10FA02D201205D
:10458000A0400543641C032CA7DB28468DE70000F0
:1045900034000020000080474084000800B04C45F3
:1045A00054E3853F10B50446204600F00FF803465B
:1045B000E01C00F00BF843EAC00083B2A01D00F03D
:1045C00005F843EA801083B2184610BD014691F900
:1045D0000020002A01DD00201EE091F90020002AC1
:1045E00001DA042018E091F90120002A01DD012000
:1045F00012E091F90120002A01DA05200CE091F97E
:104600000220002A01DD022006E091F90220002AA2
:1046100001DA062000E00720704700004FF4A06098
:10462000FCF780FDA820FEF707FE4FF4E130FDF710
:10463000ADFE1548FDF77EF9FCF7E8F9FCF7B6F991
:10464000FCF7CEFDFCF7B4FBFCF7DEF8FDF72EF827
:104650004FF4E130FDF7F0FEFCF70AFD41F61F4193
:10466000A720FDF73BFCFDF715FBFDF7A5FB41F28D
:104670008831A720FDF79EFCF2EE020AB2EE020A94
:10468000FDF708F800BFFEE790000020704700002B
:1046900070B50446002624F00104184890F8240060
:1046A00008B1002070BD1548807A10B94FF0FF3076
:1046B000F8E71248057C807A2040104908740846C3
:1046C000007CA04202D04FF0FF3600E0002614B973
:1046D0000A48007D18B1012001F054F902E00020E1
:1046E00001F050F93CB100F0ABFC20B10348057477
:1046F0004FF0FF30D6E73046D4E70000340000200A
:1047000070B52DED0C8B8EB004460D461646B7EEF7
:10471000000AF0EE409A9FED7C0AB0EE408A9FEDD1
:104720007A0AF0EE408A9FED780AB0EE409A07A828
:1047300008A90DAB03AACDE9001009A90BA8FEF743
:1047400083FF20B101200EB0BDEC0C8B70BDBDF815
:10475000200000F4807000287ED09DED030AB8EEA2
:10476000C00ADFED6A0A80EE201AF0EE419A9DED54
:10477000040AB8EEC00ADFED650A80EE201AB0EE3A
:10478000418A9DED050AB8EEC00ADFED600A80EEB1
:10479000201AF0EE418A9DED060AB8EEC00ADFED60
:1047A0005B0A80EE201AB0EE419AB8EE000A28EEBD
:1047B000000A20EE090AF0EE000A69EEA00A00EEF7
:1047C000A80A10EE101A084601F0A2FE41EC1C0BDC
:1047D000B0EE4C0AF0EE6C0AFDF7BEFFB0EE40BA48
:1047E000F0EE60BA9FED4A0B53EC102B51EC1B0B13
:1047F00001F0CEFB41EC1A0B01F050F92060B8EE4D
:10480000000A28EE000A20EE080AF0EE000A68EE20
:10481000A00A00EEE80AF7EE000A30EE200A10EED9
:10482000101A084601F074FE41EC1C0BB0EE000AB1
:1048300028EE800A20EE090AF0EE000A69EEA00ACE
:1048400000EE880A10EE101A084601F061FE41ECF5
:104850001D0BB0EE4C1A00E052E0F0EE6C1AB0EE18
:104860004D0AF0EE6D0AFEF793FAB0EE40BAF0EEA4
:1048700060BA9FED270B53EC102B51EC1B0B01F092
:1048800087FB41EC1A0B01F009F9286029EEA90A0F
:1048900008EE080A08EEE80A09EE490A10EE101AB6
:1048A000084601F035FE41EC1C0B28EE280A09EE03
:1048B000890AF0EE000A20EE200A10EE101A0846CF
:1048C00001F026FE41EC1D0BB0EE4C1AF0EE6C1A16
:1048D000B0EE4D0AF0EE6D0AFEF75AFAB0EE40BAAD
:1048E000F0EE60BA9FED0A0B53EC102B51EC1B0B52
:1048F00001F04EFB41EC1A0B01F0D0F8306001E002
:10490000022020E700201EE7000000000000804E8B
:104910006666666666A64C4070B5002400F02CF909
:10492000002840D1782000F037FFC4B20CB101203C
:1049300070BD7820FFF7ACFEC4B20CB10220F7E7DF
:10494000642000F0DBFEC4B20CB10320F0E7FEF7F8
:104950006FFEC4B20CB10420EAE71548FFF722FE4F
:104960000546FFF7BFF8C4B20CB10520E0E740F2FE
:104970007310FEF705FDC4B20CB10620D8E7642021
:10498000FEF7E0FFC4B20CB10720D1E700F0B4FF9E
:1049900004460CB10820CBE7012000F0ABFDC4B207
:1049A0001CB10920C4E70A20C2E70020C0E70000CC
:1049B0006000002001461148407A30B1012807D03C
:1049C000022808D003280CD108E0022008700BE070
:1049D0000420087008E00820087005E01020087026
:1049E00002E04FF0FF30704700BF0448C07C18B1B0
:1049F00008784006000E08700020F4E7340000201C
:104A000001461348407A30B1012808D002280AD064
:104A1000032810D10BE04FF4804008800EE041F6EF
:104A20009C7008800AE04FF48050088006E04FF444
:104A30000060088002E04FF0FF30704700BF04487C
:104A4000C07C10B10888401008800020F5E7000005
:104A50003400002001460248007C087000207047A6
:104A60003400002001460F48007A30B1012807D0F9
:104A7000022809D003280FD10AE0FA2008800EE0AE
:104A80004FF4FA7008800AE04FF47A70088006E06C
:104A90004FF4FA60088002E00020088000BF00BFE9
:104AA000002070473400002001461248007A30B1DF
:104AB000012809D002280CD0032814D10EE09FED64
:104AC0000E0A81ED000A11E09FED0C0A81ED000A4B
:104AD0000CE09FED0B0A81ED000A07E09FED090A4B
:104AE00081ED000A02E04FF0FF30704700BF002068
:104AF000FBE7000034000020000003430000834275
:104B0000333303423333834101461248C07A0828C5
:104B100017D2DFE800F01704070A0D101318BC20A5
:104B2000088013E06220088010E02A2008800DE051
:104B3000142008800AE00A20088007E00520088089
:104B400004E000BF00BF0020088000BF00BF0020BD
:104B500070470000340000200146064890F8240009
:104B600010B14FF0FF3070470248C0890880002024
:104B7000F9E70000340000201CB580208DF800000B
:104B8000654A1268917C644A526810786B4601222B
:104B9000FCF73BFA10B14FF0FF301CBD6420FEF76C
:104BA00069FB00208DF800005B4A1268917C5A4A2C
:104BB000526810786B460122FCF727FA10B14FF0CB
:104BC000FF30EAE7544A1268917D534A52681078E0
:104BD0006B460622FCF773F910B14FF0FF30DCE7AB
:104BE0009DF80500C007400F9DF8031001F001017A
:104BF00040EA41009DF8011001F0010140EA010482
:104C000094B1012C03D101214348C17431E0022C3D
:104C100003D100214048C1742BE021463FA0FBF79F
:104C20004DFB4FF0FF30B8E73B4A1268D1783A4A63
:104C3000526810786B460122FCF741F910B14FF031
:104C4000FF30AAE79DF8000000F00F042CB93D48A2
:104C5000FBF734FB4FF0FF309FE7042C06D13AA05E
:104C6000FBF72CFB01212C48C17402E000212A48EB
:104C7000C174FF2128488172FF2027490872FF2153
:104C800025484172C1724FF6FF71C181FF21017445
:104C900081740121017380F82210002180F8231013
:104CA000417501751630016041608160163880F8E9
:104CB000241080F82510C1844FF4FA6000F062FCE3
:104CC00010B14FF0FF3068E7022000F02BFB10B16D
:104CD0004FF0FF3061E72A2000F0CEFC10B14FF01A
:104CE000FF305AE7322000F009FD10B14FF0FF30DD
:104CF00053E70020FFF7CCFC10B14FF0FF304CE73A
:104D0000002000F051FB10B14FF0FF3045E70020CC
:104D100000F042FD002040E734000020556E73751E
:104D200070706F7274656420736F667477617265FA
:104D30002070726F64756374207265762025642E0E
:104D40000A0000006091000848616C662073656E7F
:104D50007369746976697479207061727420666F02
:104D6000756E642E0A0000002DE9F04385B00546FB
:104D70000E4690469946294890F8250020B14FF0FC
:104D8000FF3005B0BDE8F08316B94FF0FF30F8E70B
:104D9000002423E0281B102801DD102000E0281B40
:104DA00087B232193946204600F05EFD10B14FF04F
:104DB000FF30E6E701AA3946204600F001F910B1BC
:104DC0004FF0FF30DDE730193A4601A9FBF75AFBF7
:104DD00010B16FF00100D4E7E01984B2AC42D9DB26
:104DE0004FEA28208DF8000008F0FF008DF8010040
:104DF0000A4A1268917E094A526810786B4602226C
:104E0000FCF703F910B14FF0FF30BAE70121034876
:104E100080F82510A0F826900020B2E7340000208A
:104E200038B50446282C02DD4FF0FF3038BDDCB920
:104E3000002000F0EBFB00208DF8000007208DF82B
:104E400001002E4A1268917C2C4A526810786B46F9
:104E50000222FCF7DAF810B14FF0FF30E6E700214C
:104E6000264801750020E1E7012000F0CFFB20205B
:104E70008DF80000012C06D100208DF801000520DE
:104E800000F0FAFB17E0052C06DC01208DF801008C
:104E9000052000F0F1FB0EE0142C06DC02208DF85A
:104EA00001000A2000F0E8FB05E003208DF8010076
:104EB000142000F0E1FB9DF80100072101EB8010B8
:104EC000C0B28DF801000D4A1268917C0B4A5268FD
:104ED00010786B460222FCF798F810B14FF0FF30C3
:104EE000A4E70821054881720021017301210175A1
:104EF0000020FFF7CDFB002098E7000034000020E1
:104F0000F8B504460F4616462C4890F8240010B910
:104F10004FF0FF30F8BD2948807A10B94FF0FF30CC
:104F2000F8E7264A1268917A244A526810786B464C
:104F30000222FBF7C4FF10B14FF0FF30EAE79DF803
:104F400001009DF8001040EA0125A54203DA002087
:104F50003070401EDEE7194840684088B5EB600FAE
:104F600017DD164A1268517C144A526810786B4655
:104F70000122FBF7A4FF10B14FF0FF30CAE79DF804
:104F8000000000F0100020B100F05AF86FF00100AE
:104F9000C0E7E2B2094B1B68D97A084B5B68187806
:104FA0003B46FBF78CFF10B14FF0FF30B2E795FBAB
:104FB000F4F0401E30700020ACE700003400002008
:104FC000F8B504460D46164616B94FF0FF30F8BD49
:104FD0001A48807A10B94FF0FF30F8E720128DF8A8
:104FE0000000E0B28DF801009DF80100284413494B
:104FF00049684989884202DD4FF0FF30E7E70F4AF0
:105000001268117E0D4A526810786B460222FBF737
:10501000FCFF10B14FF0FF30D9E7EAB2074B1B6835
:10502000597D064B5B6818783346FBF748FF10B193
:105030004FF0FF30CBE70020C9E70000340000202C
:1050400008B57048807A10B94FF0FF3008BD0020D5
:1050500000906C4A1268D17B6A4A526810786B469D
:105060000122FBF7D2FF10B14FF0FF30EEE7654AA7
:1050700012685179634A526810786B460122FBF737
:10508000C4FF10B14FF0FF30E0E75E4A12681179BB
:105090005C4A526810786B460122FBF7B6FF10B1EC
:1050A0004FF0FF30D2E7574890F82400002853D043
:1050B0000C200090534A12681179524A52681078B5
:1050C0006B460122FBF7A1FF10B14FF0FF30BDE7A7
:1050D0003220FEF7CFF8C02000904A48807A00F0D6
:1050E000010020B19DF8000040F020000090454AEA
:1050F00012681179434A526810786B460122FBF717
:1051000084FF10B14FF0FF30A0E73E48407C10B163
:105110000220009001E0002000903A4A1268D17B02
:10512000384A526810786B460122FBF76EFF10B1C7
:105130004FF0FF308AE700200090324A1268517920
:10514000304A526810786B460122FBF75EFF002858
:1051500055D04FF0FF3079E704200090294A1268BB
:105160001179284A526810786B460122FBF74DFFEF
:1051700010B14FF0FF3069E72248807C20B9214808
:10518000807A00F0010010B94020009001E060201A
:1051900000901C4A126811791A4A526810786B46BE
:1051A0000122FBF732FF10B14FF0FF304EE7322003
:1051B000FEF760F81348407C10B10120009001E038
:1051C000002000900F4A1268D17B0E4A5268107876
:1051D0006B460122FBF719FF10B14FF0FF3035E7A6
:1051E000084A12685179074A52681078054B103303
:1051F0000122FBF70AFF10B14FF0FF3026E7002035
:1052000024E70000340000202DE9F04F8DB08346E4
:105210000F4602200C90424890F8240020B1002054
:1052200000F068F9012600E0002603A8FFF71AFC49
:1052300005A8FFF7BFFB01A8FFF766FC02A8FFF770
:105240008BFC374890F80AA004A8FFF703FC002461
:1052500007E0002239465846FEF7E0FE00B902E0BA
:10526000641C022CF5DB00BF022C01D1002528E0D4
:10527000002407E0012206A909A8FEF7CFFE00B925
:1052800002E0641C022CF5DB00BF022C01D10025DA
:1052900017E006A93846FDF735FF00F0FF0809A919
:1052A0005846FFF7F1F800F0FF090025B9F1000FAB
:1052B00001D145F00105B8F1000F01D145F002051B
:1052C00000BFFF2016490872FF2115484172C172C4
:1052D0004FF6FF71C181FF218172017401210173B9
:1052E000BDF80C0000F04EF99DF8140000F01AF81B
:1052F000BDF8040000F0C0F9BDF8080000F0FEF9A8
:10530000504600F049FA9DF81000FFF7C1F916B1B8
:10531000012000F0EFF828460DB0BDE8F08F000046
:105320003400002038B504461E48807A10B94FF08A
:10533000FF3038BD022C06D0042C07D0082C08D032
:10534000102C0CD108E0002000900BE00820009009
:1053500008E01020009005E01820009002E04FF0D7
:10536000FF30E6E700BF0F48407A9DF80010B0EB31
:10537000E10F01D10020DCE70A4A1268D179094A1D
:10538000526810786B460122FBF73FFE10B14FF0D8
:10539000FF30CEE79DF80000C110024841720020A6
:1053A000C7E700003400002038B504465048807C30
:1053B000A04201D1002038BD002C46D04C4A1268D2
:1053C00011794B4A526810786B460122FBF777FD42
:1053D00010B14FF0FF30EEE79DF8000020F0200004
:1053E0000090434A12681179414A526810786B461E
:1053F0000122FBF70AFE10B14FF0FF30DBE703207C
:10540000FDF738FF02200090394890F8220020B1C3
:105410009DF8000040F080000090354890F823008F
:1054200020B19DF8000040F030000090304A126832
:10543000117D2F4A526810786B460122FBF7E5FD7B
:10544000002851D04FF0FF30B5E7294A1268117992
:10545000274A526810786B460122FBF730FD10B1E5
:105460004FF0FF30A7E72248807A00F0010028B112
:105470009DF8000040F02000009004E09DF800003E
:1054800020F0200000901A4A12681179184A5268D8
:1054900010786B460122FBF7B8FD10B14FF0FF30DA
:1054A00089E70320FDF7E6FE114890F8220010B1CD
:1054B0008020009001E0002000900D4890F823002B
:1054C00020B19DF8000040F030000090084A1268BA
:1054D000117D074A526810786B460122FBF795FD53
:1054E00010B14FF0FF3066E701488474002062E796
:1054F0003400002038B50446214890F82400A0422A
:1055000001D1002038BD24B31D4890F8250010B902
:105510004FF0FF30F6E7002000F034FA0020FFF7EC
:1055200043FF1749C88C00F0E9F8002000901449A7
:10553000496808786B4601222321FBF766FD0121AB
:105540000F4880F82410012000F01CFAFFF778FDC6
:1055500013E0002000F016FA0948007C009008498A
:10556000496808786B4601222321FBF74EFD002194
:10557000034880F82410FFF763FD0020C2E7000015
:105580003400002038B504461F48807A10B94FF027
:10559000FF3038BDFA2C09D0B4F5FA7F09D0B4F544
:1055A0007A7F09D0B4F5FA6F0CD108E000200090A2
:1055B0000BE00820009008E01020009005E0182083
:1055C000009002E04FF0FF30E3E700BF0E48007AA2
:1055D0009DF80010B0EBE10F01D10020D9E70A4A95
:1055E00012689179084A526810786B460122FBF7DD
:1055F0000CFD10B14FF0FF30CBE79DF80000C0105C
:10560000014908720020C4E73400002038B5044680
:10561000184890F82300A04201D1002038BD14B1F1
:105620003020009001E0002000901248807C20B1E2
:105630009DF8000040F0020000900E4890F8220013
:1056400020B19DF8000040F080000090094A1268E7
:10565000117D084A526810786B460122FBF7D5FC91
:1056600010B14FF0FF30D9E7024880F82340002006
:10567000D4E700003400002038B504461E48807A84
:1056800010B94FF0FF3038BDBC2C02DB0120009078
:1056900015E0622C02DB0220009010E02A2C02DBD5
:1056A000032000900BE0142C02DB0420009006E0A5
:1056B0000A2C02DB0520009001E0062000900E4835
:1056C000C07A9DF80010884201D10020DBE70A4A29
:1056D00012689178084A526810786B460122FBF7ED
:1056E00094FC10B14FF0FF30CDE79DF80010024858
:1056F000C1720020C7E700003400002038B504461E
:105700002448807A10B94FF0FF3038BD214890F816
:10571000240010B14FF0FF30F7E71E48007D50B174
:1057200034B1282C04DCE0B2FFF77AFB0020ECE770
:105730000020FFF775FB042C01DA042404E0B4F523
:105740007A7F01DD4FF47A744FF47A7090FBF4F0B5
:10575000401EC0B200900F4A126851780D4A52683C
:1057600010786B460122FBF750FC10B14FF0FF3070
:10577000CBE79DF80000401C4FF47A7191FBF0F0EC
:1057800081B20448C1810146C9894810FFF774FFFE
:105790000020BAE73400002038B5044604F0700059
:1057A00010B10120009005E014B10020009001E04C
:1057B000402000902B4A1268917C2A4A5268107847
:1057C0006B460122FBF721FC20B1002125488172A4
:1057D000481E38BD9DF8000020F0400121480173AB
:1057E0000020009004F0400020B99DF8000040F037
:1057F0000400009004F0200020B99DF8000040F063
:105800000200009004F0100020B99DF8000040F064
:105810000100009004F0080020B99DF8000040F05D
:10582000380000900F4A1268D17C0E4A52681078F6
:105830006B460122FBF7E9FB20B100210948817288
:10584000481EC6E724B1082C02D00020FFF7DEFE78
:1058500004488472002101753220FDF70BFD002001
:10586000B7E7000034000020F8B504460D461646A0
:1058700016B94FF0FF30F8BD1A48807A10B94FF0D2
:10588000FF30F8E720128DF80000E0B28DF801003B
:105890009DF801002844134949684989884202DD7E
:1058A0004FF0FF30E7E70F4A1268117E0D4A526849
:1058B00010786B460222FBF7A8FB10B14FF0FF30C7
:1058C000D9E7EAB2074B1B68597D064B5B6818782D
:1058D0003346FBF79AFB10B14FF0FF30CBE70020C7
:1058E000C9E70000340000200146002901DD0A4616
:1058F00000E04A421046704730B587B001A904A8BD
:10590000FFF782FC0546032D39D16846FFF7CCF836
:105910009DED040AB8EEC00ADDED000A20EE200A73
:10592000BDEEC00A8DED040A9DED050AB8EEC00A71
:10593000DDED000A20EE200ABDEEC00A8DED050A5D
:105940009DED060AB8EEC00ADDED000A20EE200A41
:10595000BDEEC00A8DED060A04A8FEF72BF8002460
:10596000019860430190029860430290039860435D
:10597000039001A8FDF74EFF002007B030BD0120C5
:10598000FBE7000038B50446214890F82400C0B178
:1059900014B10220009001E0002000901C4A12681F
:1059A000D17B1B4A526810786B460122FBF72DFB16
:1059B00010B14FF0FF3038BD9DF80010144841740D
:1059C00023E01348807A10B94FF0FF30F3E724B199
:1059D0000F48407C08B10020EDE714B10120009091
:1059E00001E0002000900A4A1268D17B084A526800
:1059F00010786B460122FBF708FB10B14FF0FF3027
:105A0000D9E79DF80010024841740020D3E7000058
:105A10003400002000B52DED048B83B041EC190B50
:105A200000F0C0FB41EC180B18EE100A18EE901AAB
:105A30008DED008B002818BF0120084320F00040A6
:105A4000C0F17F6000F1E040C00F14D019EE101AD1
:105A500019EE900A8DED009B002918BF0121084323
:105A600020F00040C0F17F6000F1E040C00F04BFB3
:105A70000120FAF7E2FD51EC180B03B0BDEC048BEA
:105A800000BD81F00041704780F00040704721F078
:105A90000041704720F000407047000021F00042B4
:105AA000A2F16052B2F5801F01F0004328BFD2F18D
:105AB0007F6C0BD95FEA001C43EAC20242EB5070D4
:105AC00018BF704728BF20F001007047B2F5801F53
:105AD000BCBF184670474FEA410C1CF5001F02D2AC
