:020000040800F2
:10000000480700202902000821040008CF03000847
:10001000D3030008D9020008CF1000080000000038
:10002000000000000000000000000000FD050008C6
:10003000EB02000800000000B104000815070008EA
:10004000430200084302000843020008430200087C
:10005000430200084302000843020008430200086C
:10006000430200084302000843020008430200085C
:10007000430200084302000843020008430200084C
:10008000430200084302000843020008430200083C
:10009000430200084302000843020008430200082C
:1000A000430200084302000843020008430200081C
:1000B000A3080008E5090008ED0A0008430200084B
:1000C00043020008430200084302000843020008FC
:1000D00043020008B10E0008430200084302000872
:1000E00043020008430200084302000843020008DC
:1000F00043020008430200084302000843020008CC
:1001000043020008430200084302000843020008BB
:1001100043020008430200084302000843020008AB
:10012000430200084302000843020008430200089B
:10013000430200084302000843020008430200088B
:10014000430200084302000843020008430200087B
:10015000430200084302000843020008430200086B
:10016000430200084302000843020008430200085B
:10017000430200084302000843020008430200084B
:10018000430200084302000800F002F800F03CF8C7
:100190000AA090E8000C82448344AAF10107DA45E2
:1001A00001D100F031F8AFF2090EBAE80F0013F0F8
:1001B000010F18BFFB1A43F0010318473810000065
:1001C00058100000103A24BF78C878C1FAD85207F6
:1001D00024BF30C830C144BF04680C6070470000C1
:1001E0000023002400250026103A28BF78C1FBD840
:1001F000520728BF30C148BF0B6070471FB500F0E1
:10020000F3FF1FBD10B510BD00F033F81146FFF726
:10021000F5FF00F07FFF00F051F803B4FFF7F2FFA5
:1002200003BC00F056FF000009488047094800471A
:10023000FEE7FEE7FEE7FEE7FEE7FEE7FEE7FEE796
:10024000FEE7FEE704480549054A064B70470000F3
:10025000190700088901000848010020480700200C
:1002600048030020480300207047704770477047DC
:100270007047754600F02CF8AE46050069465346B7
:1002800020F00700854618B020B5FFF7DBFFBDE87A
:1002900020404FF000064FF000074FF000084FF0ED
:1002A000000B21F00701AC46ACE8C009ACE8C0097E
:1002B000ACE8C009ACE8C0098D46704710B50446EB
:1002C000AFF300802046BDE81040FFF7A6BF000056
:1002D00000487047E400002000BFFEE710B541F27F
:1002E0008831532000F0DEFA10BD704710B500F0E1
:1002F00003FB00F085FB10BDF0B50A46002100238A
:10030000002400BF3DE0012505FA01F3156805EA68
:1003100003049C4234D105684F000326BE40B54318
:10032000056015794E00B5400668354305601579BE
:10033000012D02D01579022D16D185684F000326B4
:10034000BE40B543856055794E00B540866835435B
:100350008560456801268E40B543456045689679BD
:100360008E40B6B235434560C5684F000326BE4097
:10037000B543C560D5794E00B540C6683543C56004
:10038000491C1029BFD3F0BDF0B5002300244D0750
:10039000ED0E02FA05F3CE1000F1200555F82650B7
:1003A0004E07F70E0F26BE40B543CF1000F12006D2
:1003B00046F82750CE1000F1200555F8265045EAA2
:1003C0000304CE1000F1200545F82640F0BD00BF23
:1003D000FEE700BFFEE710B500F006F841F61F414A
:1003E000A72000F091FB10BD1CB50121402000F0BA
:1003F00061F84FF4F070009001208DF804000020A7
:100400008DF8060003208DF8050001208DF8070007
:1004100069460248FFF770FF1CBD0000001802404B
:100420007047000070B5002100230F22C4781CB370
:10043000174C246804F4E064C4F5E064C4F30721B5
:10044000C1F10404E3B20A4144789C40E1B28478EB
:10045000144021430C07210E0E4C05786155047899
:1004600004F01F050124AC4005786D11AD0005F1C5
:10047000E025C5F8004109E0047804F01F050124D7
:10048000AC40054D0678761145F8264070BD000059
:100490000CED00E000E400E080E100E002490143EF
:1004A000024A1160704700000000FA050CED00E000
:1004B0007047000029B1064A12680243044B1A60D3
:1004C00004E0034A12688243014B1A60704700003F
:1004D0003038024029B1064A12680243044B1A60C0
:1004E00004E0034A12688243014B1A60704700001F
:1004F0004038024029B1064A12680243044B1A6090
:1005000004E0034A12688243014B1A6070470000FE
:1005100044380240F0B500210022002402250026C4
:100520000223324F3F6807F00C0121B1042905D0A6
:10053000082937D105E02E4F076036E02D4F0760C0
:1005400033E02A4F3F1F3F68C7F38056274F3F1FB6
:100550003F6807F03F036EB1264FB7FBF3F7DFF8B4
:100560008CC0ACF1040CDCF800C0CCF3881C07FB99
:100570000CF40CE01E4FB7FBF3F7DFF870C0ACF1E2
:10058000040CDCF800C0CCF3881C07FB0CF4174FFC
:100590003F1F3F68C7F301477F1C7D00B4FBF5F7A1
:1005A000076002E0124F076000BF00BF0F4F3F68B7
:1005B00007F0F0010909104F7A5C0768D7404760DF
:1005C0000A4F3F6807F4E051890A0B4F7A5C47688D
:1005D000D7408760054F3F6807F46041490B064FDD
:1005E0007A5C4768D740C760F0BD00000838024019
:1005F0000024F40000127A00000000207047000080
:100600000CB50020019000903448006840F4803020
:100610003249086000BF3148006800F400300090A3
:100620000198401C0190009818B90198B0F5A04FAE
:10063000F1D12A48006800F4003010B10120009088
:1006400001E0002000900098012846D12348403066
:10065000006840F08050214940310860204800681F
:1006600040F440401E4908601C48083000681B499F
:10067000083108600846006840F4004008600846F9
:10068000006840F4A05008601648091F0860081F61
:10069000006840F08070091F086000BF0F480068C4
:1006A00000F000700028F9D040F205700E49086093
:1006B0000A480830006820F0030008490831086043
:1006C0000846006840F00200086000BF0348083098
:1006D000006800F00C000828F8D10CBD003802407A
:1006E0000070004008544007003C0240042808D134
:1006F0004FF0E021096941F004014FF0E02211615F
:1007000007E04FF0E021096921F004014FF0E022F9
:10071000116170477047000010B51548006840F43B
:100720007000134908601348006840F00100114947
:10073000086000200F49083108600E4800680E4923
:1007400008400C4908600D48091D0860081F006832
:1007500020F48020091F0860002006490C31086041
:10076000FFF74EFF4FF0006001498039086010BD6F
:1007700088ED00E000380240FFFFF6FE1030002454
:10078000F0B50C46154600210022068C4FF6FE7788
:100790003E400684018B028C4FF60C7631407E1C65
:1007A00006EA03162E4331434FF6F576324044F005
:1007B0000106324301830284F0BDF0B50C461546B4
:1007C000002100220026078C4FF6EF7C07EA0C0779
:1007D0000784018B028C4FF6FF7707EA041640F678
:1007E000FF4739404FF6FF7707EA033739434FF6A3
:1007F000FF7707EA052739434FF65F773A4046F01F
:1008000010073A4301830284F0BDF0B50C4615464B
:10081000002100220026078C4FF6FF6C07EA0C0728
:100820000784818B028C4FF6FF7707EA04264FF688
:100830000C7739404FF6FF7707EA03172F43394308
:100840004FF2FF573A4046F480773A43818302845F
:10085000F0BDF0B50C461546002100220026078C9D
:100860004EF6FF7C07EA0C070784818B028C4FF65B
:10087000FF7707EA043640F6FF4739404FF6FF7727
:1008800007EA052739434FF6FF7707EA033739436D
:1008900045F6FF773A4046F480573A438183028415
:1008A000F0BD70477FB504460D4601210846FFF7AD
:1008B00011FE0020ADF80600ADF80C000295A0B2C4
:1008C000ADF8040001A94FF0804000F0AFFA1C2001
:1008D0008DF8000000208DF801008DF80200012045
:1008E0008DF803006846FFF79DFD01221146900731
:1008F00000F0D4F97FBD000000B589B001210846A1
:10090000FFF7D8FD01210220FFF7E4FDC02007908A
:1009100002208DF8200000208DF8220003208DF8A1
:10092000210000208DF8230007A92C48FFF7E4FCE4
:10093000022206212948FFF727FD02220721274826
:10094000FFF722FD0020ADF81200ADF818004FF6B9
:10095000FE7005900020ADF8100004A9204800F0BA
:1009600065FA0020ADF804000320ADF80C0000206B
:10097000ADF80600ADF80A000120ADF8080001A9A5
:10098000174800F054F90420ADF804000320ADF836
:100990000C000020ADF80600ADF80A000120ADF80B
:1009A000080001A90E4800F042F900231A4603216D
:1009B0000B4800F00AF90121094800F0F7F801227C
:1009C0001146074800F06AF90021054800F000FAD6
:1009D0000121034800F0EDF809B000BD000002401D
:1009E0000004004010B50121044800F00FF918B1CF
:1009F0000121024800F0DAF810BD000000040040B8
:100A000000B589B001210220FFF754FD0121042027
:100A1000FFF760FDC020079002208DF82000002025
:100A20008DF8220003208DF8210000208DF823008E
:100A300007A92C48FFF760FC022206212948FFF78E
:100A4000A3FC022207212748FFF79EFC0020ADF8F7
:100A50001200ADF818004FF6FE7005900020ADF8BA
:100A6000100004A9204800F0E1F90020ADF80400CE
:100A70000320ADF80C000020ADF80600ADF80A0028
:100A80000120ADF8080001A9174800F0D0F80420B3
:100A9000ADF804000320ADF80C000020ADF806000E
:100AA000ADF80A000120ADF8080001A90E4800F0D9
:100AB000BEF800231A4603210B4800F086F80121F6
:100AC000094800F073F801221146074800F0E6F8E3
:100AD0000021054800F07CF90121034800F069F885
:100AE00009B000BD000402400008004010B501211B
:100AF000044800F08BF818B10121024800F056F8C4
:100B000010BD00000008004030B58BB004460D4613
:100B100001210420FFF7CEFC01210220FFF7EAFCAF
:100B2000C020099002208DF8280000208DF82A00AE
:100B300003208DF8290001208DF82B0009A9194800
:100B4000FFF7DAFB032206211648FFF71DFC0322FC
:100B500007211448FFF718FC0020ADF81A00ADF883
:100B600020000795ADF8184006A90F4800F05EF97F
:100B70006020ADF804000020ADF810000120ADF8B1
:100B800006000020039001A9074800F091F801A990
:100B9000054800F0CBF80121034800F00AF80BB03B
:100BA00030BD00000008024000040140CA43028238
:100BB000704721B1028842F00102028004E00288FD
:100BC0004FF6FE731A4002807047F0B50C4615468A
:100BD0001E460021002200230189028B038C4FF660
:100BE000F877394021434FF6FC473A4040F201176D
:100BF0003A434FF6DD773B404FF6FF7707EA06179B
:100C00002F433B43018102830384F0BD30B502468C
:100C1000002000230024158A05EA0103958905EACE
:100C2000010413B10CB1012000E0002030BD70B50B
:100C300005460C46208850B92389A2886188284639
:100C4000FFF79EFDE188284600F0C4F825E02088E3
:100C500004280AD12389A28861882846FFF7ADFDC0
:100C6000E188284600F0BFF817E0208808280AD15C
:100C70002389A28861882846FFF7C7FDE1882846B6
:100C800000F0BEF809E02389A28861882846FFF7B2
:100C9000E0FDE188284600F0BCF870BD1AB18389F8
:100CA0000B43838102E083898B438381704700007B
:100CB00070B5002400220023058C4FF6FE763540E7
:100CC0000584028C8388048B4FF68F752C40B51EEB
:100CD0002C400D882C43751E2A408D892A434D884F
:100CE0002A43104DA84202D00F4DA84213D14FF60F
:100CF000F7752A40CD892A434FF6FB752A408D8827
:100D00002A434FF6FF652B404FF6FF552B400D8AC7
:100D10002B434D8A2B43838004838D684563028473
:100D200070BD0000000001400004014070B50024C7
:100D300000220023058C4FF6EF7635400584028CA7
:100D40008388048B48F6FF752C404FF6FF452C40F6
:100D50000D884FF6FF7606EA05252C434FF6DF7522
:100D60002A408D8906EA05152A434D8806EA0515AD
:100D70002A43154DA84202D0144DA8421DD14FF66A
:100D80007F752A40CD894FF6FF7606EA05152A437E
:100D90004FF6BF752A408D8806EA05152A434FF69F
:100DA000FF352B404FF2FF752B400D8A06EA850573
:100DB0002B434D8A06EA85052B43838004838D6887
:100DC0008563028470BD0000000001400004014002
:100DD00041627047028B4FF6F3731A400283028B15
:100DE0000A4302837047028B4FF2FF331A4002839B
:100DF000028B4FF6FF7303EA01231A430283704705
:100E0000828B4FF6F3731A408283828B0A4382836C
:100E10007047828B4FF2FF331A408283828B4FF6EA
:100E2000FF7303EA01231A4382837047002202887A
:100E3000184B98420ED0184B98420BD0B0F1804F0F
:100E400008D0164B984205D0154B984202D0154B4E
:100E5000984204D14FF68F731A404B881A43124BB5
:100E6000984207D0114B984204D04FF6FF431A40E6
:100E70000B891A4302804B68C3620B880385054BBC
:100E8000984202D0044B984201D18B7A0386012309
:100E900083827047000001400004014000040040CC
:100EA00000080040000C004000100040001400400A
:100EB00010B540F225511D4800F04AF810B31B4808
:100EC00000F000F9C4B21A48008800F40040C8B924
:100ED0001748008800F4804060B10A2C03D000203D
:100EE0001349088020E01248008840F4004010496F
:100EF000088019E00D2C06D10D48008840F4804090
:100F00000B49088010E00A480088C0F30D00094929
:100F10000C5407480088401C054908800846008892
:100F2000C72801DD0020088010BD0000001001402E
:100F3000180000201C00002021B1828942F40052D8
:100F4000828104E082894DF6FF731A4082817047E6
:100F500070B50246002400230025002040F66A16E2
:100F6000B14200D100BFC1F3421501F01F030126B9
:100F700006FA03F3012D02D19689334006E0022DD3
:100F800002D1168A334001E0968A33400C120126C2
:100F900006FA04F41688344013B10CB1012000E0C5
:100FA000002070BDF0B50346002400260025002077
:100FB00040F66A17B94200D100BF1846C1F3421487
:100FC00001F01F06012707FA06F5012C01D10C30AC
:100FD00004E0022C01D1103000E014301AB107688F
:100FE0002F43076002E00768AF430760F0BD0000D1
:100FF0002DE9FF4705460E460024A14600BFA04646
:10100000B08900B100BF2C8A24F44054F088044316
:101010002C82AC8941F20C608443B088318908434A
:10102000718908430443AC81AC8A24F44074B089CC
:101030000443AC826846FFF76DFA2048854202D02F
:101040001F48854202D1DDF80C9001E0DDF80890E0
:10105000A88900F4004040B109EBC90000EB091079
:1010600031684900B0FBF1F707E009EBC90000EB7C
:10107000091031688900B0FBF1F76420B7FBF0F08C
:1010800004012009642101FB1078A88900F40040C4
:1010900040B1322000EBC800B0FBF1F000F00700D7
:1010A000044308E0322000EB08106421B0FBF1F0AB
:1010B00000F00F0004432C81BDE8FF8700100140C1
:1010C0000014014001468888C0F30800704700BF43
:1010D000FEE700BF7047000010B504466FF0040043
:1010E000FFF704FBE11704EB5171C1F3C701074A95
:1010F00011701046007800EB4001C1EBC0104FF6B4
:10110000FF7101EAC0000249088010BD10000020F4
:10111000120000204FF4A060FFF7C0F9A820FFF7ED
:10112000DBFF4FF4E13000F009F8FFF754F9FFF767
:10113000DDF8FFF7D3F800BFFEE7000010B588B078
:10114000044601210846FFF7B5F901211020FFF7F9
:10115000D1F9072209212248FFF716F907220A21AF
:101160001F48FFF711F94FF4C060069002208DF878
:101170001C008DF81D0000208DF81E0001208DF848
:101180001F0006A91648FFF7B7F802940020ADF833
:101190000C00ADF80E00ADF81000ADF814000C20F6
:1011A000ADF8120002A90F48FFF722FF01210D48F8
:1011B000FFF7C2FE012240F225510A48FFF7F2FE76
:1011C00025208DF8040003208DF805008DF8060019
:1011D00001208DF8070001A8FFF724F908B010BD21
:1011E00000000240001001404FF04070E1EE100A94
:1011F0007047000014120008000000201C000000CE
:10120000C4010008301200081C0000202C07000058
:10121000E0010008000000000102030401020304D1
:1012200006070809000000000000000000000000A0
:040000050800018965
:00000001FF
