:020000040800F2
:10000000D8080020A1010008AF010008B1010008D4
:10001000B3010008B5010008B701000800000000A6
:10002000000000000000000000000000B90100080E
:10003000BB01000800000000BD010008BF0100086E
:10004000C1010008C1010008C1010008C101000888
:10005000C1010008C1010008C1010008C101000878
:10006000C1010008C1010008C1010008C101000868
:10007000C1010008C1010008C1010008C101000858
:10008000C1010008C1010008C1010008C101000848
:10009000C1010008C1010008C1010008C101000838
:1000A000C1010008C1010008C1010008C101000828
:1000B000C1010008C1010008C1010008C101000818
:1000C000C1010008C1010008C1010008C101000808
:1000D000C101000839360008C1010008C10100084B
:1000E000C1010008C1010008C1010008C1010008E8
:1000F000C1010008C1010008C1010008C1010008D8
:10010000C1010008C1010008C1010008C1010008C7
:10011000C1010008C1010008C1010008C1010008B7
:10012000C1010008C1010008C1010008C1010008A7
:10013000C1010008C1010008C1010008C101000897
:10014000C1010008C1010008C1010008C101000887
:10015000C1010008C1010008C1010008C101000877
:10016000C1010008C1010008C1010008C101000867
:10017000C1010008C1010008C1010008C101000857
:10018000C1010008C1010008DFF810D000F0EAFA50
:100190000048004725410008AFF30080D808002040
:1001A0000848016841F47001016007480047FEE714
:1001B000FEE7FEE7FEE7FEE7FEE7FEE7FEE7FEE717
:1001C000FEE7000088ED00E0890100082DE9FE4F00
:1001D000804681EA0300C00F0C46009021F00041E8
:1001E00023F00045B8EB0200A94105D24046214664
:1001F00090461C460B46024623F00040104347D071
:10020000270DC7F30A00C3F30A510290401A019068
:1002100040286BDAC3F3130040F4801B0098924629
:1002200020B10023D2EB030A63EB0B0B0198594674
:10023000C0F14002504600F0CFF906460D46504648
:100240005946019A00F0E7F910EB080061410024DB
:1002500087EA115284EAE7731A4340D0009A62B3E6
:10026000019A012A4FEA075215DC001B61EB0201DB
:100270004FF0004202EA0752CDE90042001C41F56E
:10028000801132462B4600F01EFA03B0BDE8F08F15
:1002900040462146F9E7001B61EB0201001C41F5D5
:1002A000801300185B412018A2F5001747EB0301EB
:1002B00040EAD570B6196D4111E06D084FEA360677
:1002C00045EAC0754FEA0752001B61EB0201001CB2
:1002D00041F5801149084FEA30000019514132467A
:1002E0002B4603B0BDE8F04F00F0DEB900980122C4
:1002F00040000023D0EB020263EBE073009821463C
:100300004FEAE074B8EB000061EB0401E9E783F029
:1003100000435BE781F0004158E72DE9FE4F81EA99
:10032000030404F0004421F0004100944FF0000B5E
:1003300023F0004350EA01045ED052EA03045BD08C
:10034000C3F30A54C1F30A552C44A4F2F3340194C4
:10035000A0FB0254C1F3130141F48011C3F3130352
:1003600043F4801301FB024400FB034E840A970A06
:1003700044EA815447EA8357A4FB076802958D0A33
:1003800005FB07854FEA932C04FB0C542705029DBF
:100390004FEA065847EA1637B5EB08056EEB070C2F
:1003A000870E920E47EA811742EA8312A7FB0201E9
:1003B000B6EB0B0164EB00042B0D43EA0C335E1823
:1003C00044EB1C50DA465146E7FB0201C5F3130427
:1003D0004FEA0B3343EA14534FEA0432019C43EAD9
:1003E0000603A4F10C040294009CCDE900B400F0D3
:1003F0006AF903B0BDE8F08F00200146F9E72DE966
:10040000F04D81EA030404F0004B21F0004514464E
:100410004FF0000A23F0004150EA050220D054EAD0
:1004200001021DD0C5F30A570246C5F31303C1F3F9
:100430001300C1F30A5640F4801543F48013A7EB70
:100440000608101BD64608F2FD3873EB050002D3F0
:1004500008F1010801E092185B41B8F1000F03DADE
:1004600000200146BDE8F08D00204FF480110646C3
:1004700084460EE0171B73EB050705D3121B63EBD5
:10048000050306434CEA010C49084FEA3000921874
:100490005B4150EA0107EDD152EA030012D082EA33
:1004A000040083EA0501084305D0101BAB4106D2C6
:1004B0000122002306E000224FF0004302E06FF02B
:1004C000010253101AEB06004CEB085110EB0A0026
:1004D00041EB0B01BDE8F04D00F0E6B80EB5C10FE1
:1004E00080EAE0700844CA07002140F233438DE8F7
:1004F0000E000A460B4600F0E6F803B000BD0EB54C
:1005000040F2334102910021CDE900110A460B4629
:1005100000F0D9F803B000BDC1F30A5210B5C1F321
:10052000130140F2FF3341F480119A4201DA0020B6
:1005300010BD40F233439A42A2F2334203DC5242EE
:1005400000F059F810BD904010BD00F0004230F0AE
:1005500000400AD0C10D01F56071C0F3160042EAF7
:100560000151C208400711437047002001467047FF
:1005700030B5041E71F1000404DB4FF0004440422A
:1005800064EB0101141E73F1000405DB1C464FF0FF
:100590000043524263EB04038B4208BF824230BDEA
:1005A00001F0004330B421F0004150EA010206D0CE
:1005B0000A0DA2F56072C1F31301002A02DC30BCFF
:1005C00000207047440F44EAC104C100E01830BC69
:1005D00000EBC25000F031B8202A04DB203A00FAC8
:1005E00002F1002070479140C2F1200320FA03F38A
:1005F000194390407047202A04DB203A21FA02F088
:100600000021704721FA02F3D040C2F1200291404C
:10061000084319467047202A06DBCB17203A41FAD7
:1006200002F043EAE07306E041FA02F3D040C2F17F
:10063000200291400843194670470029A8BF70471F
:10064000401C490008BF20F00100704710B4B0FA08
:1006500080FC00FA0CF050EA010404BF10BC7047A3
:1006600049B1CCF1200421FA04F411FA0CF118BFBD
:10067000012121430843A3EB0C01CB1D4FEA00618C
:100680004FEA102042BF002010BC704700EBC3505F
:1006900010440029A4BF10BC7047401C490008BF8B
:1006A00020F0010010BC704710B5141E73F1000457
:1006B00008DA401C41F1000192185B411A4301D154
:1006C00020F0010010BD2DE9F04D92469B4611B17E
:1006D000B1FA81F202E0B0FA80F220329046FFF7E0
:1006E0007BFF04460F4640EA0A0041EA0B015346ED
:1006F0005A46084313D0114653EA010019D0C8F1F5
:1007000040025046FFF777FF05460E4650465946D1
:100710004246FFF761FF084305D0012004E0204670
:100720003946BDE8F08D0020054346EAE0762C43CB
:1007300037430A986305E40AA0EB08000022FD0A8B
:1007400044EA47540A3002D500200146E9E7010592
:1007500010196941DDE9084500196941BDE8F04D0E
:10076000A2E70000064C074D06E0E06840F00103F8
:1007700094E8070098471034AC42F6D3FFF708FD21
:10078000684200088842000870B5C1F30A5201F0BF
:1007900000450024C1F3130140F2FF3341F48011FE
:1007A0009A4201DA002070BD40F233439A42A2F22D
:1007B000334203DC5242FFF71EFF00E090402C431F
:1007C000F1D0404270BD1CB501201E233C221F21E8
:1007D00000903F2002F0D4FC01201E233C221F2168
:1007E00000903F2002F042FB012014231E221F2113
:1007F00000903F2001F006FE0120B42114231E22A8
:10080000CDE900101F213F2002F02CFC0120B42173
:1008100014231E22CDE900101F213F2002F08AFC84
:100820000120B42114231E22CDE900101F213F20F6
:1008300002F03EFC01201E233C221F2100903F209D
:1008400002F0F8FC01201E233C221F2100903F20D3
:1008500002F0BDFB01201E233C221F2100903F20FF
:1008600001F07BFD1CBD428B01238B401A43428368
:100870007047028B01238B401A43028370470000AC
:100880004A0A52020243014B1A60704708ED00E029
:1008900070B500240CE0002506E00020074901EBBC
:1008A000C5010855681CC5B2802DF6DB601CC4B2BA
:1008B000082CF0DB01F020FD70BD0000D800002006
:1008C0002DE9F0432DED108B87B006460F461546F7
:1008D0001C46DDE91E890020069060B28DF81900E3
:1008E0006042FFF7FBFD41EC1E0B9FEDAE0B53EC9E
:1008F000102BFFF76BFC41EC1C0B05FB05F0FFF721
:10090000EDFD41EC1D0B53EC1C2BFFF706FD41ECFC
:100910001A0B04FB04F0FFF7E1FD41EC1B0B53EC59
:100920001A2BFFF753FC41EC190BFFF739FE08EEC9
:10093000900ACDE900899DF91900C3199DF91800A5
:1009400082193946304600F0F7FB4AE0F5EEC08ADE
:10095000F1EE10FA15D804FB04F09DF918104900C7
:10096000C91C484300EE100AB8EEC00A30EE280A4F
:10097000F0EE408A9DF81800401C40B28DF8180037
:1009800023E004FB04F09DF918104900C91C4843FA
:1009900005FB05F19DF919205200C2F1020201FB8D
:1009A000020000EE100AB8EEC00A30EE280AF0EE9F
:1009B000408A9DF81800401C40B28DF818009DF840
:1009C0001900401E40B28DF81900CDE900899DF94B
:1009D0001900C3199DF9180082193946304600F0F4
:1009E000ABFB9DF91900FFF779FD41EC1D0B9FED65
:1009F0006F0B53EC102BFFF78AFC41EC1B0B05FB34
:100A000005F0FFF76BFD41EC1C0B53EC1B2BFFF7C4
:100A100084FC41EC190B04FB04F19DF91820521CD5
:100A200001FB02F0FFF75AFD41EC1A0B53EC192BB6
:100A3000FFF79EFD8AD305FB05F1614301FB04F03E
:100A4000FFF74CFD41EC190B05FB05F19DF9192051
:100A5000521E51439DF91920521E01FB02F0FFF76F
:100A60003DFDCDE900019DF91800FFF737FD41EC90
:100A70001D0B9FED4E0B53EC102BFFF7A7FB41EC2A
:100A80001B0B9DF91800FFF729FD41EC1F0B9FED93
:100A9000470B53EC102BFFF799FB41EC1D0B04FBAC
:100AA00004F0FFF71BFD41EC1E0B53EC1D2BFFF771
:100AB00034FC41EC1C0B53EC1B2BFFF72EFC41ECE0
:100AC0001A0B9DED000B53EC102BFFF77FFB53EC43
:100AD000192BCDE902019DED020B51EC100BFFF734
:100AE00016FCCDE904019DED040B51EC100BFFF752
:100AF00057FD08EE100A4BE0B5EEC08AF1EE10FA91
:100B000024D804FB04F09DF918104900891C4143C6
:100B100005FB05F09DF919205200C2F1030200FB0C
:100B2000021000EE100AB8EEC00A30EE080AB0EE6D
:100B3000408A9DF81800401C40B28DF818009DF8BE
:100B40001900401E40B28DF8190015E005FB05F0B4
:100B50009DF919104900C1F10301484300EE100A44
:100B6000B8EEC00A30EE080AB0EE408A9DF81900CF
:100B7000401E40B28DF81900CDE900899DF9190099
:100B8000C3199DF9180082193946304600F0D4FA8D
:100B90009DF919000028AFDC07B0BDEC108BBDE853
:100BA000F0830000000000000000D03F00000000C3
:100BB0000000E03F2DE9FF4F04460D469046994660
:100BC000A8EB0406A9EB050700200390824607BBAB
:100BD000002E07DA704206B284EA080488EA0408A4
:100BE00084EA080410E0BDF80E202A44D1B2BDF812
:100BF0000C202244D0B20D9A00F01AF9BDF80C0076
:100C0000401C00B2ADF80C00BDF90C00B042EADDAA
:100C10000BE106BB002F07DA784207B285EA090527
:100C200089EA050985EA090510E0BDF80E202A4485
:100C3000D1B2BDF80C202244D0B20D9A00F0F8F8E1
:100C4000BDF80E00401C00B2ADF80E00BDF90E005C
:100C5000B842EADDE9E0002E04DD002F02DD4AF0B3
:100C6000010A2FE0002E0ADD002F08DA4AF0020AFE
:100C7000784207B2C9EB450000F0FF0922E0002EE0
:100C800014DA002F12DA4AF0040A704206B27842EF
:100C900007B284EA080488EA040884EA080485EABA
:100CA000090589EA050985EA09050BE0002E09DA3C
:100CB000002F07DD4AF0080A704206B2C8EB440074
:100CC00000F0FF08BE4217DA4AF0100A8DF80080E3
:100CD0008DF80190601B9DF80110084400F0FF089A
:100CE000604228449DF80010084400F0FF09A8EB7A
:100CF0000406A9EB050700BF780000B20290B81BFC
:100D0000400000B20190C6EB47000FFA80FBBDF82F
:100D10000E202A44D1B2BDF80C202244D0B20D9A44
:100D200000F086F8BDF80C00401C00B2ADF80C00D5
:100D300076E0BBF1000F04DA029858440FFA80FB0A
:100D400009E0BDF80E00401C00B2ADF80E0001989D
:100D500058440FFA80FB0AF00F00012806D0022841
:100D600020D0042803D0082852D136E000BF0AF072
:100D7000100058B1BDF80C202A44D1B2BDF80E20A5
:100D80002244D0B20D9A00F053F80AE0BDF80E20CC
:100D90002A44D1B2BDF80C202244D0B20D9A00F002
:100DA00047F836E00AF0100058B1BDF80C20AA1A36
:100DB000D1B2BDF80E202244D0B20D9A00F038F81E
:100DC0000AE0BDF80E20AA1AD1B2BDF80C202244C8
:100DD000D0B20D9A00F02CF81BE00AF0100058B1C8
:100DE000BDF80C202A44D1B2BDF80E20A21AD0B210
:100DF0000D9A00F01DF80AE0BDF80E202A44D1B289
:100E0000BDF80C20A21AD0B20D9A00F011F800E043
:100E100000BF00BFBDF80C00401C00B2ADF80C00D4
:100E2000BDF90C00B04284DD00BFBDE8FF8F0000BB
:100E3000F0B5144600267F2801DC3F2900DDF0BD17
:100E40000B46CF1701EB5777FF10C7F10707FAB230
:100E5000CF1701EB5777FF10A1EBC707FDB2C5F124
:100E600007070123BB40DEB24CB10A4B03EBC003C2
:100E70009B5C3343074F07EBC007BB5408E0054BAF
:100E800003EBC0039B5CB343024F07EBC007BB54AB
:100E900000BFD4E7D80000202DE9F84105460E46F2
:100EA00017469846079C33463A46314628460094F2
:100EB000FFF780FE43463A46414628460094FFF736
:100EC00079FE43462A46314628460094FFF772FED3
:100ED00043463A46314638460094FFF76BFEBDE87C
:100EE000F88100002DE9F0432DED0C8B83B007460F
:100EF0000E4614461D46DDF858804FF0000904EBFD
:100F0000D471A7EB6101002929D549F001092046D8
:100F1000FFF7F5FA41EC190B3846FFF7F0FA41EC10
:100F20001B0B2846FFF7EBFA41EC1D0B9FED800BE6
:100F300053EC102BFFF7F1F941EC1C0B53EC1B2B7E
:100F4000FFF7EBF941EC1A0B53EC192BFFF757FAAB
:100F500041EC180BFFF7E0FAC5B27806040E05EB7A
:100F6000D571A6EB6101002929D549F0040928466D
:100F7000FFF7C5FA41EC190B7000FFF7AFFA41EC2F
:100F80001B0B2046FFF7BBFA41EC1D0B9FED680BD6
:100F900053EC102BFFF7C1F941EC1C0B53EC1B2B4E
:100FA000FFF7BBF941EC1A0B53EC192BFFF727FAAB
:100FB00041EC180BFFF7B0FAC4B27006050E04EB53
:100FC000D47107EB610180292CDB49F00209284626
:100FD000FFF795FA41EC190BC7F180014800FFF7C4
:100FE0007DFA41EC1B0B2846FFF789FA41EC1D0BFB
:100FF0009FED4F0B53EC102BFFF78FF941EC1C0BBF
:1010000053EC1B2BFFF789F941EC1A0B53EC192B0E
:10101000FFF7F5F941EC180BFFF77EFAC5B27842FD
:101020004006040E05EBD57106EB610140292DDB6E
:1010300049F008092046FFF762FA41EC190BC6F1A6
:1010400040014800FFF74AFA41EC1B0B2046FFF72E
:1010500056FA41EC1D0B9FED360B53EC102BFFF7AE
:101060005CF941EC1C0B53EC1B2BFFF756F941ECE0
:101070001A0B53EC192BFFF7C2F941EC180BFFF7D1
:101080004BFAC4B2C6F140004006050E204604EB00
:10109000D071A7EB6101C9B28DF80810284605EBA5
:1010A000D071A6EB6101C9B28DF80910204604EB9E
:1010B000D07107EB6101C9B28DF80410284605EB29
:1010C000D07106EB6101C9B28DF80510CDF8008032
:1010D0009DF805309DF8042019469DF80800FFF79B
:1010E00069FDCDF800809DF809309DF8042019466F
:1010F0009DF80800FFF75EFDCDF800809DF80930EF
:101100009DF808209DF805101046FFF753FDCDF817
:1011100000809DF809309DF804209DF805101046C8
:10112000FFF748FD03B0BDEC0C8BBDE8F083000079
:10113000000000000000F03F2DE9F0472DED0E8B80
:1011400004460D4616461F46DDE9169A4846FFF747
:10115000D6F941EC1C0B9FED7A0B53EC102BFFF7EB
:10116000DCF841EC1E0BFFF71BFA80464046FFF708
:10117000ECF941EC1E0BB0EE4E0AF0EE6E0A02F0F6
:1011800017FBB0EE40CAF0EE60CA51EC1C0BFFF743
:1011900007FA08EE100A4046FFF7D7F941EC1E0B9C
:1011A000B0EE4E0AF0EE6E0A02F09EFAB0EE40CAC1
:1011B000F0EE60CA51EC1C0BFFF7F2F908EE900A52
:1011C000301B06B2781B07B200EE106AB8EEC00AF8
:1011D00020EE080AB0EE409A00EE106AB8EEC00A9F
:1011E00020EE280AF0EE409A00EE107AB8EEC00A1F
:1011F00020EE080AB0EE40AA00EE107AB8EEC00A5F
:1012000020EE280AF0EE40AA704200EE100AB8EE76
:10121000C00A20EE080AB0EE40BA704200EE100A92
:10122000B8EEC00A20EE280AF0EE40BA784200EE8E
:10123000100AB8EEC00A20EE080AB0EE40DA784292
:1012400000EE100AB8EEC00A20EE280AF0EE40DAEE
:1012500079EE2A0A00EE105AB8EE400A30EE800A03
:10126000BCEEC00A10EE102AD1B279EECA0A00EE26
:10127000104AB8EE400A30EE800ABCEEC00A10EE0A
:10128000102AD0B25246FFF7D3FD79EE2D0A00EEB8
:10129000105AB8EE400A30EE800ABCEEC00A10EEDA
:1012A000102AD1B279EECD0A00EE104AB8EE400A0B
:1012B00030EE800ABCEEC00A10EE102AD0B25246C0
:1012C000FFF7B6FD7BEE2D0A00EE105AB8EE400A8D
:1012D00030EE800ABCEEC00A10EE102AD1B27BEECE
:1012E000CD0A00EE104AB8EE400A30EE800ABCEE9D
:1012F000C00A10EE102AD0B25246FFF799FD7BEEDD
:101300002A0A00EE105AB8EE400A30EE800ABCEE0F
:10131000C00A10EE102AD1B27BEECA0A00EE104AC3
:10132000B8EE400A30EE800ABCEEC00A10EE102A79
:10133000D0B25246FFF77CFDBDEC0E8BBDE8F087C6
:10134000E3A862C346DF913F2DE9F0478046894616
:1013500014461D46DDE9097A089EEA19D1B2A219A0
:10136000D0B25246FFF764FDC5EB4902D21BD1B2A1
:10137000A219D0B25246FFF75BFDC5EB4902D21B62
:10138000D1B2C4EB4802921BD0B25246FFF750FDD7
:10139000EA19D1B2C4EB4802921BD0B25246FFF711
:1013A00047FDBDE8F08700002DE9F0472DED108BDB
:1013B00086B004460D4616461F46DDE91E9A48468D
:1013C000FFF79DF89FEDEF0B53EC102BCDE90001DB
:1013D0009DED000B51EC100BFEF79FFFCDE90201D4
:1013E0009DED020B51EC100BFFF7DAF880464046FA
:1013F000FFF7ABF8CDE900019DED000B02F0D8F945
:101400008DED020B9DED020B51EC100BFFF7C8F8B0
:1014100008EE100A4046FFF798F8CDE900019DED6F
:10142000000B02F061F98DED020B9DED020B51EC0A
:10143000100BFFF7B5F808EE900A301B00EE100A0B
:10144000B8EEC00A20EE080AB0EE409A301B00EE5B
:10145000100AB8EEC00A20EE280AF0EE409A781B77
:1014600000EE100AB8EEC00A20EE080AB0EE40AA5C
:10147000781B00EE100AB8EEC00A20EE280AF0EE43
:1014800040AA3819401B001B00EE100AB8EEC00A33
:1014900020EE080AB0EE40BA3819401B001B00EEDF
:1014A000100AB8EEC00A20EE280AF0EE40BA301B4F
:1014B0002844401B00EE100AB8EEC00A20EE080ACD
:1014C000B0EE40CA301B2844401B00EE100AB8EEB4
:1014D000C00A20EE280AF0EE40CA70422044284498
:1014E000401B00EE100AB8EEC00A20EE080AB0EE6B
:1014F00040DA704220442844401B00EE100AB8EE47
:10150000C00A20EE280AF0EE40DA7842204428444F
:10151000001B00EE100AB8EEC00A20EE080AB0EE7A
:1015200040EA784220442844001B00EE100AB8EE3E
:10153000C00A20EE280AF0EE40EA7042204420441F
:10154000001B00EE100AB8EEC00A20EE080AB0EE4A
:1015500040FA704220442044001B00EE100AB8EE0E
:10156000C00A20EE280AF0EE40FA784228442844C7
:10157000401B00EE100AB8EEC00A20EE080A8DEDFE
:10158000050A784228442844401B00EE100AB8EEB1
:10159000C00A20EE280A8DED040A79EE2A0A00EE30
:1015A000105AB8EE400A30EE800ABCEEC00A10EEC7
:1015B000102AD1B279EECA0A00EE104AB8EE400AFB
:1015C00030EE800ABCEEC00A10EE102AD0B25246AD
:1015D000FFF72EFC7BEE2C0A00EE105AB8EE400A04
:1015E00030EE800ABCEEC00A10EE102AD1B27BEEBB
:1015F000CC0A00EE104AB8EE400A30EE800ABCEE8B
:10160000C00A10EE102AD0B25246FFF711FC7BEE52
:101610002D0A00EE105AB8EE400A30EE800ABCEEF9
:10162000C00A10EE102AD1B27BEECD0A00EE104AAD
:10163000B8EE400A30EE800ABCEEC00A10EE102A66
:10164000D0B25246FFF7F4FB9DED040A79EE000A92
:1016500000EE105AB8EE400A30EE800ABCEEC00A26
:1016600010EE102AD1B29DED050A79EEC00A00EE07
:10167000104AB8EE400A30EE800ABCEEC00A10EE06
:10168000102AD0B25246FFF7D3FB9DED040A7FEE3D
:10169000000A00EE105AB8EE400A30EE800ABCEEA6
:1016A000C00A10EE102AD1B29DED050A7FEEC00AE5
:1016B00000EE104AB8EE400A30EE800ABCEEC00AD6
:1016C00010EE102AD0B25246FFF7B2FB7EEE2D0A82
:1016D00000EE105AB8EE400A30EE800ABCEEC00AA6
:1016E00010EE102AD1B27EEECD0A00EE104AB8EE0E
:1016F000400A30EE800ABCEEC00A10EE102AD0B2CA
:101700005246FFF795FB7EEE2C0A00EE105AB8EE1B
:10171000400A30EE800ABCEEC00A10EE102AD1B2A8
:101720007EEECC0A00EE104AB8EE400A30EE800A97
:10173000BCEEC00A10EE102AD0B25246FFF778FB7A
:101740007FEE2A0A00EE105AB8EE400A30EE800A08
:10175000BCEEC00A10EE102AD1B27FEECA0A00EE2B
:10176000104AB8EE400A30EE800ABCEEC00A10EE15
:10177000102AD0B25246FFF75BFB06B0BDEC108BCF
:10178000BDE8F087E3A862C346DF913F2DE9F0474B
:1017900004460D4616461F46DDE9099ADDF820800D
:1017A00007EB0902D1B206EB0802D0B25246FFF7AE
:1017B0003FFB321B2A444A44D1B23A19521B4244DD
:1017C000D0B25246FFF734FB724222442A44A2EBC5
:1017D0000902D1B23A19521B4244D0B25246FFF725
:1017E00027FB7A422A442A44A2EB0902D1B206EB33
:1017F0000802D0B25246FFF71BFB7A422A442A4421
:10180000A2EB0902D1B2724222442244A2EB0802A6
:10181000D0B25246FFF70CFB724222442A44A2EB9C
:101820000902D1B27A4222442A44A2EB0802D0B281
:101830005246FFF7FDFA321B2A444A44D1B27A429B
:1018400022442A44A2EB0802D0B25246FFF7F0FA33
:1018500007EB0902D1B2724222442244A2EB0802F1
:10186000D0B25246FFF7E4FABDE8F0872DE9F04F19
:1018700087B08046894615461E46DDE91047284652
:1018800005EBD071A8EB6101C9B28DF81810304694
:1018900006EBD071A9EB6101C9B28DF81910284689
:1018A00005EBD07108EB6101C9B28DF81410304618
:1018B00006EBD07109EB6101C9B28DF8151029460C
:1018C00005EBD1725210A24204DB06EBD07252102B
:1018D000A2420BDAB54204DA294601EBD17252106A
:1018E00003E0304600EBD0725210D4B200979DF85E
:1018F00015309DF814C0ACEB040C0CF0FF02194637
:101900009DF818C0A4440CF0FF00FFF753F90097AE
:101910009DF819309DF814C0ACEB040C0CF0FF02DC
:1019200019469DF818C0A4440CF0FF00FFF742F9D7
:1019300000979DF819C0A4440CF0FF039DF81820EF
:101940009DF815C0ACEB040C0CF0FF011046FFF73E
:1019500031F900979DF819C0A4440CF0FF039DF8DD
:1019600014209DF815C0ACEB040C0CF0FF011046E0
:10197000FFF720F9002004908DF81140B34606EBE4
:10198000DB70C4EB6000C0B205EBD571C4EB610144
:10199000C9B2CDE90275CDE900109DF811004844A7
:1019A000C3B29DF810004044C2B249464046FFF71A
:1019B000EDFEC4F101004FFA80FA01208DF810000D
:1019C0003BE0BAF1000F07DA9DF810004000401C20
:1019D00050444FFA80FA0FE09DF81100401EC0B24B
:1019E0008DF811009DF810009DF81110401A40006C
:1019F000401C50444FFA80FAB34606EBDB70C4EB50
:101A00006000C0B205EBD571C4EB6101C9B2CDE98C
:101A10000275CDE900109DF811004844C3B29DF84D
:101A200010004044C2B249464046FFF7AFFE9DF861
:101A30001000401CC0B28DF810009DF810009DF8F9
:101A400011108842BDDD07B0BDE8F08F2DE9F04FE1
:101A500087B08046894615461E46DDE91047284670
:101A600005EBD071A8EB6101C9B28DF818103046B2
:101A700006EBD071A9EB6101C9B28DF819102846A7
:101A800005EBD07108EB6101C9B28DF81410304636
:101A900006EBD07109EB6101C9B28DF8151029462A
:101AA00005EBD1725210A24204DB06EBD072521049
:101AB000A2420BDAB54204DA294601EBD172521088
:101AC00003E0304600EBD0725210D4B200979DF87C
:101AD00015309DF814209DF819109DF81800FFF797
:101AE000DBF90FB9012000E0002000909DF81930CB
:101AF0009DF818C0A4440CF0FF0219469DF8180088
:101B0000FFF758F80FB9012000E0002000909DF881
:101B100019309DF814C0ACEB040C0CF0FF02194610
:101B20009DF81400FFF746F80FB9012000E00020EF
:101B300000909DF815309DF818C0A4440CF0FF02E9
:101B400019469DF81800FFF735F80FB9012000E09D
:101B5000002000909DF815309DF814C0ACEB040CEB
:101B60000CF0FF0219469DF81400FFF723F80FB997
:101B7000012000E0002000909DF819C0A4440CF062
:101B8000FF039DF818209DF819101046FFF712F872
:101B90000FB9012000E0002000909DF815C0ACEBCB
:101BA000040C0CF0FF039DF818209DF8151010464A
:101BB000FFF700F80FB9012000E0002000909DF829
:101BC00019C0A4440CF0FF039DF814209DF81910CF
:101BD0001046FEF7EFFF0FB9012000E00020009053
:101BE0009DF815C0ACEB040C0CF0FF039DF814201D
:101BF0009DF815101046FEF7DDFF002004908DF8CB
:101C00001140B34606EBDB70C4EB6000C0B205EBDD
:101C1000D571C4EB6101C9B2CDE90275CDE90010FF
:101C20009DF811004844C3B29DF810004044C2B270
:101C300049464046FFF7AAFDC4F101004FFA80FA79
:101C400001208DF810003BE0BAF1000F07DA9DF893
:101C500010004000401C50444FFA80FA0FE09DF8FD
:101C60001100401EC0B28DF811009DF810009DF8C3
:101C70001110401A4000401C50444FFA80FAB346FD
:101C800006EBDB70C4EB6000C0B205EBD571C4EBB2
:101C90006101C9B2CDE90275CDE900109DF81100CE
:101CA0004844C3B29DF810004044C2B24946404681
:101CB000FFF76CFD9DF81000401CC0B28DF81000BD
:101CC0009DF810009DF811108842BDDD07B0BDE8F9
:101CD000F08F2DE9F04F87B08046894616461F46A3
:101CE000DDE91045304606EBD071A8EB6101C9B2C1
:101CF0008DF81810384607EBD071A9EB6101C9B215
:101D00008DF81910304606EBD07108EB6101C9B2AD
:101D10008DF81410384607EBD07109EB6101C9B298
:101D20008DF8151000959DF815309DF814209DF83C
:101D300019109DF81800FFF7AFF80DB9012000E069
:101D4000002000909DF819309DF818C0A4440CF0B4
:101D5000FF0219469DF81800FEF72CFF0DB901206F
:101D600000E0002000909DF819309DF814C0ACEB05
:101D7000040C0CF0FF0219469DF81400FEF71AFF40
:101D80000DB9012000E0002000909DF815309DF86D
:101D900018C0A4440CF0FF0219469DF81800FEF785
:101DA00009FF0DB9012000E0002000909DF81530DA
:101DB0009DF814C0ACEB040C0CF0FF0219469DF822
:101DC0001400FEF7F7FE0DB9012000E0002000909E
:101DD0009DF819C0A4440CF0FF039DF818209DF84D
:101DE00019101046FEF7E6FE0DB9012000E00020B4
:101DF00000909DF815C0ACEB040C0CF0FF039DF8AF
:101E000018209DF815101046FEF7D4FE0DB90120DC
:101E100000E0002000909DF819C0A4440CF0FF03DE
:101E20009DF814209DF819101046FEF7C3FE0DB959
:101E3000012000E0002000909DF815C0ACEB040CE0
:101E40000CF0FF039DF814209DF815101046FEF7C6
:101E5000B1FE002004908DF81140BB4607EBDB700B
:101E6000C4EB6000C0B206EBD671C4EB6101C9B22D
:101E700001AA61C200919DF811004844C3B29DF8C7
:101E800010004044C2B249464046FFF77FFCC4F10F
:101E900001004FFA80FA01208DF810003AE0BAF103
:101EA000000F07DA9DF810004000401C50444FFA24
:101EB00080FA0FE09DF81100401EC0B28DF81100AD
:101EC0009DF810009DF81110401A4000401C50442D
:101ED0004FFA80FABB4607EBDB70C4EB6000C0B280
:101EE00006EBD671C4EB6101C9B201AA61C20091CF
:101EF0009DF811004844C3B29DF810004044C2B29E
:101F000049464046FFF742FC9DF81000401CC0B215
:101F10008DF810009DF810009DF811108842BEDD6C
:101F200007B0BDE8F08F00002DE9F0432DED108BD8
:101F300087B006460F4615461C46DDE91E8900207F
:101F4000069060B28DF819006042FEF7C7FA41ECC6
:101F50001E0B9FEDAE0B53EC102BFEF737F941EC47
:101F60001C0B05FB05F0FEF7B9FA41EC1D0B53EC19
:101F70001C2BFEF7D2F941EC1A0B04FB04F0FEF720
:101F8000ADFA41EC1B0B53EC1A2BFEF71FF941EC99
:101F9000190BFEF705FB08EE900ACDE900899DF9C3
:101FA0001900C3199DF91800821939463046FFF708
:101FB000FBF94AE0F5EEC08AF1EE10FA15D804FB01
:101FC00004F09DF918104900C91C484300EE100A9E
:101FD000B8EEC00A30EE280AF0EE408A9DF81800EC
:101FE000401C40B28DF8180023E004FB04F09DF97A
:101FF00018104900C91C484305FB05F19DF919203B
:102000005200C2F1020201FB020000EE100AB8EE1B
:10201000C00A30EE280AF0EE408A9DF81800401CF5
:1020200040B28DF818009DF81900401E40B28DF89E
:102030001900CDE900899DF91900C3199DF918000F
:10204000821939463046FFF7AFF99DF91900FEF7BE
:1020500045FA41EC1D0B9FED6F0B53EC102BFEF777
:1020600056F941EC1B0B05FB05F0FEF737FA41EC86
:102070001C0B53EC1B2BFEF750F941EC190B04FB26
:1020800004F19DF91820521C01FB02F0FEF726FA1C
:1020900041EC1A0B53EC192BFEF76AFA8AD305FBB5
:1020A00005F1614301FB04F0FEF718FA41EC190B4E
:1020B00005FB05F19DF91920521E51439DF9192088
:1020C000521E01FB02F0FEF709FACDE900019DF96D
:1020D0001800FEF703FA41EC1D0B9FED4E0B53EC7D
:1020E000102BFEF773F841EC1B0B9DF91800FEF75F
:1020F000F5F941EC1F0B9FED470B53EC102BFEF74E
:1021000065F841EC1D0B04FB04F0FEF7E7F941EC28
:102110001E0B53EC1D2BFEF700F941EC1C0B53EC8E
:102120001B2BFEF7FAF841EC1A0B9DED000B53EC5C
:10213000102BFEF74BF853EC192BCDE902019DED66
:10214000020B51EC100BFEF7E2F8CDE904019DED16
:10215000040B51EC100BFEF723FA08EE100A4BE0CB
:10216000B5EEC08AF1EE10FA24D804FB04F09DF914
:1021700018104900891C414305FB05F09DF9192001
:102180005200C2F1030200FB021000EE100AB8EE8A
:10219000C00A30EE080AB0EE408A9DF81800401CD4
:1021A00040B28DF818009DF81900401E40B28DF81D
:1021B000190015E005FB05F09DF919104900C1F162
:1021C0000301484300EE100AB8EEC00A30EE080AD8
:1021D000B0EE408A9DF81900401E40B28DF81900FB
:1021E000CDE900899DF91900C3199DF918008219DC
:1021F00039463046FFF7D8F89DF919000028AFDCC2
:1022000007B0BDEC108BBDE8F083000000000000BB
:102210000000D03F000000000000E03F10B501F0DA
:10222000C3F810BD10B5FFF7F9FF0021AE2001F093
:10223000B2F80021D52001F0AEF80021502001F0C5
:10224000AAF80021A82001F0A6F800213F2001F003
:10225000A2F80021D32001F09EF80021084601F0E9
:102260009AF80021402001F096F800218D2001F01D
:1022700092F80021142001F08EF80021202001F0B6
:102280008AF80021012001F086F80021A12001F048
:1022900082F80021C02001F07EF80021DA2001F050
:1022A0007AF80021122001F076F80021812001F057
:1022B00072F800217F2001F06EF80021D92001F092
:1022C0006AF80021F12001F066F80021DB2001F01E
:1022D00062F80021302001F05EF80021A42001F016
:1022E0005AF80021A62001F056F80021AF2001F095
:1022F00052F8FEF7CDFA10BD70B50021084600F087
:1023000017F800240EE0002508E0084901EBC4019D
:10231000485D012101F03FF8681CC5B2082DF4DBCF
:10232000601CC4B2802CEEDB70BD0000D800002021
:1023300070B504460D4605F1B001C8B2002101F0A8
:102340002AF804F00F00002101F025F8102101EB1C
:102350001410002101F01FF870BD2DE9FC478046E4
:10236000894616461F460A9DBE4201DA304600E005
:1023700038468246002417E03B46324649464046EE
:10238000CDE90045FFF7A5FCFFF7B6FF0DB9012029
:1023900000E000203B4632464946CDE90040404639
:1023A000FFF797FC601CC4B25445E5DB601EC4B265
:1023B00017E03B46324649464046CDE90045FFF727
:1023C00088FCFFF799FF0DB9012000E000203B4693
:1023D00032464946CDE900404046FFF77AFC601E90
:1023E000C4B2002CE5DC0DB9012000E000203B4622
:1023F00032464946CDE900404046FFF76AFCBDE859
:10240000FC8700000FB59BB000201A901990FCE3E8
:1024100000208DF86000199840B28DF861001E9878
:102420004042FEF75BF89FEDFE0B53EC102BCDE91D
:102430000A019DED0A0B51EC100BFDF7C7FECDE92B
:102440000E011D9840430B90FEF748F8CDE90C01B2
:102450009DED0E0B53EC102B9DED0C0B51EC100B66
:10246000FDF75BFFCDE912011E9840430F90FEF788
:1024700035F8CDE910019DED120B53EC102B9DEDBD
:10248000100B51EC100BFDF7A1FECDE914019DEDF1
:10249000140B51EC100BFEF783F81790199A1E9944
:1024A000891AC9B21A9B1D9AD21AD2B22098CDE9C4
:1024B000002102909DF861101C980844C0B215904C
:1024C0009DF860101B980844C0B214900246159BFA
:1024D000DDE91B01FEF738FF62E09DED170AB5EE5E
:1024E000C00AF1EE10FA17D81E9840439DF960100B
:1024F0004900C91C484300EE100AF8EEC00A9DEDE1
:10250000170A30EE800A8DED170A9DF86000401C16
:1025100040B28DF8600025E01E9840439DF96010A0
:102520004900C91C41431D9840439DF96120520058
:10253000C2F1020200FB021000EE100AF8EEC00A1F
:102540009DED170A30EE800A8DED170A9DF86000A8
:10255000401C40B28DF860009DF86100401E40B202
:102560008DF86100199A1E99891AC9B21A9B1D9A91
:10257000D21AD2B22098CDE9002102909DF86110C4
:102580001C980844C0B215909DF860101B98084430
:10259000C0B214900246159BDDE91B01FEF7D4FE84
:1025A0009DF961000B90FDF799FF9FED9F0B53EC98
:1025B000102BCDE90C019DED0C0B51EC100BFDF730
:1025C000A6FECDE910011D9840430D90FDF786FF52
:1025D000CDE90E019DED100B53EC102B9DED0E0B74
:1025E00051EC100BFDF799FECDE914011E98404304
:1025F0009DF96010491C48431190FDF76FFFCDE92C
:1026000012019DED140B53EC102B9DED120B51ECB0
:10261000100BFDF7ADFFFFF460AF1D9840431E990E
:10262000484348430F90FDF759FFCDE912011D982B
:1026300040439DF96110491E48439DF96110491EB0
:1026400048430B90FDF74AFFCDE90E019DF960006C
:102650000590FDF743FF9FED740B53EC102BCDE974
:1026600006019DED060B51EC100BFDF7AFFDCDE91A
:102670000A019DF960000190FDF730FF9FED6A0BA4
:1026800053EC102BCDE902019DED020B51EC100B28
:10269000FDF79CFDCDE906011E9840430390FDF730
:1026A0001DFFCDE904019DED060B53EC102B9DEDB4
:1026B000040B51EC100BFDF730FECDE908019DED48
:1026C0000A0B53EC102B9DED080B51EC100BFDF792
:1026D00024FECDE90C019DED0E0B53EC102B9DED6E
:1026E0000C0B51EC100BFDF771FDCDE910019DEDC8
:1026F000120B53EC102B9DED100B51EC100BFDF752
:1027000006FECDE914019DED140B51EC100BFDF705
:1027100047FF169063E09DED160AB5EEC00AF1EE94
:1027200010FA26D81E9840439DF960104900891C74
:1027300041431D9840439DF961205200C2F10302BC
:1027400000FB021000EE100AF8EEC00A9DED160A1A
:1027500030EE800A8DED160A9DF86000401C40B2F4
:102760008DF860009DF86100401E40B28DF8610058
:1027700017E01D9840439DF961104900C1F1030124
:10278000484300EE100AF8EEC00A9DED160A30EE3E
:10279000800A8DED160A9DF86100401E40B28DF84A
:1027A0006100199A1E99891AC9B21A9B1D9AD21AE8
:1027B000D2B22098CDE9002102909DF861101C98BA
:1027C0000844C0B215909DF860101B980844C0B230
:1027D00014900246159BDDE91B01FEF7B5FD9DF93E
:1027E0006100002897DC209800901E991C980144F5
:1027F0001998081AC0B216901D991B9801441A988E
:10280000081AC0B215901E991C9801441998081A0C
:10281000C0B214901D991B98411A1A98084407E0F9
:10282000000000000000D03F000000000000E03F7A
:10283000C0B2139014A90EC9FEF7BCF920980090FD
:102840001E991C98411A19980844C0B216901D99F7
:102850001B9801441A98081AC0B215901E991C982A
:10286000411A19980844C0B214901D991B98411A36
:102870001A980844C0B2139014A90EC9FEF79AF929
:10288000209800901E991C98411A19980844C0B2CB
:1028900016901D991B98411A1A980844C0B21590B9
:1028A0001E991C9801441998081AC0B214901D99D9
:1028B0001B98411A1A980844C0B2139014A90EC963
:1028C000FEF778F9209800901E991C98411A1998E3
:1028D0000844C0B216901D991B9801441A98081A12
:1028E000C0B215901E991C9801441998081AC0B2DC
:1028F00014901D991B9801441A98081AC0B213909D
:1029000014A90EC9FEF756F9FFF7F6FC209808B98E
:10291000012000E0002000901E991C9801441998A5
:10292000081AC0B216901D991B9801441A98081AEB
:10293000C0B215901E991C9801441998081AC0B28B
:1029400014901D991B98411A1A980844C0B213900C
:1029500014A90EC9FEF72EF9209808B9012000E04D
:10296000002000901E991C98411A19980844C0B282
:1029700016901D991B9801441A98081AC0B2159018
:102980001E991C98411A19980844C0B214901D99B8
:102990001B98411A1A980844C0B2139014A90EC982
:1029A000FEF708F9209808B9012000E00020009007
:1029B0001E991C98411A19980844C0B216901D9986
:1029C0001B98411A1A980844C0B215901E991C9879
:1029D00001441998081AC0B214901D991B98411A05
:1029E0001A980844C0B2139014A90EC9FEF7E2F871
:1029F000209808B9012000E0002000901E991C9842
:102A0000411A19980844C0B216901D991B980144A8
:102A10001A98081AC0B215901E991C98014419986A
:102A2000081AC0B214901D991B9801441A98081AEC
:102A3000C0B2139014A90EC9FEF7BCF800208DF89F
:102A40006000199840B28DF861001E984042FDF771
:102A500045FD1FED8D0B53EC102BCDE90A019DEDCB
:102A60000A0B51EC100BFDF7B1FBCDE90E011D98DF
:102A700040430B90FDF732FDCDE90C019DED0E0BAF
:102A800053EC102B9DED0C0B51EC100BFDF745FC9E
:102A9000CDE912011E9840430F90FDF71FFDCDE9CF
:102AA00010019DED120B53EC102B9DED100B51EC12
:102AB000100BFDF78BFBCDE914019DED140B51ECD0
:102AC000100BFDF76DFD1790209808B9012300E069
:102AD000002319991E98401AC0B21A9A1D99891A92
:102AE000C9B2CDE9010300919DF861101C9808441A
:102AF000C0B215909DF860101B980844C0B21490A5
:102B00000246159BDDE91B01FEF71EFC66E09DED0C
:102B1000170AB5EEC00AF1EE10FA17D81E98404316
:102B20009DF960104900C91C484300EE100AF8EEF8
:102B3000C00A9DED170A30EE800A8DED170A9DF848
:102B40006000401C40B28DF8600025E01E984043B4
:102B50009DF960104900C91C41431D9840439DF9EF
:102B600061205200C2F1020200FB021000EE100AC6
:102B7000F8EEC00A9DED170A30EE800A8DED170AB7
:102B80009DF86000401C40B28DF860009DF8610027
:102B9000401E40B28DF86100209808B9012300E082
:102BA000002319991E98401AC0B21A9A1D99891AC1
:102BB000C9B2CDE9010300919DF861101C98084449
:102BC000C0B215909DF860101B980844C0B21490D4
:102BD0000246159BDDE91B01FEF7B6FB9DF961007E
:102BE0000B90FDF77BFC1FEDF00B53EC102BCDE9A8
:102BF0000C019DED0C0B51EC100BFDF788FBCDE9A2
:102C000010011D9840430D9000E020E1FDF766FCA7
:102C1000CDE90E019DED100B53EC102B9DED0E0B2D
:102C200051EC100BFDF779FBCDE914011E984043E0
:102C30009DF96010491C48431190FDF74FFCCDE908
:102C400012019DED140B53EC102B9DED120B51EC6A
:102C5000100BFDF78DFCFFF45AAF1D9840431E99F1
:102C6000484348430F90FDF739FCCDE912011D9808
:102C700040439DF96110491E48439DF96110491E6A
:102C800048430B90FDF72AFCCDE90E019DF9600049
:102C90000590FDF723FC9FED730B53EC102BCDE952
:102CA00006019DED060B51EC100BFDF78FFACDE9F7
:102CB0000A019DF960000190FDF710FC9FED690B82
:102CC00053EC102BCDE902019DED020B51EC100BE2
:102CD000FDF77CFACDE906011E9840430390FDF70D
:102CE000FDFBCDE904019DED060B53EC102B9DED92
:102CF000040B51EC100BFDF710FBCDE908019DED25
:102D00000A0B53EC102B9DED080B51EC100BFDF74B
:102D100004FBCDE90C019DED0E0B53EC102B9DED4A
:102D20000C0B51EC100BFDF751FACDE910019DEDA4
:102D3000120B53EC102B9DED100B51EC100BFDF70B
:102D4000E6FACDE914019DED140B51EC100BFDF7E3
:102D500027FC169067E09DED160AB5EEC00AF1EE6D
:102D600010FA26D81E9840439DF960104900891C2E
:102D700041431D9840439DF961205200C2F1030276
:102D800000FB021000EE100AF8EEC00A9DED160AD4
:102D900030EE800A8DED160A9DF86000401C40B2AE
:102DA0008DF860009DF86100401E40B28DF8610012
:102DB00017E01D9840439DF961104900C1F10301DE
:102DC000484300EE100AF8EEC00A9DED160A30EEF8
:102DD000800A8DED160A9DF86100401E40B28DF804
:102DE0006100209808B9012300E0002319991E987A
:102DF000401AC0B21A9A1D99891AC9B2CDE90103C5
:102E000000919DF861101C980844C0B215909DF87F
:102E100060101B980844C0B214900246159BDDE96F
:102E20001B01FEF791FA9DF96100002893DC1D99C2
:102E30001A98884203DA1A98401CC0B21A901D9959
:102E40001998884203DA1998401CC0B219901D994C
:102E50001A988842FFF6DCAA1E9919988842F9DB75
:102E60001FB000BD000000000000E03F2DE9FF4F53
:102E700083B090469946109DC84501DC012000E0D2
:102E800000200646C84501DA404600E04846824632
:102E9000C84501DD404600E048468346002417E06F
:102EA0004B464246CDE90045DDE90301FEF7DEFC75
:102EB000FFF722FA0DB9012000E000204B46424600
:102EC000CDE90040DDE90301FEF7D0FC601CC4B28F
:102ED0000AEBDA71B4EB610FE2DBABF10100C7B2D0
:102EE00027E0CDE900450EB1384600E048460346EC
:102EF0000EB1404600E038460246DDE90301FEF728
:102F0000B5FCFFF7F9F90DB9012000E00020CDE98B
:102F100000400EB1384600E0484603460EB1404638
:102F200000E038460246DDE90301FEF79FFC781E0B
:102F3000C7B20AEBDA71B7EB610FD2DC27E0CDE95B
:102F400000450EB1384600E0484603460EB1404603
:102F500000E038460246DDE90301FEF787FCFFF793
:102F6000CBF90DB9012000E00020CDE900400EB101
:102F7000384600E0484603460EB1404600E0384679
:102F80000246DDE90301FEF771FC781CC7B25F451C
:102F9000D5DB17E04B464246CDE90045DDE90301AC
:102FA000FEF764FCFFF7A8F90DB9012000E000204E
:102FB0004B464246CDE90040DDE90301FEF756FCF1
:102FC000601EC4B2002CE5DC07B0BDE8F08F2DE92F
:102FD000FC4781468A4616461F460A9DBE4201DAD4
:102FE000304600E038468046002417E03B46324633
:102FF00051464846CDE90045FEF738FCFFF77CF91D
:103000000DB9012000E000203B4632465146CDE993
:1030100000404846FEF72AFC601CC4B208EBD87199
:10302000B4EB610FE2DB601EC4B217E03B463246F0
:1030300051464846CDE90045FEF718FCFFF75CF91C
:103040000DB9012000E000203B4632465146CDE953
:1030500000404846FEF70AFC601EC4B2002CE5DCC6
:10306000BDE8FC872DE9FC4706460F469046994689
:10307000DDE90AA5002417E04B46424639463046B2
:10308000CDE90045FDF71CFCFFF736F90DB901202D
:1030900000E000204B4642463946CDE9004030462C
:1030A000FDF70EFC601C84B25445E5DBBDE8FC87EF
:1030B0002DE9FF4F83B090461E46DDE910A94FF081
:1030C000010BA8EB0600C7B2002400252DE014B9BF
:1030D0004FF0010B03E0B44201D14FF0000BBBF104
:1030E000000F04D0781CC7B2601CC4B203E0781E85
:1030F000C7B2601EC4B223463A46CDE90059DDE9A5
:103100000301FEF711FFFFF7F7F8B9F1000F01D146
:10311000012000E0002023463A46CDE90050DDE9D9
:103120000301FEF701FF681C85B25545CFDB07B0F0
:10313000BDE8F08F2DE9FC4706460F4690469946BC
:10314000DDE90AA5002417E04B46424639463046E1
:10315000CDE90045FEF7E8FEFFF7CEF80DB90120F6
:1031600000E000204B4642463946CDE9004030465B
:10317000FEF7DAFE601C84B25445E5DBBDE8FC874F
:103180002DE9F84F81468A4616461F46DDF828800D
:10319000BE4201DD012000E0002083467F243F2560
:1031A0001EE0B44201DD601EC4B2BD4201DD681EF6
:1031B000C5B22B46224651464846CDF80080FDF761
:1031C00091FEFFF799F8B8F1000F01D1012000E05E
:1031D00000202B462246514600904846FDF782FECD
:1031E000B44201DDBD42DCDC1EE0BBF1000F02D0C9
:1031F000601EC4B201E0681EC5B22B46224651468D
:103200004846CDF80080FDF76DFEFFF775F8B8F180
:10321000000F01D1012000E000202B46224651463C
:1032200000904846FDF75EFEB442DED1BD42DCD1DF
:10323000BDE8F88F2DE9FF4F83B090469946109D69
:10324000C84501DC012000E000200646C84501DA3F
:10325000404600E048468246C84501DD404600E061
:1032600048468346002417E04B464246CDE90045D8
:10327000DDE90301FEF7EAFBFFF73EF80DB9012097
:1032800000E000204B464246CDE90040DDE9030165
:10329000FEF7DCFB601CC4B20AEBDA71B4EB610F21
:1032A000E2DBABF10100C7B227E0CDE900450EB18A
:1032B000384600E0484603460EB1404600E0384636
:1032C0000246DDE90301FEF7C1FBFFF715F80DB972
:1032D000012000E00020CDE900400EB1384600E0BA
:1032E000484603460EB1404600E038460246DDE956
:1032F0000301FEF7ABFB781EC7B20AEBDA71B7EB3E
:10330000610FD2DC27E0CDE900450EB1384600E080
:10331000484603460EB1404600E038460246DDE925
:103320000301FEF793FBFEF7E7FF0DB9012000E074
:103330000020CDE900400EB1384600E04846034683
:103340000EB1404600E038460246DDE90301FEF7D3
:103350007DFB781CC7B25F45D5DB17E04B46424684
:10336000CDE90045DDE90301FEF770FBFEF7C4FF80
:103370000DB9012000E000204B464246CDE9004057
:10338000DDE90301FEF762FB601EC4B2002CE5DC40
:1033900007B0BDE8F08F70B504460D4629462046BB
:1033A00000F056F870BD000000B52448006840F0F9
:1033B0000200224908600846006840F008000860E2
:1033C0001F48006840F088401D490860081D0068DB
:1033D000091D0860081D006840F04C40091D086088
:1033E000081D0068091D08600D211548FDF741FA08
:1033F0000F211348FDF73DFA1248006812490843AF
:1034000010490860081D0068091D0860081D006853
:103410000E4908430B4908310860081D0068091D62
:10342000086009210748FDF724FA0B210548FDF73C
:1034300020FA0D210348FDF71CFA00BD3038024088
:1034400000040240000C0240000044040000CC0CC8
:1034500070B504460E4626B10B211848FDF709FA4F
:1034600003E00B211548FDF7FEF90D211348FDF788
:10347000FAF9002517E00D211148FDF7F4F904F0E1
:10348000800020B10F210E48FDF7F3F903E00F2172
:103490000B48FDF7E8F90D210948FDF7EAF9600648
:1034A000040E681CC5B2082DE5DB0D210348FDF7AD
:1034B000E0F90B210148FDF7DCF970BD000C02407A
:1034C00000040240F0B504460D4616461F46144857
:1034D000006840F0010012490860002010490831DE
:1034E00008600F4800680F4908400D4908600E4801
:1034F000091D0860081F006820F48020091F08606B
:10350000002007490C3108603B46324629462046D8
:1035100000F00CF800210846FDF7B2F9F0BD0000FC
:1035200000380240FFFFF6FE10300024F0B50446DC
:103530000D46002100203D4E366846F480363B4F54
:103540003E6001E04E1CB1B2384E366806F40036DB
:103550001EB941F6FF76B142F4DB41F6FF76B14287
:1035600001D1012060E0314E4036366846F0805689
:103570002E4F40373E602E4E366846F440462C4F64
:103580003E602A4E0836366846F41446274F083700
:103590003E60264E366826F08076244F3E6045EA2F
:1035A00084160127C7EB520746EA074646EA036638
:1035B00046F480061D4F3F1D3E603E1F366846F0B4
:1035C00080763F1F3E6000BF184E366806F00076DA
:1035D000002EF9D0174E366846F48076154F3E60BF
:1035E0003E46366846F400763E603E46366846F40F
:1035F00080663E603E46366846F005063E600B4EED
:103600000836366826F00306084F08373E603E4607
:10361000366846F002063E6000BF044E0836366843
:1036200006F00C06082EF8D1F0BD0000003802406C
:1036300000700040003C02401C49098801F0200154
:1036400009B31A498988C8B21949098801F40041A7
:10365000C9B91749098801F4804161B10A2803D02A
:103660000021134A118020E01149098841F40041EA
:103670000F4A118019E00D2806D10D49098841F43F
:1036800080410B4A118010E009490988C1F30D01FE
:10369000084A505406490988491C054A11801146B8
:1036A0000988C72901DD0021118070470010014001
:1036B000040000201000002003B40198410000988D
:1036C00050EAC12018BF04204A0D18BF40F0010085
:1036D00040F2FF72B2EB515F08BF40F002000128D8
:1036E00008BF052002B0704710B52F499FED2C1B75
:1036F0002DED020B84B0059820F000408842D8BF21
:103700009DED040B2DDD2949884209D1049840B96B
:103710004FF0010000F0D4FC00F0A2FC06B010BD98
:1037200005DB9DED040B00F08FFC06B010BD684674
:103730009DED040B00F0A0F810F0030004BF9DED18
:10374000021B9DED000B0CD001280ED09DED021B3D
:103750009DED000B022817D0012000F0DDFB06B024
:1037600010BD00F0A5FA06B010BD9DED021B9DED49
:10377000000B012000F0D0FB51EC100B81F0004158
:1037800006B041EC100B10BD00F092FA51EC100B9A
:1037900081F0004106B041EC100B10BD00000000AC
:1037A0000000000000000000FB21E93F0000F07F66
:1037B00010B52F499FED2C1B2DED020B84B0059801
:1037C00020F000408842DCBF00209DED040B32DD7C
:1037D0002849884209D1049840B94FF0010000F00F
:1037E0006FFC00F03DFC06B010BD05DB9DED040B49
:1037F00000F02AFC06B010BD68469DED040B00F0F9
:103800003BF810F0030011D0012818D09DED021BE9
:103810009DED000B02281AD000F04AFA51EC100B73
:1038200081F0004106B041EC100B10BD9DED021B74
:103830009DED000B012000F06FFB06B010BD9DED6B
:10384000021B9DED000B00F033FA06B010BD012005
:1038500000F062FB51EC100B81F0004106B041EC2E
:10386000100B10BD00000000000000000000000070
:10387000FB21E93F0000F07F2DE9F14F04462DEDDB
:10388000020B2DED088B8AB09FEDE70B80ED020B4C
:10389000139EE74826F0004585420ADC9DED120B99
:1038A000002084ED000B0AB0BDEC088B03B0BDE82E
:1038B000F08FE0489FEDE0AB9FEDE1BBA84247DD14
:1038C000E14F9FEDE39B9FEDE48B9DED120B53ECDD
:1038D0001A2B51EC100B002E1CDDFCF718FD41ECEF
:1038E000100BBD4208D053EC1B2B51EC100BFCF716
:1038F0000EFDC4E900010BE053EC192B51EC100B49
:10390000FCF705FD53EC182BFCF701FDC4E90001A1
:103910000120C8E7FCF75AFC41EC100BBD4208D06F
:1039200053EC1B2B51EC100BFCF750FCC4E90001CD
:103930000BE053EC192B51EC100BFCF747FC53EC4C
:10394000182BFCF743FCC4E900014FF0FF30AAE755
:10395000C348A84279DB9DED120B51EC100B00F02F
:10396000D5FB41EC180B9FEDC00B53EC102BFCF773
:10397000D4FC9FEDBF1B53EC112BFCF727FCFCF78D
:1039800003FF0746FCF7AAFD41EC190B53EC1A2B79
:10399000FCF7C3FC53EC182BFCF7BCFC41EC180BF8
:1039A00053EC1B2B51EC190BFCF7B7FCDFF8C8A24A
:1039B00041EC100B4FEA15580125FA4453EC102B3B
:1039C00051EC180BFCF7A3FC032DC4E900013DD01A
:1039D000C1F30A5005EB4511A8EB000011398142F3
:1039E00034DA0AEB051BB0EE48AA9BED000BF0EEB3
:1039F00068AA53EC102B51EC190BFCF78EFC41EC30
:103A00001B0B51EC1A0B53EC1B2BFCF780FC41EC0D
:103A1000180B51EC1A0B53EC182BFCF778FC53ECF9
:103A20001B2BFCF774FC9BED020B41EC1A0B53ECC7
:103A3000102B51EC190BFCF770FC53EC1A2BFCF714
:103A400066FC41EC100B6D1CB8E70EE0002EA8BF21
:103A50003846BFF628AF94ED000B51EC100B81F007
:103A60000041C4E9000178421DE7C6F3130040F4A9
:103A7000801EC6F30A50A0F2F530471100F01F0572
:103A8000C5F12000DDF848B00890002006900790AE
:103A90000520EC467949002D07EB0002794408BF68
:103AA00051F8221009D051F8223001EB8201AB40CD
:103AB0004A68089922FA01F11943A1FB0E26A1FBDD
:103AC0000B131A449A4234BF0123002303EB060868
:103AD0000CEB8003D3E901A60E448E4234BF0121D2
:103AE000002192448A4411B1924502D903E09245E3
:103AF00001D2012100E00021C3E901A641444CF8B4
:103B00002010011EA0F10100C4DC029800F1005059
:103B1000850F0298DDE903678000DDF81480FCF76B
:103B2000DDFC41EC1A0B3046FCF7E9FC9FED541B21
:103B300053EC112BFCF7F1FB41EC1B0B3846FCF767
:103B4000DEFC9FED511B53EC112BFCF7E6FB41EC27
:103B5000180B4046FCF7D3FC9FED4D1B53EC112B8B
:103B6000FCF7DBFB41EC190B51EC180B53EC192B58
:103B7000FCF72CFB53EC1B2BFCF728FB53EC1A2B0C
:103B8000FCF724FBCDE90801002008909DED080B0F
:103B900053EC1A2B51EC100BFCF7B9FB53EC1B2B1D
:103BA000FCF7B5FB53EC182BFCF7B1FB53EC192BCE
:103BB000FCF7B0FB9FED381B53EC112BFCF7ADFB72
:103BC0009FED370B41EC180B53EC102B9DED080BC0
:103BD00051EC100BFCF7A1FB53EC182BFCF7F6FA99
:103BE0009FED310B41EC180B53EC102B9DED080BA6
:103BF00051EC100BFCF791FB53EC182BFCF7E6FA99
:103C000041EC100B139810F0004F06D06D4251ECB0
:103C1000100B81F0004141EC100B284684ED000BA5
:103C200041E600000000000000000000000000006D
:103C3000FB21E93F7CD9024000004054FB21F93FC1
:103C40003163621A61B4D03DFB21F93F00000000EE
:103C50000000601A61B4D03D7370032E8A19A33B33
:103C6000FB2139410000000083C8C96D305FE43F8B
:103C7000000000000000E03FBA0700000807000055
:103C8000000000000000103E000000000000103C9A
:103C9000000000000000103A182D4454FB21F93DAB
:103CA0003326A611460B113C00000054FB21F93DC0
:103CB00010B52DED040B2DED088B82B0B0EE419ABE
:103CC000F0EE619A0B9820F000449FED4BABB4F1FD
:103CD000795F11DA9DED0A0B51EC100BFCF754FDE6
:103CE000002801BFB0EE4A0AF0EE6A0A02B0BDEC4D
:103CF000088B04BF04B010BD9DED0A0B53EC102BD4
:103D000051EC100BFCF709FB41EC180B3C48062169
:103D1000B0EE480AF0EE680A784400F081F853ECFF
:103D2000182B51EC100BFCF7F8FA9DED0A0B41EC47
:103D30001B0B53EC192B51EC100BFCF7EEFA41EC7A
:103D4000190B53EC1B2B51EC180BFCF7E6FA53EC58
:103D5000192BFCF7DCFA9FED2C0B41EC190B53EC03
:103D6000102B51EC180BFCF7D8FA41EC100B28483B
:103D7000844210DA53EC192B51EC100BFCF7C7FA04
:103D800053EC1A2BFCF7C6FA41EC100B02B0BDEC59
:103D9000088B04B010BD1F48A042BCBF9FED1E1B86
:103DA0008DED001B06DBA4F50010019000200090B3
:103DB0009DED001B51EC100B53EC112BFCF7A7FAF7
:103DC0009DED000B41EC180B53EC102B51EC1A0B32
:103DD000FCF79DFA41EC1A0B53EC192B51EC180B24
:103DE000FCF795FA53EC1A2BFCF794FA41EC100B04
:103DF000CCE7000000000000000000000000F03FE1
:103E00002C04000000000000000000000000E03F63
:103E10003333D33F0000E93F000000000000D23FF1
:103E200070B504462DED028B4D1E00EBC500B0EEC3
:103E3000408AF0EE608A90ED000B35F0060017D056
:103E400053EC182B51EC100BFCF767FA41EC100BFC
:103E50006D1E04EBC50090ED001B51EC100B53ECF4
:103E6000112BFCF7B3F941EC100B35F00600E7D14C
:103E7000022D36D0042D1CD0062D1CBFBDEC028BAC
:103E800070BD53EC182B51EC100BFCF746FA94ED77
:103E90000A1B53EC112BFCF799F953EC182BFCF788
:103EA0003CFA94ED081B53EC112BFCF78FF941EC15
:103EB000100B53EC182B51EC100BFCF72EFA94ED71
:103EC000061B53EC112BFCF781F953EC182BFCF774
:103ED00024FA94ED040B53EC102BFCF777F941EC2A
:103EE000100B53EC182B51EC100BFCF716FA94ED59
:103EF000021B53EC112BFCF769F953EC182BFCF760
:103F00000CFA94ED001B53EC112BFCF75FF9BDECA0
:103F1000028B41EC100B70BD31B504462DED040B46
:103F20002DED0A8BB0EE41BAF0EE61BA0B989DED23
:103F30000A0B20F00040B0F1795F0DDA51EC100B64
:103F4000FFF7BAFB042808BF00F09AF89DED0A0BB2
:103F5000BDEC0A8B05B030BD53EC102B51EC100BAF
:103F6000FCF7DBF941EC180B9DED0A0B53EC182B19
:103F700051EC100BFCF7D1F941EC190B2C48B0EEC9
:103F8000480AF0EE680A05217844FFF749FF9FEDE3
:103F90002ACBB0EE40AAF0EE60AA9CB353EC1C2BE7
:103FA00051EC190BFCF7B9F941EC1C0B53EC1A2B33
:103FB00051EC190BFCF7B1F99FED210B41EC190BFA
:103FC00053EC102B51EC1B0BFCF7A7F953EC192BFE
:103FD000FCF79DF953EC182BFCF79FF953EC1B2BC6
:103FE000FCF795F953EC1C2BFCF791F99DED0A1B9E
:103FF00053EC112BFCF78EF9BDEC0A8B05B041ECAC
:10400000100B30BDFFE753EC1A2B51EC180BFCF7EB
:1040100084F953EC1C2BFCF7D9F853EC192BFCF763
:104020007CF99DED0A1B53EC112BFCF7CFF8E3E76D
:10403000B402000000000000495555555555C5BF54
:10404000000000000000E03F10B553EC102B51ECD5
:10405000100BFCF7BBF841EC100B10BD000000008A
:104060009FED050B10B553EC102B51EC100BFCF72A
:10407000C6F941EC100B10BD00000000000000006C
:104080009FED050B10B553EC102B51EC100BFCF70A
:1040900044F941EC100B10BD0000000000000010BE
:1040A00002E008C8121F08C1002AFAD17047704701
:1040B000002001E001C1121F002AFBD1704700005F
:1040C00001490860704700000C0000204FF0E0211B
:1040D000096921F004014FF0E0221161C21700EBE1
:1040E0005272C2F3C702074B1A701946097801EBE6
:1040F0004102C2EBC1114FF6FF7202EAC101024A4E
:1041000011807047060000200800002082B0CDE931
:10411000000121F0004001909DED000B02B051EC38
:10412000100B70470723022208214FF4A870FFF7F5
:10413000C9F9A820FFF7CAFFFEF774F801E0FCF701
:1041400042FBFCE7000000004C5555555555A53F76
:104150007751C1166CC156BF9015CB19A001FA3E1C
:10416000AD529C804F7E92BEC4B1B4BD9EEE213E46
:10417000D43888BEE9FAA8BD00004054FB21F93FBD
:104180003163621A61B4D03D0000601A61B4D03D61
:104190007370032E8A19A33B0000002E8A19A33BDB
:1041A000C14920259A837B390000000000000000EF
:1041B0006E83F9A22915444ED15727FCC0DD34F592
:1041C000999562DB4190433CAB6351FE61C5BBDE18
:1041D0003A6E24B7E0D24D42EA2E49061C92D1092C
:1041E0001CEB1DFE3EA729B1F53582E88444BB2EA9
:1041F00026709CE9417E5FB439D69139F4395383F6
:104200008B5F849C3B28F9BDFF97F81F0F9805DE54
:104210008B112FEF1F6D0A5ACF7E366DB709CB2752
:10422000663F464F2DEA5F9EC7BA27757BF1E5EBE7
:10423000F739073DEA92528AB15FFB6B085D8D1F2B
:10424000A6F810111111813FD561C119A0012ABF33
:104250007DFEB157E31DC73EEB9C2B8AE6E55ABEB7
:104260007CD5CF5A3AD9E53D8842000800000020AD
:1042700010000000A0400008984200081000002034
:10428000C8080000B0400008000000000000000066
:08429000000000000000000026
:040000050800018965
:00000001FF
